:020000040800F2
:10000000102E002049010008C5170008130200083F
:10001000851700085D0F00085B2500080000000040
:10002000000000000000000000000000F51E0008B5
:1000300019120008000000009B0100085D20000864
:100040006301000863010008630100086301000800
:1000500063010008630100086301000863010008F0
:1000600063010008630100086301000863010008E0
:1000700063010008630100086301000863010008D0
:1000800063010008630100086301000863010008C0
:1000900063010008630100086301000863010008B0
:1000A00063010008630100086301000863010008A0
:1000B0006301000863010008630100086301000890
:1000C0006301000863010008630100086301000880
:1000D000630100081523000863010008630100089C
:1000E0001D12000863010008630100086301000895
:1000F0006301000863010008630100086301000850
:10010000630100086301000863010008630100083F
:10011000630100086301000863010008630100082F
:10012000630100086301000863010008630100081F
:10013000DFF810D000F052FC00480047E10B000847
:10014000AFF30080102E0020064880470648004785
:10015000FEE7FEE7FEE7FEE7FEE7FEE7FEE7FEE777
:10016000FEE7FEE76D20000831010008EFF3108084
:1001700072B6704780F310887047324A1368012BBB
:1001800004D04FF0010313602F4A10602F4A116012
:100190002F484FF0805101607047EFF3108272B624
:1001A0002848016891B14FF00001016026480168BC
:1001B00029B1EFF3098121E9F00F006801602349BB
:1001C00009680968B1E8F00F81F3098882F31088A3
:1001D0004EF0040E70471D4908601B494FF00000A7
:1001E000086018494FF0010008601A484FF47F0179
:1001F000D0F8002041EA0201016015484FF080511B
:10020000016015480068006880F3088861B662B62E
:1002100070471EF0040F14BFEFF30880EFF309805E
:1002200020E9F00F40F804ED14BF80F3088880F354
:10023000098800B503F0B4FD5DF804EB4EF0040E40
:1002400070470000140100200C0100201001002064
:1002500004ED00E020ED00E008ED00E040EA0103DD
:100260009B0703D009E008C9121F08C0042AFAD26C
:1002700003E011F8013B00F8013B521EF9D2704730
:1002800030B505462A460B4612F8010B13F8014B10
:1002900008B1A042F8D01CB1002802D06D1CF1E7D3
:1002A000284630BD70B50F4D00B92868002412E013
:1002B0000A4602E09E4203D0521C1378002BF9D16B
:1002C000DAB2224305D02BB124B1002100F8011B82
:1002D00004E00446401C0678002EE9D12860204640
:1002E00070BD00001C01002070B5064602F092F9B6
:1002F000046805460A220021304600F048F92C60C7
:1003000070BDF0B480EA0102D40F4200B2EB410F9D
:1003100002D20246084611464A0042D0C30DDDB261
:10032000C1F3C752AD1A202D35DAC1F3160141F4DD
:10033000000204B15242C5F1200602FA06F12A4138
:100340001044B3EBD05F23D0C4B1012DA0EBC35058
:1003500009DCF0BC4FF0004202EAC352DBB200F508
:10036000000000F055B9400000F1807000EBC35070
:10037000A0F1807040EAD170490009E0490841EAE3
:10038000C071A0EBC35000F50000400800EBC35063
:10039000F0BC00F034B96142012202EB4101001BC4
:1003A000F6E7F0BC704781F00041AAE780F000401A
:1003B000A7E780EA010210B502F00043400022D016
:1003C0004A001FD0010E01EB1261C0F35600C2F3C8
:1003D000560240F4000042F40002A0FB0220000498
:1003E0007F39140400D0401C50EA124001D4400070
:1003F000491EC2B20C0604EBD010401C4008802AF3
:1004000002D003E0002010BD20F00100002900DA36
:100410000020184310BD30B480EA010202F000450C
:1004200030F0004221F0004013D090B1C30DD40D44
:10043000C2F31601C0F31600E41A41F4000140F4BF
:1004400000027D34914201D3641C00E04900002C7D
:1004500002DA30BC002070474FF4000000239142C4
:1004600001D3891A034340084FEA4101F7D151B142
:10047000914202D14FF0004105E002D24FF001015C
:1004800001E06FF0010103EBC450284430BC00F0E0
:10049000B6B896230022114600F0BAB820F000400A
:1004A000C10DC0F3160040F400007F2901DA0020DE
:1004B0007047962903DCC1F19601C8407047963910
:1004C0008840704700F0004230F000400AD0C10D73
:1004D00001F56071C0F3160042EA0151C2084007FD
:1004E000114370470020014670470000002801DBDF
:1004F000C0F10040002901DBC1F100418142704799
:1005000030B50B46014600202022012409E021FAE3
:1005100002F59D4205D303FA02F5491B04FA02F5E0
:100520002844151EA2F10102F1DC30BD2DE9F05F77
:100530000546002092469B46884606468146402452
:100540001BE0284641464746224600F068FA5346DB
:100550005A46C01A914110D311461846224600F05F
:100560004FFA2D1A67EB01084F4622460120002161
:1005700000F046FA17EB00094E41201EA4F10104D9
:10058000DFDC484631462A464346BDE8F09F2DE968
:10059000F04791460F4680460446002614F8015B5A
:1005A0002DB100F05FFA0068405DC007F6D12B2D39
:1005B00002D02D2D18D0641E4A463946204600F040
:1005C00055FA27B13968A14201D1C7F800807105F9
:1005D0004FF002040BD54042002803DD02F01AF868
:1005E0000460A007BDE8F08746F48066E4E70028D1
:1005F000F8DA02F00FF804606FF00040F2E700292B
:10060000A8BF7047401C490008BF20F00100704798
:1006100010B4B0FA80FC00FA0CF050EA010404BFF8
:1006200010BC704749B1CCF1200421FA04F411FA4E
:100630000CF118BF012121430843A3EB0C01CB1D92
:100640004FEA00614FEA102042BF002010BC704703
:1006500000EBC35010440029A4BF10BC7047401CDD
:10066000490008BF20F0010010BC70472DE9FE4F83
:10067000804681EA0300C00F0C46009021F0004143
:1006800023F00045B8EB0200A94105D240462146BF
:1006900090461C460B46024623F00040104347D0CC
:1006A000270DC7F30A00C3F30A510290401A0190C4
:1006B00040286BDAC3F3130040F4801B0098924685
:1006C00020B10023D2EB030A63EB0B0B01985946D0
:1006D000C0F14002504600F093F906460D465046E0
:1006E0005946019A00F0ABF910EB08006141002473
:1006F00087EA115284EAE7731A4340D0009A62B342
:10070000019A012A4FEA075215DC001B61EB020136
:100710004FF0004202EA0752CDE90042001C41F5C9
:10072000801132462B4600F0FFF903B0BDE8F08F90
:1007300040462146F9E7001B61EB0201001C41F530
:10074000801300185B412018A2F5001747EB030146
:1007500040EAD570B6196D4111E06D084FEA3606D2
:1007600045EAC0754FEA0752001B61EB0201001C0D
:1007700041F5801149084FEA3000001951413246D5
:100780002B4603B0BDE8F04F00F0BFB9009801223E
:1007900040000023D0EB020263EBE0730098214697
:1007A0004FEAE074B8EB000061EB0401E9E783F085
:1007B00000435BE781F0004158E72DE9FE4F81EAF5
:1007C000030404F0004421F0004100944FF0000BBA
:1007D00023F0004350EA01045ED052EA03045BD0E8
:1007E000C3F30A54C1F30A552C44A4F2F334019420
:1007F000A0FB0254C1F3130141F48011C3F31303AE
:1008000043F4801301FB024400FB034E840A970A61
:1008100044EA815447EA8357A4FB076802958D0A8E
:1008200005FB07854FEA932C04FB0C542705029D1A
:100830004FEA065847EA1637B5EB08056EEB070C8A
:10084000870E920E47EA811742EA8312A7FB020144
:10085000B6EB0B0164EB00042B0D43EA0C335E187E
:1008600044EB1C50DA465146E7FB0201C5F3130482
:100870004FEA0B3343EA14534FEA0432019C43EA34
:100880000603A4F10C040294009CCDE900B400F02E
:100890004BF903B0BDE8F08F00200146F9E72DE9E0
:1008A000F04D81EA030404F0004B21F000451446AA
:1008B0004FF0000A23F0004150EA050220D054EA2C
:1008C00001021DD0C5F30A570246C5F31303C1F355
:1008D0001300C1F30A5640F4801543F48013A7EBCC
:1008E0000608101BD64608F2FD3873EB050002D34C
:1008F00008F1010801E092185B41B8F1000F03DA3A
:1009000000200146BDE8F08D00204FF4801106461E
:1009100084460EE0171B73EB050705D3121B63EB30
:10092000050306434CEA010C49084FEA30009218CF
:100930005B4150EA0107EDD152EA030012D082EA8E
:10094000040083EA0501084305D0101BAB4106D221
:100950000122002306E000224FF0004302E06FF086
:10096000010253101AEB06004CEB085110EB0A0081
:1009700041EB0B01BDE8F04D00F0C7B8C1F30A52DE
:10098000C1F3130140F2FF3341F480119A4202DABD
:1009900000200146704740F233439A42A2F23342AC
:1009A00002DC524200F03BB800F02AB830B5041E19
:1009B00071F1000404DB4FF00044404264EB01019C
:1009C000141E73F1000405DB1C464FF00043524235
:1009D00063EB0403994208BF904230BD064C074DBB
:1009E00006E0E06840F0010394E8070098471034FF
:1009F000AC42F6D3FFF7A0FBE45E0008045F0008FA
:100A0000202A04DB203A00FA02F1002070479140CE
:100A1000C2F1200320FA03F3194390407047202AC3
:100A200004DB203A21FA02F00021704721FA02F398
:100A3000D040C2F120029140084319467047202A55
:100A400006DBCB17203A41FA02F043EAE07306E0F6
:100A500041FA02F3D040C2F1200291400843194606
:100A60007047000000487047D05E00082DE9F05F35
:100A700082460078002715468B460AF10104B946E4
:100A8000302801D09DB113E014F8010B012778281C
:100A900003D0582801D045B10AE00DB1102D07D17F
:100AA0000027102514F8010B02E0082500E00A25B4
:100AB0000026B0460EE005FB080005FB06F1012705
:100AC00001EB10461FFA80F8B6F5803F00D3B94617
:100AD00014F8010B294600F075F80028EBDABBF199
:100AE000000F05D00FB1641E00E05446CBF8004063
:100AF000B9F1000F06D001F08DFD02210160C81E82
:100B0000BDE8F09F48EA0640FAE710B5141E73F1FD
:100B1000000408DA401C41F1000192185B411A43BD
:100B200001D120F0010010BD2DE9F04D92469B4609
:100B300011B1B1FA81F202E0B0FA80F220329046AF
:100B4000FFF75EFF04460F4640EA0A0041EA0B0148
:100B500053465A46084313D0114653EA010019D0B0
:100B6000C8F140025046FFF75AFF05460E46504670
:100B700059464246FFF744FF084305D0012004E0F0
:100B800020463946BDE8F08D0020054346EAE07670
:100B90002C4337430A986305E40AA0EB08000022BF
:100BA000FD0A44EA47540A3002D500200146E9E72D
:100BB000010510196941DDE9084500196941BDE8E1
:100BC000F04DA2E73A2800D2303820F02002412A26
:100BD00001D3A2F13700884201D34FF0FF307047B4
:100BE00010B5FFF7C3FA04F0B3F9002010BD21B12E
:100BF000826842F00102826003E0826822F0010212
:100C00008260704721B1826842F48072826003E0A2
:100C1000826822F4807282607047014600208A68F0
:100C200002F004020AB1012000E0002070470146F2
:100C300000208A6802F008020AB1012000E00020CA
:100C40007047000030B502460020002350680F4C6A
:100C500020400D790C6844EA0524204350609068D8
:100C60000B4C2040D1E902542C434D7944EA450411
:100C700020439060D06A20F470000C7C641EE4B2C3
:100C8000234340EA0350D06230BD0000FFFEF0FF76
:100C9000FDF7F1FFF0B504460D4600200021092DB7
:100CA00011DDE068A5F10A0606EB4607072606FAFD
:100CB00007F18843A5F10A0606EB460603FA06F19A
:100CC0000843E0600CE0206905EB4507072606FABB
:100CD00007F1884305EB450603FA06F10843206156
:100CE000072A0FDA606B561E06EB86071F2606FAE8
:100CF00007F18843561E06EB860605FA06F10843FF
:100D0000606322E00D2A0FDA206BD61F06EB860700
:100D10001F2606FA07F18843D61F06EB860605FA5A
:100D200006F10843206310E0E06AA2F10D0606EB2D
:100D300086071F2606FA07F18843A2F10D0606EB87
:100D4000860605FA06F10843E062F0BD816841F0CD
:100D500008018160704721B1826842F4A00282607C
:100D600003E0826822F4A00282607047816841F04B
:100D7000040181607047000000B58BB00121084676
:100D800000F03AFF114800F005F9114800901148B1
:100D90000190002002900120039000200490059013
:100DA0004FF4807006908000079020200890C001CA
:100DB000099000200A906946044800F0A7F9012133
:100DC000024800F0DBF80BB000BD00000800024054
:100DD0004C2401409C23002008B50121042000F090
:100DE0002BFF00208DF803000220ADF800006946BB
:100DF000014800F0B3FA08BD0008014010B5FFF744
:100E0000EBFFFFF7B9FF00F001F810BD00B585B0AA
:100E10000121480200F010FF01208DF8050000209C
:100E200003904FF4602002900020009001208DF884
:100E3000100000208DF8040069461648FFF702FFF5
:100E40004FF4404000F0CCFE05230122114611482A
:100E5000FFF720FF01210F48FFF7D4FE01210D48C5
:100E6000FFF7C5FE0B48FFF771FF00BF0948FFF70A
:100E7000DEFE0028FAD10748FFF778FF00BF0548DB
:100E8000FFF7CBFE0028FAD101210248FFF763FFEC
:100E900005B000BD0024014010B586B00446002214
:100EA00040F225512B4801F0BEFA002240F22441C5
:100EB000284801F0B8FA0021264801F068FA01211B
:100EC000880300F0B9FE0121042000F0B5FE4FF4C4
:100ED0000070ADF8140018208DF8170003208DF86D
:100EE000160005A91C4800F039FA4FF48060ADF8EF
:100EF000140004208DF8170005A9174800F02EFAF9
:100F000001940020ADF80800ADF80A00ADF80C001F
:100F1000ADF810000C20ADF80E0001A90D4801F04D
:100F2000A7FA00F050FC012240F22551094801F0D7
:100F30007AFA012240F22441064801F074FA0121B4
:100F4000044801F024FA4021024801F017FA06B0E3
:100F500010BD0000003801400008014000BFFEE75E
:100F600000F0805111B10349086001E00249486076
:100F700070470000040402400000024021B10268F2
:100F800042F00102026004E002684FF6FE731A406C
:100F90000260704701684FF6FE7211400160002147
:100FA000016041608160C1604B49884208D14A4973
:100FB0000839496841F00F01474A083A51608AE010
:100FC00045491431884208D143490839496841F0FC
:100FD000F001414A083A51607DE03F49283188429A
:100FE00008D13D490839496841F470613A4A083AE4
:100FF000516070E038493C31884208D1364908399F
:10100000496841F47041344A083A516063E032491A
:101010005031884208D130490839496841F470217B
:101020002D4A083A516056E02B496431884208D174
:1010300029490839496841F47001274A083A516042
:1010400049E025497831884208D12349083949685F
:1010500041F07061204A083A51603CE01F498842E3
:1010600006D1011F096841F00F01021F116032E033
:101070001A491431884208D11849091F096841F0FA
:10108000F001164A121F116025E0144928318842E8
:1010900008D11249091F096841F470610F4A121FF3
:1010A000116018E00D493C31884208D10B49091FF5
:1010B000096841F47041094A121F11600BE00749A9
:1010C0005031884207D10549091F096841F4702150
:1010D000024A121F116070470800024008040240D3
:1010E00001460020002201F0805313B1054B1A681D
:1010F00001E0054B1A6802EA01030BB1012000E090
:1011000000207047000402400000024010B5002299
:10111000026847F6F0739A430C6A8B6823430C69A4
:1011200023434C6923438C692343CC6923434C6A92
:1011300023438C6A23431A430260CB6843600B68E5
:1011400083604B68C36010BD416070472DE9F04774
:101150008CB000260027B046B146B246002549E0D3
:101160002B48405D542843D12948691C405C2C28F9
:101170003ED1681CB0F5017F3ADA254841192F228B
:101180006846FFF76BF800240BE030461DF80410AA
:1011900080EA0102D2B21F4B985C00BF0646601C79
:1011A00084B22E2CF1D39DF82E00B04220D1002421
:1011B00011E004EB44010DF106000844008840B141
:1011C00004EB44010DF10600084400888144781CBA
:1011D000C7B2601C84B20C2CEBDBB9FBF7F0824485
:1011E00008F1010000F0FF084FF000090027002679
:1011F000681C85B2B5F5017FB2DBBAFBF8F081B2AD
:101200000348C01FA0F80E120CB0BDE8F087000024
:10121000932100207A4F00087047000010B502F0BB
:10122000E5FE4FF4006000F023F8A0B10B48007811
:10123000012806D102200A490870002007490870D9
:1012400005E00120064908708871044908704FF4D0
:10125000006000F007F802F0DFFE10BD550000202E
:101260008C210020014908607047000014040140EF
:1012700001460020034A12680A400AB1012000E03A
:101280000020704714040140002123498279002A7C
:101290003AD00A46126803689A430B461A600A1D40
:1012A000126803689A430B1D1A60027911440A6898
:1012B00003681A430A60184A0832126803689A439E
:1012C000154B08331A601A1D126803689A43124BB3
:1012D0000C331A604279102A0ED11A1F1268036863
:1012E0001A430D4B08331A601A1D126803681A431B
:1012F000094B0C331A600DE00749427911440A6822
:1013000003681A430A6005E0027911440A68036819
:101310009A430A60704700000004014030B5002283
:101320008B071C0F0F2303FA04F20B4B8C1053F89E
:1013300024309343084C8D1044F8253023468C10FC
:1013400053F824308C07240F00FA04F42343024C92
:101350008D1044F8253030BD080001402DE9F041E2
:10136000024600250026002000230024002791F8D3
:1013700003C00CF00F0591F803C00CF0100CBCF189
:10138000000F03D091F802C04CEA050591F800C0A7
:10139000BCF1000F31D0146800202BE04FF0010C9D
:1013A0000CFA00F3B1F800C00CEA03069E4220D10B
:1013B00083004FF00F0C0CFA03F7BC4305FA03FC53
:1013C0004CEA040491F803C0BCF1280F06D14FF099
:1013D000010C0CFA00FCC2F814C00AE091F803C03A
:1013E000BCF1480F05D14FF0010C0CFA00FCC2F81B
:1013F00010C0401C0828D1D31460B1F800C0BCF163
:10140000FF0F34DD546800202EE000F1080C4FF08F
:10141000010808FA0CF3B1F800C00CEA03069E427A
:1014200021D183004FF00F0C0CFA03F7BC4305FAEF
:1014300003FC4CEA040491F803C0BCF1280F05D169
:1014400000F1080C08FA0CF8C2F8148091F803C0F7
:10145000BCF1480F07D100F1080C4FF0010808FA61
:101460000CF8C2F81080401C0828CED35460BDE8A8
:10147000F08141617047016170470000F8B50324B5
:1014800015A620E03146174801F078F84FF4FA75B8
:101490000A2003F092FA00BF684601F0EDFF07460C
:1014A000BDF80000002808DD0FA13846FEF7E8FE71
:1014B00018B101F0F1FE0120F8BD0A2003F07DFA19
:1014C000681E051EE8D1201EA4F10101CCB2D9D1BD
:1014D00001F0E2FE0020EFE741542B424155440D5C
:1014E0000A0000000038014042415544000000005D
:1014F0001CB54FF40060009000208DF8040010200F
:101500008DF8050001208DF806006846FFF7BCFE47
:101510001CBD000008B500F081F80121042000F096
:101520008BFB4FF40060ADF8000048208DF80300FD
:1015300003208DF8020069460448FFF70FFF0B21D6
:101540000020FFF7EBFEFFF7D3FF08BD00080140C6
:1015500010B586B018221F496846FEF77FFE0024AA
:1015600033E05DF82400FFF797FCFFF787FF0028C2
:1015700029D0012118A000F067F810B1022006B0B0
:1015800010BD012117A000F05FF808B10320F6E7B5
:10159000012118A000F058F808B10420EFE701215C
:1015A00018A000F051F808B10520E8E7012118A0C3
:1015B00000F04AF808B10620E1E74FF4E130FFF708
:1015C0006BFC0020DBE7601CC4B2062CC9DB0120E9
:1015D000D5E700007C50000841542B424155443867
:1015E0000D0A000041542B50494E363636360D0A4E
:1015F0000000000041542B4E414D45526164617220
:101600000D0A000041542B454E4C4F47310D0A0046
:1016100041542B52455345540D0A000008B54FF470
:10162000C06000F01DF928208DF8000001208DF821
:10163000010002208DF8020001208DF803006846A9
:1016400000F0D6F808BD00002DE9F84305460C4629
:10165000032623E02946174800F090FF4FF4FA775D
:101660000A2003F0AAF900BF684601F005FF804692
:10167000BDF8000000280BDD0FA14046FEF700FE7C
:1016800030B1012C01D101F007FE0020BDE8F88344
:101690000A2003F092F9781E071EE5D1301EA6F14C
:1016A0000101CEB2D6D1012C01D101F0F5FD01200E
:1016B000ECE70000003801404F4B000000B58BB054
:1016C0000121084600F098FA1148FFF763FC114821
:1016D000009011480190002002904FF40170039097
:1016E0000020049080200590002006900790202084
:1016F00008904FF44050099000200A906946044831
:10170000FFF704FD00210248FFF738FC0BB000BDD5
:101710006C000240044400409321002000B585B0D5
:101720000121042000F088FA0121480400F074FA35
:101730000820ADF8100004208DF8130004A90F480C
:10174000FFF70CFE4FF4612000900020ADF804007C
:10175000ADF80600ADF80800ADF80C000420ADF8B7
:101760000A006946064800F083FE0021044800F0A4
:101770000EFEFFF7A3FF05B000BD0000000801400A
:101780000044004000BFFEE770B505460C4600204F
:101790002870012020700A494878FEF77AFE064634
:1017A0003146284600F01CFC0549C878FEF771FE5A
:1017B00006463146204600F013FC012070BD0000B3
:1017C0008C210020704708B54FF4E06000F048F825
:1017D00025208DF8000000208DF8010001208DF8F3
:1017E00002008DF80300684600F002F808BD000012
:1017F00070B5002100230F22C47804B3154C24686F
:1018000004F4E064C4F5E064210AC1F10403CA40B1
:10181000447804FA03F184781440214309010E4C02
:101820000678A155047804F01F050124AC40057822
:101830006D11AD0005F1E025C5F8004109E004781F
:1018400004F01F050124AC40044D0678761145F8DC
:10185000264070BD0CED00E000E400E080E100E017
:1018600002490143024A1160704700000000FA0576
:101870000CED00E02DE9F0470446884615464FF090
:1018800000090026002720E0E85D203800F0FF096D
:101890007E2C04DD002408F1010000F0FF08414621
:1018A000204600F0F7F8002609E009EB4901094A53
:1018B00002EB4101885D00F00FF9701CC6B2062EE4
:1018C000F3DBA01DC4B2781CC7B2E85D0028DBD1F1
:1018D000BDE8F087145100082DE9F05F06460F4679
:1018E00090461C46DDF828A04FF0000BE11704EBF2
:1018F0005171C910A4EBC10131B92046E11704EBC5
:101900005171C1F3C70506E02046E11704EB5171A0
:10191000C910491CCDB23D4614E02946304600F0BE
:10192000B9F8B1460AE059460BF1010B1AF801006B
:1019300000F0D2F809F1010000F0FF09C145F2DB27
:10194000681CC5B2A542E8DBBDE8F09F10B50020D9
:1019500000F001F810BD70B50646002415E004F152
:10196000B001C8B200F0AAF8012000F0A7F81020DA
:1019700000F0A4F8002504E0304600F0ADF8681C43
:10198000C5B2802DF8DB601CC4B2082CE7DB70BD4B
:1019900008B50121082000F04FF94FF4C050ADF810
:1019A000000010208DF8030003208DF80200694626
:1019B0003748FFF7D3FC4FF400613548FFF75BFD74
:1019C0004FF480513248FFF756FD4FF4FA7001F0A2
:1019D00031FDAE2000F072F8AE2000F06FF800206C
:1019E00000F06CF8102000F069F8402000F066F874
:1019F000812000F063F8CF2000F060F8A12000F013
:101A00005DF8C82000F05AF8A62000F057F8A8208A
:101A100000F054F83F2000F051F8D32000F04EF8C9
:101A2000002000F04BF8D52000F048F8802000F0AE
:101A300045F8D92000F042F8F12000F03FF8DA2014
:101A400000F03CF8122000F039F8DB2000F036F806
:101A5000402000F033F8202000F030F8022000F0A1
:101A60002DF88D2000F02AF8142000F027F8A4208B
:101A700000F024F8A62000F021F8AF2000F01EF8B6
:101A80000020FFF768FF0021084600F003F808BDBA
:101A9000000C014070B504460D4605F1B001C8B216
:101AA00000F00CF8102141EA141000F007F804F0DF
:101AB0000F0141F0010000F001F870BD10B50446BF
:101AC0004FF480510348FFF7D4FC204600F0C0F9E2
:101AD00010BD0000000C014010B504464FF48051C9
:101AE0000348FFF7C8FC204600F0B2F910BD000023
:101AF000000C01403EB504460D460121022000F0D5
:101B00008BF8684600F0FCFBADF80050ADF80440DF
:101B10000020ADF80200ADF806006946014800F06B
:101B20009DFB3EBD0004004008B501210D2000F0E2
:101B300083F84020ADF8000018208DF80300032042
:101B40008DF8020069460848FFF708FC0220ADF84E
:101B5000000018208DF8030003208DF8020069466C
:101B60000248FFF7FBFB08BD00080140000C0140E4
:101B700010B5FFF7D9FF482144F62060FFF7BAFF00
:101B800000F002F810BD00001FB5684600F057FBDA
:101B90006020ADF800000120ADF802000220ADF891
:101BA00008000020ADF8060069460C4800F0A6FACF
:101BB00069460A4800F0F8FA0821084800F0EAFAF5
:101BC0000821064800F02EFB0121044800F07EFAAF
:101BD0000121024800F086FA1FBD00000004004009
:101BE00001460020034A506820F4404008435060FA
:101BF000704700000010024029B1064A52690243B2
:101C0000044B5A6104E0034A52698243014B5A6112
:101C1000704700000010024029B1064AD269024311
:101C2000044BDA6104E0034AD2698243014BDA6172
:101C3000704700000010024029B1064A9269024331
:101C4000044B9A6104E0034A92698243014B9A6112
:101C5000704700000010024030B50021002200242F
:101C600000232D4D6D6805F00C0121B1042905D02C
:101C7000082923D105E0294D056022E0274D0560A4
:101C80001FE0254D6D6805F47012234D6D6805F455
:101C90008034022505EB92421CB9214D5543056065
:101CA0000BE01D4D6D6805F400351DB11C4D55430D
:101CB000056002E0194D5543056002E0174D0560CF
:101CC00000BF00BF144D6D6805F0F0010909154D06
:101CD0006B5C0568DD4045600F4D6D6805F4E061A3
:101CE000090A104D6B5C4568DD4085600A4D6D68E2
:101CF00005F46051C90A0B4D6B5C4568DD40C56059
:101D0000054D6D6805F44041890B074D6B5CC56856
:101D1000B5FBF3F5056130BD0010024000127A00FA
:101D200000093D00140000202400002021B1028899
:101D300042F04002028004E002884FF6BF731A406E
:101D40000280704700B587B001210820FFF774FFBB
:101D500001218803FFF760FF4FF40050ADF8180031
:101D600018208DF81B0003208DF81A0006A92048C2
:101D7000FFF7F4FA4FF48040ADF8180004208DF816
:101D80001B0006A91A48FFF7E9FA4FF40040ADF826
:101D9000180018208DF81B0003208DF81A0006A9E2
:101DA0001348FFF7DBFA1020ADF810000020ADF863
:101DB0000C00ADF80A000720ADF814000020ADF8C3
:101DC0000800ADF80400ADF812004FF48270ADF8D1
:101DD00006004FF40070ADF80E0001A9054800F0B0
:101DE00019F801210348FFF7A1FF07B000BD00006B
:101DF000000C0140003800400246002013890B40CF
:101E00000BB1012000E0002070470146888970472F
:101E10008181704710B50022028802F441520B887C
:101E20004C8823438C882343CC8823430C89234349
:101E30004C8923438C892343CC8923431A43028052
:101E4000838B4FF2FF74234083830B8A038210BD80
:101E500010B504464FF47A70194908600AE0184931
:101E60000868411E164A116020B9002000F02CF8C5
:101E7000C0B210BD02211348FFF7BEFF0028EED00C
:101E800021461048FFF7C4FF4FF47A700C490860F0
:101E90000AE00B490868411E094A116020B9012077
:101EA00000F012F8C0B2E4E701210648FFF7A4FFF2
:101EB0000028EED00348FFF7A8FFC0B2D9E7000022
:101EC0005C0000200038004010B50446214602A006
:101ED00000F062FB002010BD53504920B5C8B4FD8E
:101EE000B3ACCAB1216572726F72436F6465203DF5
:101EF00020256400704710B500F002F810BD000006
:101F00000CB50020019000903348006840F4803008
:101F10003149086000BF3048006800F4003000908C
:101F20000198401C0190009818B90198B0F5A06F75
:101F3000F1D12948006800F4003010B10120009070
:101F400001E0002000900098012843D12348006858
:101F500040F01000214908600846006820F00300A6
:101F600008600846006840F0020008601A484068AF
:101F7000194948600846406848600846406840F48F
:101F8000806048600846406820F47C10486008463D
:101F9000406840F4E81048600846006840F08070EF
:101FA000086000BF0C48006800F000700028F9D0FD
:101FB0000948406820F00300074948600846406827
:101FC00040F00200486000BF0348406800F00C0089
:101FD0000828F9D10CBD000000100240002002408A
:101FE0002DE9F04704460D46207810B1012826D18E
:101FF00014E029461548FEF7D6F981461449FEF744
:10200000D8F980461349FEF77CF90746FEF746FAF1
:1020100086B23146104800F01CF910E00C49284601
:10202000FEF7C7F980460B49FEF76BF90746FEF746
:1020300035FA86B23146084800F00DF900BF00BFFE
:102040002846FEF72BFA6070BDE8F0870000B44226
:10205000B81EED400000FA430004004010B501F046
:10206000C5FF02F03FFE01F0D7FF10BD10B51348C9
:10207000006840F0010011490860084640681049B6
:1020800008400E494860084600680E4908400B4960
:1020900008600846006820F4802008600846406810
:1020A00020F4FE0048604FF41F008860FFF723FF14
:1020B0004FF000600449086010BD000000100240AD
:1020C0000000FFF8FFFFF6FE08ED00E021B10288F6
:1020D00042F08002028004E002884FF67F731A40CB
:1020E0000280704721B1028842F00102028004E0C0
:1020F00002884FF6FE731A400280704770B50024C4
:1021000000220023058C4FF6FE7635400584028CB4
:102110008388048B4FF68F752C40B51E2C400D889C
:102120002C43751E2A400D892A434D882A43144D9D
:10213000A8420BD0134DA84208D0134DA84205D099
:10214000124DA84202D0124DA84213D14FF6F77596
:102150002A404D892A434FF6FB752A408D882A4331
:102160004FF6FF652B404FF6FF552B408D892B43D3
:10217000CD892B4383800483CD888586028470BDFE
:10218000002C014000340140004001400044014067
:10219000004801400A460021018B4FF6F7731940B1
:1021A000114301837047000070B500220023002412
:1021B000058C4EF6FF7635400584038C8488828B2F
:1021C00048F6FF752A404FF6FF452A400D884FF626
:1021D000FF7606EA05252A434DF6FF752B400D894B
:1021E00006EA05352B434D8806EA05352B430B4D92
:1021F000A84202D00A4DA84208D14BF6FF752C40E8
:102200008D894FF6FF7606EA85152C4384808283FC
:10221000CD88A0F84050038470BD0000002C014020
:10222000003401400A460021818B4FF2FF731940B0
:102230004FF6FF7303EA022319438183704700219D
:10224000018041808180C180018141818181C18182
:10225000704781867047A0F84010704700220288BE
:102260001D4B98420ED01D4B98420BD0B0F1804FC1
:1022700008D01B4B984205D01A4B984202D01A4BFB
:10228000984204D14FF68F731A404B881A43174B6C
:10229000984207D0164B984204D04FF6FF431A409D
:1022A000CB881A4302808B8883850B8803850A4B71
:1022B00098420BD0094B984208D00E4B984205D05B
:1022C0000D4B984202D00D4B984201D10B7A0386F8
:1022D0000123838270470000002C0140003401403C
:1022E0000004004000080040000C004000100040C6
:1022F00000140040004001400044014000480140FB
:102300004FF6FF71818000210180C1804180017200
:102310007047000010B501F069FE40F225511548E4
:1023200000F057F8A8B1134800F00EF9C4B21248F3
:102330000088B0F5806F0CDA0A2C0AD00D2C08D07A
:102340000D480188801C4454801E0088401C0A49A6
:10235000088040F22441074800F03BF8012805D1ED
:10236000054981F80204034800F0EEF801F054FE3C
:1023700010BD000000380140B023002001F40072BD
:10238000B2F5007F00D100BFCA430280704721B17F
:10239000828942F40052828104E082894DF6FF7303
:1023A0001A40828170471AB1838A0B43838202E00C
:1023B000838A8B438382704702460020B1F5007FF9
:1023C00000D100BF13880B400BB1012000E00020BA
:1023D000704770B50246002400230025002040F617
:1023E0006A16B14200D100BFC1F3421501F01F03CC
:1023F000012606FA03F3012D02D19689334006E047
:10240000022D02D1168A334001E0968A33400C1225
:10241000012606FA04F41688344013B10CB10120E9
:1024200000E0002070BDF0B5034600240026002522
:10243000002040F66A17B94200D100BF1846C1F328
:10244000421401F01F06012707FA06F5012C01D1FD
:102450000C3004E0022C01D1103000E014301AB12D
:1024600007682F43076002E00768AF430760F0BDCD
:102470002DE9F04786B005460E460024A24600BF6F
:10248000A1460027B08900B100BF2F462C8A4CF628
:10249000FF700440F08804432C82AC894EF6F310A0
:1024A0000440B08831890843718908430443AC81F2
:1024B000AC8A4FF6FF400440B0890443AC8201A8C7
:1024C000FFF7CAFB1F48874202D1DDF810A001E0E8
:1024D000DDF80CA0A88900F4004040B10AEBCA0066
:1024E00000EB0A1031684900B0FBF1F807E00AEB95
:1024F000CA0000EB0A1031688900B0FBF1F86420D3
:10250000B8FBF0F004012009642101FB1089A889BF
:1025100000F4004040B1322000EBC900B0FBF1F004
:1025200000F00700044308E0322000EB09106421AA
:10253000B0FBF1F000F00F0004432C8106B0BDE8C1
:10254000F08700000038014001468888C0F3080089
:102550007047C1F308028280704700BFFEE770B584
:1025600004460D4629462046FFF7F3FF00BF8021B1
:102570002046FFF721FF0028F9D070BD70B5064650
:102580000C46002500BF615D3046FFF7E8FF6D1C7B
:10259000605D0028F7D170BD0FB4054B10B503A9DD
:1025A000044A029800F03CF910BC5DF814FB0000EE
:1025B00055340008200100200FB4084B10B504A9C1
:1025C00002AA039800F02CF9044602A9002000F0AA
:1025D00030FD204610BC5DF814FB000033300008CD
:1025E0007CB50C001D461646014601D0601E00E079
:1025F0000020CDE90010064B6A462946304600F01F
:102600000FF9002C02D0009A002111707CBD00004F
:102610001D3000080048704724010020014609B918
:1026200000207047C8B220B1C8B20E4A105C401CEE
:10263000F7E701F47F4028B10A48C1F30722805C24
:102640000930EEE701F47F0028B10648C1F30742E4
:10265000805C1130E5E7034800EB11600078193029
:10266000DFE700002C5D000802E008C8121F08C167
:10267000002AFAD170477047002001E001C1121F03
:10268000002AFBD1704700002DE9FF5F82B00021D6
:10269000DDE90430020DDDF840B0034318D044F604
:1026A0001050A2F2FF3242431514119801281FD096
:1026B000A5EB0B00401C5FEA000A4FF000064E4FEE
:1026C000DFF83891B046504615D5CAF1000413E042
:1026D000119801244AA3012801D16FEA0B01029845
:1026E000119AC0E90031C0E9024206B0BDE8F09F8E
:1026F000CBF10000DFE704460021404A491842EBD5
:102700000450CDE9001012E0E00707D032463B4606
:1027100040464946FEF751F88046894632463B46D8
:1027200010461946FEF749F806460F466410002C7D
:10273000EAD1DDE90401DDE90023BAF1000F06DA90
:10274000FEF73BF842464B46FEF737F805E0FEF74A
:10275000A6F842464B46FEF7A2F804460E46002273
:10276000284BFEF723F903D84FF0FF30014607E06E
:102770000022254B20463146FDF778FFFEF7FEF894
:10278000102409E0002C0ADB0A220023FDF7CEFE0C
:10279000039B30321A55641E50EA0102F2D1641CC8
:1027A000039AC4F111031444119A012A03D001229F
:1027B00008430DD10AE0084304D000204FF0110B6C
:1027C000119072E7A3EB0B056D1E0DE05B4504DD78
:1027D0004FF0000205F1010504E003DA4FF00002BA
:1027E000A5F10105002AECD002981199C0E9023147
:1027F000C0E9004579E70000000014400000F03F08
:10280000300000000000F0430000E03F034908688A
:10281000884201D0012070470020FCE7F80000202A
:102820002DE9FF4F95B09A46884606460025EEE111
:10283000252877D100242746F94A0121039400E096
:10284000044316F8013F203B01FA03F01042F7D190
:1028500030782A2811D06FF02F033078A0F13002A1
:10286000092A16D8039A44F0020402EB820203EB11
:1028700042021044761C0390EFE758F8042B0392B1
:10288000002A03DA504244F40054039044F0020456
:10289000761C30782E2816D116F8010F44F0040467
:1028A0002A280DD06FF02F023078A0F13003092BC9
:1028B00009D807EB870302EB4303C718761CF3E73D
:1028C00058F8047B761C30786C280FD006DC4C2836
:1028D00017D068280DD06A2814D104E0742810D0CD
:1028E0007A280FD10DE044F400140AE044F4801477
:1028F00001E044F440147278824202D104F580145D
:10290000761C761C307866280BD013DC582877D0DC
:1029100009DC002875D04528F6D04628F4D0472891
:102920001AD193E118E0632835D0642879D065285E
:1029300012D18BE1702873D008DC6728F1D06928A8
:102940006FD06E280DD06F2806D1ACE073282CD044
:10295000752874D0782853D05246179990476D1C2B
:1029600054E1C4F30250022809D003280DD0D8F84E
:10297000001004280DD00D6008F1040846E1D8F8D5
:102980000010EA17C1E90052F6E7D8F800100D80F0
:10299000F2E70D70F0E718F8041B8DF80010002026
:1029A0008DF80100EB46012003E058F804BB4FF01E
:1029B000FF3061074FF0000102D40DE009F1010181
:1029C0008946B9420FDA8145F8DB1BF80910002966
:1029D000F4D108E009F1010189468142FADB1BF8D4
:1029E00009100029F6D103985346A0EB09072146A8
:1029F0003846179A00F080FA284400EB090507E0F2
:102A000044E008E10DE01BF8010B5246179990478E
:102A1000B9F10109F7D2534621463846179AF2E038
:102A200039E00A21C4F302524FF0000B0091022A50
:102A300006D058F8040BC117032A09D00AE023E096
:102A400008F1070020F00702F2E80201904605E0D5
:102A500000B2C117042A01D140B2C117002906DA19
:102A60000A460021404261EB02012D2202E02205CC
:102A700004D52B228DF80420012203E0E20701D0C7
:102A80002022F7E7914657E00A2100E010214FF09D
:102A9000000B00910BE010214FF0000B44F00404F8
:102AA0000827009103E008204FF0000B0090C4F3CA
:102AB0000252022A05D058F8040B0021032A08D03C
:102AC00008E008F1070020F00702F2E80201904652
:102AD00003E080B2042A00D1C0B24FF000092207FF
:102AE0002AD53278702A07D0DDF800C08CF0100C9F
:102AF0005CEA0B0C05D00EE040228DF80420012288
:102B000008E050EA010306D030238DF804308DF838
:102B1000052002229146009B83F0080353EA0B0331
:102B20000AD150EA010201D1620705D530228DF8A1
:102B300004204FF001097F1E3278582A04D039A2B0
:102B40000C920CAA02920BE03BA2F9E75B46009ABA
:102B5000FDF7ECFC0C9B9B5C029A521E02921370D8
:102B600050EA0102F2D1029804A9081A00F1200BE0
:102B7000600702D524F4803400E001275F4502DDC0
:102B8000A7EB0B0000E0002000EB0B010090039886
:102B90004944401A0390E00306D453462146179A4D
:102BA000039800F0A9F90544002706E001A8524661
:102BB000C05D179990476D1C7F1C4F45F6DBE00305
:102BC0000CD553462146179A039800F095F9054411
:102BD00004E030205246179990476D1C0099481E1A
:102BE00000900029F5DC08E002980299524600782E
:102BF000491C0291179990476D1CBBF10001ABF184
:102C0000010BF1DC5BE100F065F90544761C3078DE
:102C100000287FF40DAE19B02846BDE8F08F000003
:102C200009280100303132333435363738396162A2
:102C30006364656600000000303132333435363766
:102C4000383941424344454600000000600700D443
:102C5000062708F1070020F00700F0E8022380466D
:102C600003F0004C5FEA0C0001D097A009E02005BA
:102C700001D596A005E0E00701D095A001E0AFF2F4
:102C80004C001390307823F0004365280CD006DC0C
:102C9000452809D046281DD047287FD13BE066282B
:102CA00018D067287AD136E00021112F01DB1120DE
:102CB00000E0781CCDE9000104A90CA8FFF7E4FCB2
:102CC000DDE90D010C9A4FF0000B07F1010910929C
:102CD00000914EE04FF000400097CDE9011004A9AB
:102CE0000CA8FFF7D1FCDDE90D020C9B0F994FF00A
:102CF000000B91461093009211B9791C00EB010969
:102D0000B7EB090003D4C0F1FF3B07F10109A9EBC0
:102D10000700019042E0012F00DA01270021112F66
:102D200001DD112000E03846CDE9000104A90CA81E
:102D3000FFF7AAFCDDE90D010C9A00914FF0000BA2
:102D4000B946109221070FD4009A4A4503DA9146FA
:102D500001E0A9F10109B9F1010F05DD109AA9F10E
:102D60000101515C3029F4D0B84202DA10F1040FAD
:102D700003DA0121CDE9011010E0002803DC8344CF
:102D8000A9EB000102E0411C494500DD8946A0EBAA
:102D90000B00401C01904FF000400290200705D42A
:102DA0000198484502DB4FF0FF30019000208DF87C
:102DB0004B0002980DF14B07B0F1004F25D00220D7
:102DC0000C902B200D90029800280CDA40420290C3
:102DD0002D200D9007E00A210298FDF791FB30317C
:102DE000029007F8011D0C99481E0C900029F2DC96
:102DF00002980028EFD1791E0D980870307800F005
:102E0000200040F0450007F8020D11A8C01BC01DAE
:102E100002901398007800B1012000EB090101989D
:102E200001EBE071029801440398401A401E0390A0
:102E3000E00306D453462146179A039800F05CF845
:102E400005441398007818B15246179990476D1CA5
:102E5000E00323D553462146179A039800F04CF817
:102E600005441BE0BBF1000F07DB0098584504DD6B
:102E70001098179910F80B0001E01799302052466E
:102E8000904701980BF1010B401E05F101050190DF
:102E900004D12E205246179990476D1CB9F10001BC
:102EA000A9F10109DEDC05E017F8010B524617997C
:102EB00090476D1C0299481E02900029F4DC53468D
:102EC0002146179A03989EE62D0000002B00000073
:102ED000200000002DE9F041044600251E4617465B
:102EE000880404D405E039462020B0476D1C641ED8
:102EF000F9D52846BDE8F0812DE9F04104460025CA
:102F00001E469046C80301D5302700E020278804DC
:102F100004D505E041463846B0476D1C641EF9D51E
:102F20002846BDE8F08100002DE9FC5F04468B4691
:102F300015461E46DDE90C9ADDE90E7804F1140011
:102F40004060006000BF1C346560A660C4F80C904F
:102F5000C4F810A02321D4E9030201F0E7F9D4E971
:102F6000033C63441A1F0F4BD4E9010101F018F828
:102F70002060A77667760020E061C4F82080C4F85E
:102F80002480606120766065A0651C3C009023462B
:102F9000054A2146019004F1440001F025FF00207C
:102FA000BDE8FC9F094A0008554C00082DE9F04790
:102FB00004460E4617469846DDF8209084F809909E
:102FC000607A20F001006072E66127620020A06252
:102FD000C4F82480002506E004F1140101EBC500CB
:102FE00001F0ACF86D1C012DF6DBBDE8F08710B5E3
:102FF0000246002001460EE002F1140303EBC1007B
:10300000D0E900436360D0E9003423604060006091
:1030100000BF481C01460129EEDB10BD4A68002AAA
:1030200006D00A68531C0B6010704868401E486048
:1030300070470A68531C0B60107070479AB00024E8
:103040000025FEF785FA72490870084600780028C6
:1030500020D0FEF77BFC6FA101A8FFF7ADFA01AA13
:1030600001210020FEF706FC6FA101A8FFF7A4FADA
:1030700001AA02210020FEF7FDFB6548027870A13D
:1030800001A8FFF799FA01AA05210020FEF7F2FB3B
:1030900000BFFEE7BBE06F48007802287DD16E4894
:1030A00090F80204012879D100216B480288801C25
:1030B0008154801E80783038C4B2062C07D2DFE8F5
:1030C00004F08B0307364B5402206249887183E079
:1030D0006248006898B91E2006214FF40073002250
:1030E000CDE900105E495FA001F03FFC5B4908603C
:1030F0000846006818B10846006801F073FD5B4897
:10310000006898B91E2006214FF400730022CDE913
:103110000010574957A001F028FC544908600846A0
:10312000006818B10846006801F05CFD54E04F48A3
:10313000006818B14D48006801F046FC00204B497A
:1031400008604648006818B14448006801F03CFC3B
:103150000020424908603FE048494948FEF714FB17
:103160004FF4FA6001F029FC36E046A13A48C01C51
:10317000FDF798F806463046FDF7B6F83549487031
:1031800040A10020FDF78EF806463046FDF7ACF86A
:10319000304988703BA1002001E035E023E0FDF7D5
:1031A00081F806463046FDF79FF82A49C87035A1D8
:1031B0000020FDF777F806463046FDF795F82549DB
:1031C000087130A10020FDF76DF806463046FDF786
:1031D0008BF82049487100BF00BF00201E4981F8CC
:1031E00002040880002401212748006801F01FFA2A
:1031F00005464DB91748B0F80E3290F80D2290F8F8
:103200000C1222A0FFF7C8F9142001F0D6FB42E708
:1032100054000020424C5420636F6E66696720663C
:1032200061696C6564210000436865636B207468A4
:103230006520424C54204D6F64756C6500000000A1
:10324000424C54204572726F7220436F64653A207D
:10325000256400008C210020B023002028000020DD
:103260008D3400086C61736572000000340000202A
:10327000C1320008636F6E74726F6C0058000020DA
:10328000560000202F000000400000202F25642F52
:1032900025642F25640D0A0040F201400021074AF1
:1032A000118082F8021406E00022411E8BB21846FB
:1032B0000249891CCA540028F6D17047B023002067
:1032C0002DE9F041804601263848C47845785BE016
:1032D0004FF0FF313648006801F0A9F935484178D0
:1032E000324880F80D1234484078304981F80C0299
:1032F0003248006801F07EF9012E16D12B48407942
:103300002044C4B229480079A04226DC2748047929
:1033100040792844C5B20EB9012000E000200646DD
:1033200022488078A84218DC2FE0B6B91F484079BF
:10333000201AC4B21D48C078A0420EDB1B48C478D6
:1033400040792844C5B20EB9012000E000200646AD
:1033500016488078A84200DC17E02846FDF799F867
:10336000074639461448FEF73BFE2046FDF791F824
:10337000074639460F48FEF733FE142001F01DFBC7
:103380000F48006801F036F9A2E70A490A48FEF73B
:10339000FBF94FF4FA6001F010FB0A48006818B11D
:1033A0000848006801F010FBBDE8F0818C21002086
:1033B0003800002058000020560000204000002067
:1033C0003C0000202800002001200E490870887170
:1033D00000204870572088700020C870B420087101
:1033E000012048710020A1F81002C1F8140206481B
:1033F000C1F818020548C1F81C020548C1F82002AE
:10340000704700008C2100203333D340EC5104413D
:1034100000004040002107E041F63E7100BF0A1E57
:10342000A1F1010399B2FAD1021EA0F1010398B2F1
:10343000F2D17047002107E042F6E06100BF0A1EAA
:10344000A1F1010399B2FAD1021EA0F1010398B2D1
:10345000F2D1704770B504460D46A1B20548FFF79A
:1034600078F800BF80210348FEF7A6FF0028F9D0B6
:10347000204670BD0038014001460348008808809E
:103480000148801C70470000B02300200122402129
:103490001D48FEF788FF35E008211B48FEF78CFF2A
:1034A0001948FFF751F801211848FDF767FD012180
:1034B0001548FEF76CFF02E0142001F07EFA4FF48D
:1034C0000010FDF70DFE0128F6D100210E48FEF791
:1034D0005EFF00210D48FDF751FD4FF401710B48CF
:1034E000FDF732FE4FF40010FDF73AFDFDF72EFE1A
:1034F0000748006801F07EF84FF0FF31054800688A
:1035000001F095F8C8E70000004400406C0002405C
:10351000380000203C0000201CB50022114622A0EB
:1035200001F040F8244908600022114623A001F070
:1035300039F8274908600022114626A001F032F828
:10354000284908601E2006214FF400730022CDE9AF
:103550000010254925A001F008FA26490860084610
:10356000006820B10846006801F03CFB02E04FF023
:10357000FF301CBD1E2005214FF400730022CDE951
:1035800000101D491DA001F0F0F91D490860084612
:10359000006820B10846006801F024FB02E04FF00B
:1035A000FF30E6E70020E4E7646973745F726561E9
:1035B00064795F73656D000038000020636F6E747E
:1035C000726F6C5F72656164795F73656D00000096
:1035D0003C000020646174615F72656164795F73AF
:1035E000656D000040000020153600086F6C6564B2
:1035F00000000000300000203D300008626C7400C4
:103600002C00002010B5044600F0D4F9FFF784FF29
:1036100010BD00002DE9F04106467749B1F81002CF
:10362000FCF737FF75490860C2E07349D1F814020E
:10363000FCF748FF044622460B4671A17648FEF788
:10364000BBFF754A00210846FEF714F96A488079E5
:10365000012804D171A17048FEF7AEFF03E074A108
:103660006D48FEF7A9FF6C4A02210020FEF702F91F
:103670006148427873A16848FEF79EFF664A0321BD
:103680000020FEF7F7F85C48827874A16248FEF7E4
:1036900093FF614A04210020FEF7ECF85648C278F7
:1036A00074A15D48FEF788FF5B4A05210020FEF704
:1036B000E1F85148027975A15748FEF77DFF564A57
:1036C00006210020FEF7D6F84B48427975A15248F2
:1036D000FEF772FF504A07210020FEF7CBF877482B
:1036E000007864284FD1764976480068FCF793FE4D
:1036F00075490860414801687448FCF75AFE044661
:10370000714801687248FCF754FE05462146FCF7F3
:10371000F8FD6C4908606F496A480068FCF749FE8B
:1037200068490860344AD2F81812D2F81C02FCF733
:103730003AFE07463049D1F81C0262490968FCF795
:1037400032FE80463946FCF766FE05464FF07E5154
:10375000FCF72CFE04465A49FCF72BFE2649C1F81B
:1037600014020A46D2F82012D2F81402FCF7BEFE68
:1037700000D21EE0544800682049086000204F49EC
:103780000870504908601C49B1F81002FCF781FE2E
:1037900004464C4801682046FCF7B3FD49490860DF
:1037A00046480078401C45490870322001F005F970
:1037B0003BE7FEF7CBF848A11748FEF7FDFE164A97
:1037C00004210020FEF756F84748006818B1464823
:1037D000006801F0F9F84548006818B143480068EE
:1037E00001F0F2F84248006818B14148006801F061
:1037F000EBF8BDE8F08100008C2100205000002093
:103800004261743A202020202020202020202025E2
:103810002E662525200000002801002051544C6907
:103820006E6B3A2020756E636F6E6E656374000078
:1038300051544C696E6B3A20202020636F6E6E6588
:1038400063740000566572746963616C5F4D494E24
:103850003A20202564202020000000005665727464
:103860006963616C5F4D41583A2020256420202017
:10387000000000004C6576656C5F4D494E3A202093
:103880002020202564202020000000004C65766563
:103890006C5F4D41583A20202020202564202020B4
:1038A000000000005363616E5F7362733A20202052
:1038B000202020256420202000000000440000205B
:1038C0000000C842480000204C0000209A99993E10
:1038D0003333333FBC74133C504F574552204C4F49
:1038E00057212121000000002C000020340000207E
:1038F0002800002030B51A4C436824681919884202
:1039000015D04B889BB9174B1B6899420FD0164BAB
:103910001B688B4201D1144B18604B684360104BFD
:103920001B68C31A0E4D4C682D682C44A3600C4CC8
:10393000836824681A19824211D053887BB90A4BD4
:103940001B68834201D1084B1A6043685360044BE3
:103950001B68D31A024D44682D682C44A36030BD07
:103960007000002074000020780000201CB5142096
:1039700002210B020022CDE90010044904A000F04E
:10398000F4FF0446204601F02DF91CBD0536000861
:103990006D61696E0000000010B5044C02E0206803
:1039A0008047241D02488442F9D310BDD85E000828
:1039B000DC5E000810B5044C02E020688047241D3E
:1039C00002488442F9D310BDDC5E0008E05E0008C6
:1039D00070B505460A480668284600F02EF80446E9
:1039E00064B10748006818B10548006800F00AF89B
:1039F0004321204600F04AF801480460304670BD7B
:103A00006C00002070B504460025A07E08B9681E31
:103A100070BDA07E401EA076A07E08B10020F7E712
:103A2000E06A18B12046E16A884705460DB1A81D35
:103A300008B9002020832846EAE72DE9F041064630
:103A400001F0A8F808B100F09BF8082000F0D4FCC1
:103A500005466C6810E0A4F10C0708223146384690
:103A600000F08CFE38B901F095F808B100F098F834
:103A70003846BDE8F0812468281D8442EBD101F06E
:103A800089F808B100F08CF80020F2E770B5044620
:103A90000E460025A07D00F0100088B9606A58B17C
:103AA0002046616A8847054635B12A46214616A058
:103AB00000F00AFB284670BDE08A40F01000E0826A
:103AC000A07D00F0080030B1207E00F0080010B1A9
:103AD0006FF00600EFE7A06A28B131462046A26ADF
:103AE0009047054603E040F60F70304020830DB14B
:103AF000A81D30B9208B40F008002083A07E401C18
:103B0000A0762846D7E70000546F20696E69746973
:103B1000616C697A65206465766963653A2573200E
:103B20006661696C65642E20546865206572726FE9
:103B30007220636F64652069732025640A000000A9
:103B40002DE9F04104460D4616461F46A07E30B9C9
:103B50004FF0FF3000F0A6FD0020BDE8F081606B63
:103B600038B13B46324629462046D4F834C0E047B7
:103B7000F3E76FF0050000F095FD0020EDE7000091
:103B800010B5FCF7F3FA044604480088401C00B264
:103B9000024908802046FCF7EDFA10BDE80000203D
:103BA00010B5FCF7E3FA04460B480088401E00B24B
:103BB000094908800846B0F90000002807DC002009
:103BC00008802046FCF7D6FA00F052FC02E02046BE
:103BD000FCF7D0FA10BD0000E800002070B50546E3
:103BE00005B970BD1D480068854203D31C480068B4
:103BF000854200D3F5E7A5F10C044FF0FF311948D9
:103C000000F015FD608818B12088B0F5F55F08D088
:103C100015A000F059FA23886288214619A000F007
:103C200053FA002060804FF4F5502080214800684E
:103C3000844201D21F480460084960680968611A1B
:103C4000401A1D490968081A1B4908602046FFF7F9
:103C500051FE044800F0CEFC00BFC2E77000002017
:103C600074000020AC290020746F20667265652006
:103C70006120626164206461746120626C6F636BB7
:103C80003A0A00006D656D3A203078253038782C7E
:103C9000207573656420666C61673A2025642C206A
:103CA0006D6167696320636F64653A203078253001
:103CB00034780A0078000020800000200048704717
:103CC0008C010020004870478C21002038B52B481B
:103CD00000684FF47A72B0FBF2F1B1F1807F00D34B
:103CE0001DE021F07F40401E4FF0E0225061501750
:103CF0000F22002807DA13071D0E214B00F00F04D6
:103D0000241F1D5503E013071C0E1E4B1C5400BF3F
:103D100000204FF0E02290610720106100BFFFF704
:103D200053FBFEF70FF8FDF733FE174808238022F8
:103D3000002100900846FDF7CFFDFDF75FF8FDF785
:103D4000EDFCFDF7E7FBFDF713FF10491048FDF709
:103D50001BFD4FF4FA60FFF75DFBFDF7F7FDFFF782
:103D60001BFE0CA0FFF734FEFFF7ACFF0446FFF785
:103D7000A5FF0546214600F02FFD38BD00000020BC
:103D800018ED00E000E400E02C5900085800002085
:103D90005600002075617274310000007047000009
:103DA00070B505462C1D2E48006838B128462C49B0
:103DB00009688847064606B970BD00BF29A0E16BB7
:103DC00000F082F92BA0216A00F07EF92DA0616A33
:103DD00000F07AF92FA0A16A00F076F931A0E16A2B
:103DE00000F072F933A0216800F06EF935A0616827
:103DF00000F06AF937A0A16800F066F939A0E1681F
:103E000000F062F93BA0216900F05EF93DA0616914
:103E100000F05AF93FA0A16900F056F941A0E1690C
:103E200000F052F943A0216B00F04EF945A0616B00
:103E300000F04AF947A0A16B00F046F9287800F09D
:103E4000040038B100F0A6FE0646314645A000F059
:103E50003BF902E04BA000F037F900BFFEE700009D
:103E6000180100207073723A203078253038780AB3
:103E7000000000007230303A203078253038780A5F
:103E8000000000007230313A203078253038780A4E
:103E9000000000007230323A203078253038780A3D
:103EA000000000007230333A203078253038780A2C
:103EB000000000007230343A203078253038780A1B
:103EC000000000007230353A203078253038780A0A
:103ED000000000007230363A203078253038780AF9
:103EE000000000007230373A203078253038780AE8
:103EF000000000007230383A203078253038780AD7
:103F0000000000007230393A203078253038780AC5
:103F1000000000007231303A203078253038780ABD
:103F2000000000007231313A203078253038780AAC
:103F3000000000007231323A203078253038780A9B
:103F400000000000206C723A203078253038780A62
:103F5000000000002070633A203078253038780A5D
:103F60000000000068617264206661756C74206FE7
:103F70006E207468726561643A2025730D0A0D0A1B
:103F80000000000068617264206661756C74206FC7
:103F90006E2068616E646C65720D0A0D0A00000087
:103FA000F0B504460D461646301D20F00700403897
:103FB0000146002203E00C4F41F82270521C102AE7
:103FC000F9D30D624FF0000CC1F824C0C1F828C02D
:103FD000C1F82CC0C1F830C04B638C634FF0807CBB
:103FE000C1F83CC0F0BD0000EFBEADDE10B5FCF77F
:103FF000BDF8044604480078401C03490870204678
:10400000FCF7B8F810BD00006400002001480078FB
:10401000704700006400002010B5FCF7A7F80446C4
:1040200004480078401E034908702046FCF7A2F8B7
:1040300010BD00006400002070B504462068A0F1A7
:104040001405284600F088FD002070BD2DE9F041E0
:1040500005460C469046204600F0DAFDB8F1000F08
:1040600003D0B8F1010F23D105E004F11401284673
:1040700000F07CF81CE02E680FE0A6F1140794F81D
:10408000350097F83510884206DA04F1140107F17B
:10409000140000F06BF802E03668AE42EDD100BFCC
:1040A000AE4204D104F11401284600F05FF800BFCD
:1040B00000BF0020BDE8F08110B5044604F11400F3
:1040C00000F036F8002010BD0FB438B505A80090F8
:1040D0007F211548009B049AFEF782FA04467F2C44
:1040E00000D97F241148006818B90F48FFF756FE21
:1040F00015E00E480068058B0C480068008B40F006
:1041000040000A49096808832346074A00210748F6
:104110000068FFF715FD05480068058300BF002013
:10412000009038BC5DF814FB2C2900206C000020A6
:104130004060006070474060006070474060006011
:1041400070470268516002680A6001604860704709
:104150000268516002680A60016048607047026846
:10416000516002680A6001604860704742681160EF
:1041700042684A60416008607047014608688842AA
:1041800001D1012070470020FCE701460868884201
:1041900001D1012070470020FCE7D0E900215160E7
:1041A000D0E900121160406000607047D0E9002142
:1041B0005160D0E90012116040600060704700005B
:1041C0002DE9F041054615B90020BDE8F081E81C55
:1041D00020F003054E480068854201D90020F4E72D
:1041E0000C2D00D20C254FF0FF314A4800F01FFA89
:1041F0004948006849490968461A7EE0474800680E
:1042000084196088002874D106F10C006168081ACE
:10421000A8426ED306F10C006168091A05F1180076
:10422000814230D306F10C0000EB05083B480068E2
:1042300000EB08074FF4F550388000207880606864
:104240007860BE60C4F804800120608030487968DE
:1042500000680C30814205D030497868096808440C
:10426000C0F808802E48016805F10C0008442C496C
:1042700008602C4800680968884219D228480068FC
:104280002849086014E001206080244960680968BA
:10429000611A401A224909680844214908602148E6
:1042A00000680968884203D21D4800681D490860FB
:1042B0004FF4F550208018480068844212D107E07E
:1042C00015480068406815490968084412490860A3
:1042D00011480068408828B10F48006812490968F1
:1042E0008842EDD10B4800F085F904F10C006CE731
:1042F000FFE70A4800683044466805480068401BEC
:10430000B0423FF67BAF034800F074F900205CE751
:104310007C000020AC2900207800002070000020E4
:10432000800000208400002074000020F0B50C46BE
:104330000546E6B2042A15D300F0030797B90146F3
:1043400046EA062343EA034304E008C108C108C162
:1043500008C1103A102AF8D201E008C1121F042A3D
:10436000FBD20D4601E005F8016B171EA2F1010218
:10437000F9D1F0BD2DE9F04105460F46284600F081
:104380003BF80646F068FFF71BFF044614B900200F
:10439000BDE8F0812572002060720822394620466F
:1043A00000F000FAFBF7E2FE804604F10C01301D3C
:1043B000FFF7C7FE4046FBF7DDFE2046E8E770B595
:1043C0000446FBF7D3FE054604F10C00FFF7E5FEBB
:1043D0002846FBF7CFFE2046FFF700FC70BD70B506
:1043E0000446FBF7C3FE054604F10C00FFF7D5FEBB
:1043F0002846FBF7BFFE70BD024600210AE00748D1
:1044000000EB01100078904203D1044800EB01104A
:104410007047491C0629F2DB0020F9E788000020DC
:104420002DE9F04104460D4616462846FFF7E4FF05
:10443000074645F08000207208223146204600F0F1
:10444000B1F9FBF793FE804604F10C01381DFFF72C
:1044500078FE4046FBF78EFEBDE8F0810146087A03
:1044600000F0800008B1012070470020FCE7000048
:104470002DE9F041FBF77AFE07461B48008868BB30
:104480001A480068FEF7CAF8461E194850F8360068
:10449000A0F114041748006884421BD016490E701E
:1044A0001448056804601548007848B904F11C01F7
:1044B00005F11C00FBF761FE3846FBF75BFE0CE0E4
:1044C00004F11C0105F11C00FBF757FE3846FBF711
:1044D00051FE02E03846FBF74DFE02E03846FBF79E
:1044E00049FEBDE8F0810000E8000020F400002053
:1044F000CC290020EC000020F00000206400002007
:1045000070B50446FBF732FE054614F8340F20F070
:104510000F0040F0010020706278343C0A4B03EB3E
:10452000C20004F114014268116042684A604160AF
:10453000086000BF0549A06B09680843034908608B
:104540002846FBF717FE70BDCC290020F4000020A0
:1045500070B50446FBF70AFE054604F11400D0E9E5
:1045600000215160D0E9001211604060006000BF7E
:1045700094F83510094A02EBC1000168814201D16B
:10458000012100E0002129B10548A16B00688843A2
:10459000034908602846FBF7EDFD70BDCC290020DB
:1045A000F40000202DE9F04105460E461746294645
:1045B0000120FFF7DFFE044614B92046BDE8F08174
:1045C0002046FFF779FDA68367722046F6E72DE9BE
:1045D000F04104460D4616461F462A460121204654
:1045E000FFF71EFF2046FFF767FDA68367720020D6
:1045F000BDE8F08170B504460025FBF7B7FD06461F
:1046000004F11400FFF7B9FD28B904F11400FFF715
:1046100013FD012502E0A08B401CA0833046FBF770
:10462000A9FD012D01D1FFF723FF002070BD73B557
:104630000546FBF79BFD0646A88B002806DDA88BE8
:10464000401EA8833046FBF795FD28E0019828B965
:104650003046FBF78FFD6FF001007CBD00F09AFA49
:104660000446002020636A7A214605F11400FFF712
:10467000EDFC0198002809DD01AA002104F14400A5
:1046800000F086FB04F1440000F0C6FB3046FBF767
:1046900071FDFFF7EDFE206B08B1206BDDE7002018
:1046A000DBE7000070B50446FFF7B0FC10B1064828
:1046B000046070BD00F06EFA054615B9024804604A
:1046C000F7E72C6300BFF4E76800002008B509A0F5
:1046D000FFF7FAFC0AA0FFF7F7FC12A00323002261
:1046E0001946009012A0FFF7EFFC19A0FFF7ECFCB1
:1046F00008BD00000A205C207C202F0A000000007A
:104700002D205254202D20202020205468726561D5
:1047100064204F7065726174696E67205379737499
:10472000656D0A004D617920323420323032330019
:10473000202F207C205C202020202025642E256432
:104740002E2564206275696C642025730A000000C0
:104750002032303036202D203230313820436F70F7
:104760007972696768742062792072742D74687236
:10477000656164207465616D0A00000030B5034610
:1047800000200BE011F8015B1C78641B64B2201E52
:1047900002D113F8015B05B902E0521E002AF1D1E3
:1047A00000BF30BD70B50346A2B118460C4600BF2D
:1047B00014F8016B00F8016B3EB902E0002500F827
:1047C000015B551E2A1EF9D102E0551E2A1EEFD1AB
:1047D00000BF00BF184670BD2DE9F04105460E46EA
:1047E000E81C20F0030726F00308B8F1180F09D9D8
:1047F000A8F11800B84205D3A8EB070018381E49E5
:10480000086006E0324629461CA0FFF75DFCBDE8C3
:10481000F0812948076004684FF4F550208016485D
:1048200000680C3060600020A060608022496068F1
:1048300009680844214908604FF4F5500968088068
:1048400001201E49096848800B4800680C301B494C
:1048500009684860084800680C3018490968886091
:104860000023012216A11848FFF7B1FE1248006884
:104870001649086000BFCAE77C0000206D656D2006
:10488000696E69742C206572726F72206265676947
:104890006E206164647265737320307825782C20F3
:1048A000616E6420656E6420616464726573732058
:1048B000307825780A000000700000207400002085
:1048C0006865617000000000AC29002078000020BD
:1048D00010B500200B490880002405E00A4901EBCF
:1048E000C400FFF728FC641C082CF7DB07200749ED
:1048F0000870002006490860064908600648FFF76E
:104900001AFC10BDE8000020CC290020F000002097
:10491000EC000020F4000020F800002070B50848EA
:104920000068FDF77BFE451E064850F83500A0F1F3
:1049300014040548046004F11C00FBF74CFC70BD36
:10494000F4000020CC290020EC00002010B5002449
:1049500005E0044901EBC400FFF7F0FB641C002CE8
:10496000F7D010BD0001002070472DE9FF5F06461B
:104970000F4690461D46DDE90EAB31460020FFF79D
:10498000F9FC8146B9F1000F03D1002004B0BDE865
:10499000F09F2846FFF714FC044624B94846FFF769
:1049A0000EFD0020F2E743463A46314648468DE880
:1049B000300CFEF7B9FA4846E8E710B50446204641
:1049C00000F0EEF810BD000070B5044694F8340015
:1049D00000F00F0010B12046FFF7BAFD04F14400CB
:1049E00000F0F2F9042084F83400FBF7BFFB054621
:1049F00004F114010348FFF7ABFB2846FBF7BAFBB1
:104A0000002070BDF800002070B512480468FBF764
:104A1000ADFB05462046FFF79BFD042084F83400DB
:104A200004F1440000F0D0F92046FFF717FD0128FB
:104A300005D1206F18B92046FFF7D1FC04E004F13E
:104A400014010548FFF784FB2846FBF793FBFFF7AB
:104A50000FFD70BDEC000020F800002001E000F028
:104A600001F8FCE770B537E0FBF780FB0546FDF782
:104A7000CDFE18B31B480068A0F1140404F1140023
:104A8000D0E900215160D0E900121160406000605F
:104A900000BFFFF775F8206F10B12046216F8847DF
:104AA0002046FFF7DBFC012805D1FFF779F82846FF
:104AB000FBF760FB70BDFFF773F803E02846FBF7D8
:104AC00059FBF7E72846FBF755FBA06AFFF786F886
:104AD0002046FFF774FC00BFFDF798FE0028C3D105
:104AE00000BFE7E7F80000201FB520200721C20023
:104AF000074BCDE90032CDE902100023054A06A19B
:104B0000074800F00FF8064800F06CF81FBD0000E1
:104B10002C2800205D4A00087469646C6500000060
:104B2000B42700202DE9FF5F05460C4616461F46B8
:104B3000DDE910ABDDE90E89224600212846FFF7AA
:104B40006FFC3B463246214628468DE8000FFEF7B3
:104B5000EBF904B0BDE8F09F70B5044694F834005A
:104B600000F00F00022802D04FF0FF3070BDFBF7BD
:104B7000FDFA054604F11400FFF718FB04F14400A8
:104B800000F0C6F92846FBF7F5FA2046FFF7B8FC17
:104B90000020EBE70148006870470000EC000020AF
:104BA00031B5FBF7E3FA05460D480468204600F0EE
:104BB0002FF86A46002104F1440000F0E9F804F1FE
:104BC000440000F029F92846FBF7D4FAFFF750FC1F
:104BD000206B801C08B900202063002038BD000035
:104BE000EC00002010B504463434A0786070617881
:104BF000012088406060022004F834092046FFF755
:104C0000ABFFFFF7C7FF08B1FFF732FC002010BD74
:104C100070B5044694F8340000F00F00012802D06B
:104C20004FF0FF3070BDFBF7A1FA054694F8340051
:104C300020F00F0040F0020084F834002046FFF717
:104C400087FC04F1440000F063F92846FBF792FA70
:104C50000020E7E770B5044625466FF001002863A1
:104C600005F11400FFF7A2FA2846FFF749FCFFF709
:104C7000FFFB70BD70B5FBF779FA05461448046870
:104C800094F8340000F00F0001281CD1D4E905107D
:104C9000814218D004F11400FFF788FA94F8352007
:104CA0000C4B03EBC20004F114014268116042682E
:104CB0004A604160086000BF2846FBF75BFAFFF7D7
:104CC000D7FB002070BD2846FBF754FA0020F9E717
:104CD000EC000020CC29002001480068704700004B
:104CE0006000002010B50A480068401C08490860B0
:104CF000FFF750FF0446206C401E2064206C18B95A
:104D0000E06B2064FFF7B6FF00F004F810BD000070
:104D10006000002070B5FFF7DFFF0546FBF726FABD
:104D2000064628E019480068A0F11404A06A281A71
:104D30006FF0004188421DD22046FEF758F9D4E9B1
:104D400007108847FFF7C8FF0546607A00F00200A9
:104D500058B1607A00F0010038B1607A20F00100AB
:104D60006072204600F058F805E0607A20F00100FB
:104D7000607200E004E00548FFF707FA0028D1D090
:104D800000BF3046FBF7F6F970BD000000010020BF
:104D9000034649B1012904D0022908D0032910D1C2
:104DA0000AE0586A10600CE01068586209E0587A0E
:104DB00020F00200587204E0587A40F00200587265
:104DC00000BF00BF0020704770B50446FBF7CEF966
:104DD00005462046FEF70BF92846FBF7CBF920469F
:104DE000FFF7FDFA002070BD2DE9F84307460C4699
:104DF00015461E46DDE90889224609213846FFF797
:104E00000FFB4346324629463846CDF80090FEF760
:104E1000CDF8BDE8F88300002DE9F8430546FBF71F
:104E2000A5F980462846FEF7E2F8687A20F00100EE
:104E300068724046FBF79EF9FFF74EFF696A084427
:104E4000A862FBF793F980462F4F009700242AE0D1
:104E500019E05DF824201168142202EBC402881ABC
:104E6000826AAB6AD21A00D108E0826AAB6AD21AAF
:104E70006FF000439A4200D20CE000BF5DF82400BE
:104E800000684DF824005DF8240007EBC401496870
:104E90008842DED100BF2CB15DF824000830611CCF
:104EA0004DF82100641C002CD2D018480068401C2A
:104EB000164908600846066805F114010098FFF7D6
:104EC0004EF9022412E006F0030060B9C4F10103B8
:104ED00005F1140202EBC301C4F101025DF82200E6
:104EE000FFF73DF900E003E0B608641C012CEAD9A5
:104EF00000BF687A40F0010068724046FBF73AF95B
:104F00000020BDE8F8830000000100200801002017
:104F100070B50446607A00F0010010B94FF0FF3020
:104F200070BDFBF723F905462046FEF760F82846DA
:104F3000FBF720F9607A20F0010060720020EFE7B3
:104F40000020704700207047002070470020704705
:104F500010B5FBF70BF9FEF7B9FEFFF7B7FBFFF74C
:104F6000F5FCFFF7B5FCFEF701FDFFF7FDFCFFF7D1
:104F7000BBFDFFF7D3FC002010BD004D9AD779345C
:104F8000E3AEF2BF68258BC6115CA9E4337ED09DE9
:104F90004A075B16C18C226FB8F51F5285C8662B75
:104FA000FCB1EDA0773A94D90E43B6FB2C61CF82C9
:104FB00055184409DE933D70A7EA3E73A4E9470AF9
:104FC000DD90CC81561BB5F82F6297DA0D40EEA329
:104FD00074396528FFB21C5186CB216CBBF658157D
:104FE000C28FD39E4904AAE7307D88C5125FF1BC09
:104FF0006B267A37E0AD034E99D47C31E6AB054899
:105000009FD28EC31459F7BA6D20D5984F02ACE1E8
:10501000367B276ABDF05E13C489632EF9B41A5734
:1050200080CD91DC0B46E8A5723FCA87501DB3FEC8
:1050300029643875A2EF410CDB96420FD8953B7678
:10504000A1ECB0FD2A67C984531EEBA6713C92DF28
:105050000845195483CE602DFAB75D10C78A2469BC
:10506000BEF3AFE23578D69B4C01F4B96E238DC008
:10507000175A064B9CD17F32E5A8000000C2010000
:1050800080250000004B00000096000000E10000B9
:1050900000F401002021F20804108884473444847D
:1050A000940C0000048485945D57242424544C44BB
:1050B00084050500000484844424548F142444840B
:1050C00084040000413900003C4040424C404070A4
:1050D0000409310000007E0000FF0040300F04147E
:1050E0006404000040407E42427E4242427E424290
:1050F0007E4040001060028C00FE02F202FE00F8CA
:1051000000FF000004047E018047300F1027004795
:10511000807F00000000000000000000002F000061
:1051200000000700070000147F147F1400242A7F6A
:105130002A120062640813230036495522500000E9
:105140000503000000001C224100000041221C0059
:105150000014083E08140008083E0808000000A0DB
:1051600060000008080808080000606000000020D7
:1051700010080402003E5149453E0000427F4000B5
:10518000004261514946002141454B31001814123B
:105190007F10002745454539003C4A494930000108
:1051A0007109050300364949493600064949291E57
:1051B00000003636000000005636000000081422B9
:1051C00041000014141414140000412214080002B9
:1051D0000151090600324959513E007C1211127CDE
:1051E000007F49494936003E41414122007F41410B
:1051F000221C007F49494941007F09090901003EFD
:105200004149497A007F0808087F0000417F41003A
:10521000002040413F01007F08142241007F4040B0
:105220004040007F020C027F007F0408107F003E98
:105230004141413E007F09090906003E4151215E7E
:10524000007F091929460046494949310001017F7B
:105250000101003F4040403F001F2040201F003F11
:105260004038403F006314081463000708700807C3
:1052700000615149454300007F41410000552A55D6
:105280002A55000041417F00000402010204004051
:105290004040404000000102040000205454547873
:1052A000007F484444380038444444200038444493
:1052B000487F00385454541800087E090102001831
:1052C000A4A4A47C007F080404780000447D40006E
:1052D000004080847D00007F102844000000417F52
:1052E0004000007C04180478007C0804047800382E
:1052F0004444443800FC242424180018242418FCB6
:10530000007C0804040800485454542000043F441E
:105310004020003C4040207C001C2040201C003CE1
:105320004030403C004428102844001CA0A0A07C31
:10533000004464544C441414141414140000000069
:10534000000000000000000000000000000000F865
:1053500000000000000000333000000000100C06C8
:10536000100C0600000000000000000040C0784063
:10537000C0784000043F04043F040400007088FC2F
:1053800008300000001820FF211E0000F008F00087
:10539000E018000000211C031E211E0000F00888F8
:1053A000700000001E2123241927211010160E0062
:1053B000000000000000000000000000000000E00D
:1053C0001804020000000007182040000002041822
:1053D000E00000000040201807000000404080F07E
:1053E000804040000202010F01020200000000F0B4
:1053F000000000000101011F010101000000000088
:105400000000000080B070000000000000000000FC
:105410000000000000010101010101010000000085
:10542000000000000030300000000000000000001C
:1054300080601804006018060100000000E01008F9
:105440000810E000000F102020100F00001010F8CE
:10545000000000000020203F20200000007008080D
:10546000088870000030282422213000003008888D
:10547000884830000018202020110E000000C020B5
:1054800010F8000000070424243F240000F80888D6
:10549000880808000019212020110E0000E0108863
:1054A00088180000000F112020110E000038080895
:1054B000C83808000000003F0000000000708808A5
:1054C00008887000001C222121221C0000E0100826
:1054D0000810E0000000312222110F00000000C07F
:1054E000C00000000000003030000000000000801C
:1054F000000000000000806000000000000080400C
:105500002010080000010204081020004040404024
:105510004040400004040404040404000008102077
:1055200040800000002010080402010000704808BC
:105530000808F0000000003036010000C030C82824
:10554000E810E0000718272423140B000000C038DF
:10555000E0000000203C23020227382008F8888859
:1055600088700000203F202020110E00C030080865
:1055700008083800071820202010080008F808083C
:105580000810E000203F202020100F0008F8888835
:10559000E8081000203F20202320180008F8888801
:1055A000E8081000203F200003000000C030080879
:1055B0000838000007182020221E020008F8080002
:1055C0000008F808203F210101213F20000808F8C9
:1055D000080800000020203F2020000000000808EC
:1055E000F8080800C08080807F00000008F888C0AC
:1055F00028180800203F20012638200008F808005D
:1056000000000000203F20202020300008F8F80093
:10561000F8F80800203F003F003F200008F830C0A5
:105620000008F808203F200007183F00E010080895
:105630000810E0000F10202020100F0008F80808C4
:105640000808F000203F210101010000E0100808D7
:105650000810E0000F18242438504F0008F88888FC
:1056600088887000203F2000030C302000708808DC
:10567000080838000038202121221C00180808F8EA
:10568000080818000000203F2000000008F808006B
:105690000008F808001F202020201F00087888003C
:1056A00000C83808000007380E010000F80800F8AC
:1056B0000008F800033C0700073C03000818688056
:1056C0008068180820302C03032C30200838C800CC
:1056D000C83808000000203F20000000100808081B
:1056E000C83808002038262120201800000000FEBD
:1056F000020202000000007F40404000000C30C069
:1057000000000000000000010638C0000002020294
:10571000FE000000004040407F0000000000040246
:105720000202040000000000000000000000000071
:105730000000000080808080808080800002020461
:105740000000000000000000000000000000808059
:10575000808000000019242222223F2008F80080C7
:1057600080000000003F112020110E00000000808A
:1057700080800000000E1120202011000000008019
:105780008088F800000E112020103F20000080804B
:1057900080800000001F222222221300008080F05F
:1057A000888888180020203F20200000000080808A
:1057B00080808000006B94949493600008F80080CF
:1057C00080800000203F210000203F20008098982A
:1057D000000000000020203F20200000000000808A
:1057E0009898000000C08080807F000008F80000CA
:1057F00080808000203F24022D302000000808F81F
:10580000000000000020203F2020000080808080D9
:1058100080808000203F20003F20003F808000806B
:1058200080800000203F210000203F200000808079
:1058300080800000001F202020201F00808000802A
:105840008000000080FFA12020110E0000000080D9
:1058500080808000000E112020A0FF8080808000CA
:105860008080800020203F212000010000008080F7
:10587000808080000033242424241900008080E0EC
:10588000808000000000001F2020000080800000B9
:1058900000808000001F202020103F20808080009A
:1058A0000080808000010E300806010080800080AA
:1058B000008080800F300C030C300F0000808000CF
:1058C000808080000020312E0E31200080808000FA
:1058D0000080808080818E701806010000808080AA
:1058E000808080000021302C222130000000000048
:1058F000807C020200000000003F404000000000E9
:10590000FF00000000000000FF0000000002027C19
:10591000800000000040403F000000000006010140
:10592000020204040000000000000000000000006B
:1059300000000080804040003E0604183040800097
:105940000000000000000000000000000000000057
:105950000000000000000000000000000000000047
:105960000000000000000000000000000000FC0437
:1059700004E42424242424E4E404FCFCE4DCDCC467
:10598000E4E41C9CE4DCCCC4FCFCE42424FCC4C49F
:105990003C3CDCC4C4C4DCDCC404041CFCFC0404C7
:1059A000E42424242424E40404FC00000000003047
:1059B000508888878080004040404080000000017F
:1059C000060C90E040000080E69B090B06000000FA
:1059D00000000000000000000000000000000000C7
:1059E0000000000000000000000000000000FFC0F8
:1059F000C0CFC8C8C8C8C8CFCFC0FFFF4EF8F8CEC8
:105A00003737091939000038D8C8F70909F60101F4
:105A100031310E3737CF3939C8F0F0017FFFC0C0C0
:105A2000CFC8C848C8C8CFC0C0FF000000000000F1
:105A30000000000000382424381C048261180C0681
:105A4000020101000000000000000101010100024C
:105A500002020200040404040008080808C42432F6
:105A6000120A0C0000000000000000000000FF3FD0
:105A70003F394E4EB1B1C8C6C6B649497E77773E6A
:105A80004040F9F901BFBF8936364FF0F0B9F8F858
:105A900086868FB9B9B88686498E8E488E8E37270E
:105AA000C7FFFF3E7171317676FF000000000000F5
:105AB00000000000000000000000000F10604080A7
:105AC0000000000000008080808080C06020E0C076
:105AD0000000000000C0783C242C180000730C006B
:105AE0000000000000000000000000000000FFFCBB
:105AF000FC7EBEBE030383C1C14DF0F03E4E4EC2DC
:105B0000B0B0B7B3B033130DC0C08EFFFF31494DF5
:105B10007F7F3F43438D8181F2FFFF004F4F080C91
:105B2000FF7F7F4E7C7C0C0000FF00000000000027
:105B30000000000000000000000000000000003F26
:105B4000800000FF010000000000000001010100D2
:105B50000000000000010204080810102021428605
:105B60000810E00000000000000000000000FFFD41
:105B7000FDFC03039092631313921F1FE08C8C13A0
:105B8000FDFDFDF9E17C7CF09F9F9F1D1DFEB09007
:105B9000E2E29280809361611FF3F390E0E01232C1
:105BA000F19CBCFEEEEE809E9EFF000000808040D7
:105BB00040404040404040404040404040404040E5
:105BC0005F50504F40404040404040404040404087
:105BD00040404040404040404040404040404043C2
:105BE0004C48405F4040404040C080000000FF6D96
:105BF0006C931010F373609F9F6C131393EDEC6321
:105C00009F9F83939F8C8CFC8F8F6C9C9C6C0F0F41
:105C1000E3E303F3FB1C101010F0F0003C7D0C0CD0
:105C20006F1C1D737F7F63878FFF000000FF0000E4
:105C300000C0F0380C0C0404040C080000FCFC400C
:105C40004040406060FCFC0000FCFC0000000000E4
:105C500000C0F038180C0404040CFCF80000FCFC34
:105C60004C4C4C6C6C6C0C000000FF000000FF03FF
:105C700003FB1B1B1B1B1BFBF303FFFF84DFDFD896
:105C8000070760A0D8232383E4E400F3FB1B000094
:105C90003F7FFFC4841887C787FBFB001E1FDBDB29
:105CA000DF00001FFBFB032020FF0000003F6040DF
:105CB00040414346464444464243414040474740B2
:105CC000404040404047474040474746464646429E
:105CD0004041434646444446424341404040474792
:105CE000464646464242424240403F0000003F2076
:105CF000202724242424242727203F3F3C24243FFA
:105D000038383C3C382424202727273F3F273B3B7B
:105D100027373823233C3B3B3B3B3B233C3C27275B
:105D2000203C3C3C3F3F2324243F00000000010076
:105D30000200010003000100020001000400010054
:105D40000200010003000100020001000500010043
:105D50000200010003000100020001000400010034
:105D60000200010003000100020001000600010022
:105D70000200010003000100020001000400010014
:105D80000200010003000100020001000500010003
:105D900002000100030001000200010004000100F4
:105DA00002000100030001000200010007000100E1
:105DB00002000100030001000200010004000100D4
:105DC00002000100030001000200010005000100C3
:105DD00002000100030001000200010004000100B4
:105DE00002000100030001000200010006000100A2
:105DF0000200010003000100020001000400010094
:105E00000200010003000100020001000500010082
:105E10000200010003000100020001000400010073
:105E200002000100030001000200010030313233A2
:105E30003435363738396162636465660030313233
:105E40003334353637383941424344454600004003
:105E5000404040404040404041414141414040403D
:105E6000404040404040404040404040404040056D
:105E700002020202020202020202020202020220E4
:105E800020202020202020202002020202020202E4
:105E90009090909090901010101010101010101002
:105EA0001010101010101010101002020202020246
:105EB0008888888888880808080808080808080862
:105EC000080808080808080808080202020240003A
:105ED0004F5E00084D4F0008454F0008414F000835
:105EE000494F0008045F000800000020280100005E
:105EF000682600082C60000828010020E82C00001B
:105F00007826000800A24A040000000000000000FB
:105F1000010203040607080900000000010203044F
:105F20000102030406070809020406080000000035
:105F30000000000000000000000000000000000061
:105F40000000000000000000000000000000000051
:105F50000000000000000000000100000000000040
:105F6000E803000000000000000000000000000046
:105F70000000000000000000000000000000000021
:105F80000000000000000000000000000000000011
:105F90008C0000208C000020780000000100000030
:105FA0009C0000209C000020200000000400000055
:105FB000AC000020AC000020300000000500000014
:105FC000BC000020BC0000203400000008000000DD
:105FD000CC000020CC0000204000000009000000A0
:105FE000DC000020DC0000202C000000000000008D
:105FF00000000000000000000000000000000000A1
:106000000000000000000000000000000000000090
:106010000000000000000000000000000000000080
:0C60200000000000000000000000000074
:0400000508000131BD
:00000001FF
