Component: ARM Compiler 5.06 update 7 (build 960) Tool: armlink [4d3601]

==============================================================================

Section Cross References

    startup_stm32f10x_hd.o(RESET) refers to startup_stm32f10x_hd.o(STACK) for __initial_sp
    startup_stm32f10x_hd.o(RESET) refers to startup_stm32f10x_hd.o(.text) for Reset_Handler
    startup_stm32f10x_hd.o(RESET) refers to stm32f10x_it.o(i.NMI_Handler) for NMI_Handler
    startup_stm32f10x_hd.o(RESET) refers to context_rvds.o(.text) for HardFault_Handler
    startup_stm32f10x_hd.o(RESET) refers to stm32f10x_it.o(i.MemManage_Handler) for MemManage_Handler
    startup_stm32f10x_hd.o(RESET) refers to stm32f10x_it.o(i.BusFault_Handler) for BusFault_Handler
    startup_stm32f10x_hd.o(RESET) refers to stm32f10x_it.o(i.UsageFault_Handler) for UsageFault_Handler
    startup_stm32f10x_hd.o(RESET) refers to stm32f10x_it.o(i.SVC_Handler) for SVC_Handler
    startup_stm32f10x_hd.o(RESET) refers to stm32f10x_it.o(i.DebugMon_Handler) for DebugMon_Handler
    startup_stm32f10x_hd.o(RESET) refers to board.o(i.SysTick_Handler) for SysTick_Handler
    startup_stm32f10x_hd.o(RESET) refers to stm32f10x_it.o(i.USART1_IRQHandler) for USART1_IRQHandler
    startup_stm32f10x_hd.o(RESET) refers to stm32f10x_it.o(i.EXTI15_10_IRQHandler) for EXTI15_10_IRQHandler
    startup_stm32f10x_hd.o(.text) refers to system_stm32f10x.o(i.SystemInit) for SystemInit
    startup_stm32f10x_hd.o(.text) refers to entry.o(.ARM.Collect$$$$00000000) for __main
    system_stm32f10x.o(i.SetSysClock) refers to system_stm32f10x.o(i.SetSysClockTo72) for SetSysClockTo72
    system_stm32f10x.o(i.SystemCoreClockUpdate) refers to system_stm32f10x.o(.data) for SystemCoreClock
    system_stm32f10x.o(i.SystemInit) refers to system_stm32f10x.o(i.SetSysClock) for SetSysClock
    stm32f10x_adc.o(i.ADC_DeInit) refers to stm32f10x_rcc.o(i.RCC_APB2PeriphResetCmd) for RCC_APB2PeriphResetCmd
==============================================================================

Removing Unused input sections from the image.

    Removing startup_stm32f10x_hd.o(HEAP), (512 bytes).
    Removing core_cm3.o(.emb_text), (32 bytes).
    Removing system_stm32f10x.o(i.SystemCoreClockUpdate), (164 bytes).
    Removing misc.o(i.NVIC_SetVectorTable), (20 bytes).
    Removing misc.o(i.NVIC_SystemLPConfig), (32 bytes).
    Removing misc.o(i.SysTick_CLKSourceConfig), (40 bytes).
    Removing stm32f10x_adc.o(i.ADC_AnalogWatchdogCmd), (20 bytes).
    Removing stm32f10x_adc.o(i.ADC_AnalogWatchdogSingleChannelConfig), (16 bytes).
    Removing stm32f10x_adc.o(i.ADC_AnalogWatchdogThresholdsConfig), (6 bytes).
    Removing stm32f10x_adc.o(i.ADC_AutoInjectedConvCmd), (22 bytes).
    Removing stm32f10x_adc.o(i.ADC_ClearFlag), (6 bytes).
    Removing stm32f10x_adc.o(i.ADC_ClearITPendingBit), (10 bytes).
    Removing stm32f10x_adc.o(i.ADC_DeInit), (92 bytes).
    Removing stm32f10x_adc.o(i.ADC_DiscModeChannelCountConfig), (24 bytes).
    Removing stm32f10x_adc.o(i.ADC_DiscModeCmd), (22 bytes).
    Removing stm32f10x_adc.o(i.ADC_ExternalTrigConvCmd), (22 bytes).
    Removing stm32f10x_adc.o(i.ADC_ExternalTrigInjectedConvCmd), (22 bytes).
    Removing stm32f10x_adc.o(i.ADC_ExternalTrigInjectedConvConfig), (16 bytes).
==============================================================================

Image Symbol Table

    Local Symbols

    Symbol Name                              Value     Ov Type        Size  Object(Section)

    ../clib/microlib/ctype/ctype.c           0x00000000   Number         0  isalpha_o.o ABSOLUTE
    ../clib/microlib/ctype/ctype.c           0x00000000   Number         0  iscntrl_o.o ABSOLUTE
    ../clib/microlib/ctype/ctype.c           0x00000000   Number         0  isblank_o.o ABSOLUTE
    ../clib/microlib/ctype/ctype.c           0x00000000   Number         0  ctype_o.o ABSOLUTE
    ../clib/microlib/ctype/ctype.c           0x00000000   Number         0  isgraph_o.o ABSOLUTE
    ../clib/microlib/ctype/ctype.c           0x00000000   Number         0  islower_o.o ABSOLUTE
    ../clib/microlib/ctype/ctype.c           0x00000000   Number         0  ispunct_o.o ABSOLUTE
    ../clib/microlib/ctype/ctype.c           0x00000000   Number         0  isdigit_o.o ABSOLUTE
    ../clib/microlib/ctype/ctype.c           0x00000000   Number         0  isalnum_o.o ABSOLUTE
    ../clib/microlib/ctype/ctype.c           0x00000000   Number         0  isprint_o.o ABSOLUTE
    ../clib/microlib/ctype/ctype.c           0x00000000   Number         0  isspace_o.o ABSOLUTE
    ../clib/microlib/ctype/ctype.c           0x00000000   Number         0  isupper_o.o ABSOLUTE
    ../clib/microlib/ctype/ctype.c           0x00000000   Number         0  isxdigit_o.o ABSOLUTE
    ../clib/microlib/division.c              0x00000000   Number         0  uidiv.o ABSOLUTE
    ../clib/microlib/division.c              0x00000000   Number         0  uldiv.o ABSOLUTE
    ../clib/microlib/errno.c                 0x00000000   Number         0  errno.o ABSOLUTE
    ../clib/microlib/init/entry.s            0x00000000   Number         0  entry10a.o ABSOLUTE
    ../clib/microlib/init/entry.s            0x00000000   Number         0  entry7b.o ABSOLUTE
    ../clib/microlib/init/entry.s            0x00000000   Number         0  entry9a.o ABSOLUTE
    ../clib/microlib/init/entry.s            0x00000000   Number         0  entry8a.o ABSOLUTE
    ../clib/microlib/init/entry.s            0x00000000   Number         0  entry8b.o ABSOLUTE
    ../clib/microlib/init/entry.s            0x00000000   Number         0  entry9b.o ABSOLUTE
    ../clib/microlib/init/entry.s            0x00000000   Number         0  entry7a.o ABSOLUTE
    ../clib/microlib/init/entry.s            0x00000000   Number         0  entry2.o ABSOLUTE
    ../clib/microlib/init/entry.s            0x00000000   Number         0  entry12b.o ABSOLUTE
    ../clib/microlib/init/entry.s            0x00000000   Number         0  entry12a.o ABSOLUTE
    ../clib/microlib/init/entry.s            0x00000000   Number         0  entry.o ABSOLUTE
    ../clib/microlib/init/entry.s            0x00000000   Number         0  entry11b.o ABSOLUTE
    ../clib/microlib/init/entry.s            0x00000000   Number         0  entry11a.o ABSOLUTE
    ../clib/microlib/init/entry.s            0x00000000   Number         0  entry5.o ABSOLUTE
    ../clib/microlib/init/entry.s            0x00000000   Number         0  entry10b.o ABSOLUTE
    ../clib/microlib/longlong.c              0x00000000   Number         0  llsshr.o ABSOLUTE
    ../clib/microlib/longlong.c              0x00000000   Number         0  llshl.o ABSOLUTE
    ../clib/microlib/longlong.c              0x00000000   Number         0  llushr.o ABSOLUTE
    ../clib/microlib/printf/printf.c         0x00000000   Number         0  printf8.o ABSOLUTE
    ../clib/microlib/printf/printf.c         0x00000000   Number         0  printf7.o ABSOLUTE
    ../clib/microlib/printf/printf.c         0x00000000   Number         0  printfa.o ABSOLUTE
    ../clib/microlib/printf/printf.c         0x00000000   Number         0  printf0.o ABSOLUTE
    ../clib/microlib/printf/printf.c         0x00000000   Number         0  printf1.o ABSOLUTE
    ../clib/microlib/printf/printf.c         0x00000000   Number         0  printf2.o ABSOLUTE
    ../clib/microlib/printf/printf.c         0x00000000   Number         0  printf3.o ABSOLUTE
    ../clib/microlib/printf/printf.c         0x00000000   Number         0  printfb.o ABSOLUTE
    ../clib/microlib/printf/printf.c         0x00000000   Number         0  printf6.o ABSOLUTE
    ../clib/microlib/printf/printf.c         0x00000000   Number         0  printf4.o ABSOLUTE
    ../clib/microlib/printf/printf.c         0x00000000   Number         0  printf5.o ABSOLUTE
    ../clib/microlib/printf/stubs.s          0x00000000   Number         0  stubs.o ABSOLUTE
    ../clib/microlib/stdio/streams.c         0x00000000   Number         0  stdout.o ABSOLUTE
    ../clib/microlib/string/memcpy.c         0x00000000   Number         0  memcpya.o ABSOLUTE
    ../clib/microlib/string/memcpy.c         0x00000000   Number         0  memcpyb.o ABSOLUTE
    ../clib/microlib/string/strstr.c         0x00000000   Number         0  strstr.o ABSOLUTE
    ../clib/microlib/string/strtok.c         0x00000000   Number         0  strtok.o ABSOLUTE
    ../clib/microlib/string/strtok.c         0x00000000   Number         0  strtok_r.o ABSOLUTE
    ../clib/microlib/stubs.s                 0x00000000   Number         0  iusefp.o ABSOLUTE
    ../clib/scanf.c                          0x00000000   Number         0  _strtoul.o ABSOLUTE
    ../clib/scanf.c                          0x00000000   Number         0  atoi.o ABSOLUTE
    ../clib/scanf.c                          0x00000000   Number         0  _chval.o ABSOLUTE
    ../clib/scanf.c                          0x00000000   Number         0  strtol.o ABSOLUTE
    ../fplib/microlib/f2d.c                  0x00000000   Number         0  f2d.o ABSOLUTE
    ../fplib/microlib/fpadd.c                0x00000000   Number         0  dadd.o ABSOLUTE
    ../fplib/microlib/fpadd.c                0x00000000   Number         0  fadd.o ABSOLUTE
    ../fplib/microlib/fpdiv.c                0x00000000   Number         0  ddiv.o ABSOLUTE
    ../fplib/microlib/fpdiv.c                0x00000000   Number         0  fdiv.o ABSOLUTE
    ../fplib/microlib/fpepilogue.c           0x00000000   Number         0  depilogue.o ABSOLUTE
    ../fplib/microlib/fpepilogue.c           0x00000000   Number         0  fepilogue.o ABSOLUTE
    ../fplib/microlib/fpfix.c                0x00000000   Number         0  dfixul.o ABSOLUTE
    ../fplib/microlib/fpfix.c                0x00000000   Number         0  ffixui.o ABSOLUTE
    ../fplib/microlib/fpflt.c                0x00000000   Number         0  ffltui.o ABSOLUTE
    ../fplib/microlib/fpmul.c                0x00000000   Number         0  dmul.o ABSOLUTE
    ../fplib/microlib/fpmul.c                0x00000000   Number         0  fmul.o ABSOLUTE
    ..\Libraries\CMSIS\core_cm3.c            0x00000000   Number         0  core_cm3.o ABSOLUTE
    ..\Libraries\CMSIS\startup\startup_stm32f10x_hd.s 0x00000000   Number         0  startup_stm32f10x_hd.o ABSOLUTE
    ..\Libraries\CMSIS\system_stm32f10x.c    0x00000000   Number         0  system_stm32f10x.o ABSOLUTE
    ..\Libraries\src\misc.c                  0x00000000   Number         0  misc.o ABSOLUTE
    ..\Libraries\src\stm32f10x_adc.c         0x00000000   Number         0  stm32f10x_adc.o ABSOLUTE
    ..\Libraries\src\stm32f10x_bkp.c         0x00000000   Number         0  stm32f10x_bkp.o ABSOLUTE
    ..\Libraries\src\stm32f10x_can.c         0x00000000   Number         0  stm32f10x_can.o ABSOLUTE
    ..\Libraries\src\stm32f10x_cec.c         0x00000000   Number         0  stm32f10x_cec.o ABSOLUTE
    ..\Libraries\src\stm32f10x_crc.c         0x00000000   Number         0  stm32f10x_crc.o ABSOLUTE
    ..\Libraries\src\stm32f10x_dac.c         0x00000000   Number         0  stm32f10x_dac.o ABSOLUTE
    ..\Libraries\src\stm32f10x_dbgmcu.c      0x00000000   Number         0  stm32f10x_dbgmcu.o ABSOLUTE
    ..\Libraries\src\stm32f10x_dma.c         0x00000000   Number         0  stm32f10x_dma.o ABSOLUTE
    ..\Libraries\src\stm32f10x_exti.c        0x00000000   Number         0  stm32f10x_exti.o ABSOLUTE
    ..\Libraries\src\stm32f10x_flash.c       0x00000000   Number         0  stm32f10x_flash.o ABSOLUTE
    ..\Libraries\src\stm32f10x_fsmc.c        0x00000000   Number         0  stm32f10x_fsmc.o ABSOLUTE
    ..\Libraries\src\stm32f10x_gpio.c        0x00000000   Number         0  stm32f10x_gpio.o ABSOLUTE
    ..\Libraries\src\stm32f10x_i2c.c         0x00000000   Number         0  stm32f10x_i2c.o ABSOLUTE
    ..\Libraries\src\stm32f10x_iwdg.c        0x00000000   Number         0  stm32f10x_iwdg.o ABSOLUTE
    ..\Libraries\src\stm32f10x_pwr.c         0x00000000   Number         0  stm32f10x_pwr.o ABSOLUTE
    ..\Libraries\src\stm32f10x_rcc.c         0x00000000   Number         0  stm32f10x_rcc.o ABSOLUTE
    ..\Libraries\src\stm32f10x_rtc.c         0x00000000   Number         0  stm32f10x_rtc.o ABSOLUTE
    ..\Libraries\src\stm32f10x_sdio.c        0x00000000   Number         0  stm32f10x_sdio.o ABSOLUTE
    ..\Libraries\src\stm32f10x_spi.c         0x00000000   Number         0  stm32f10x_spi.o ABSOLUTE
    ..\Libraries\src\stm32f10x_tim.c         0x00000000   Number         0  stm32f10x_tim.o ABSOLUTE
    ..\Libraries\src\stm32f10x_usart.c       0x00000000   Number         0  stm32f10x_usart.o ABSOLUTE
    ..\Libraries\src\stm32f10x_wwdg.c        0x00000000   Number         0  stm32f10x_wwdg.o ABSOLUTE
    ..\User\board.c                          0x00000000   Number         0  board.o ABSOLUTE
    ..\User\jdy-31\jdy-31.c                  0x00000000   Number         0  jdy-31.o ABSOLUTE
    ..\User\jdy-31\usart_blt.c               0x00000000   Number         0  usart_blt.o ABSOLUTE
    ..\User\laser radar\bat_adc.c            0x00000000   Number         0  bat_adc.o ABSOLUTE
    ..\User\laser radar\control.c            0x00000000   Number         0  control.o ABSOLUTE
    ..\User\laser radar\delay.c              0x00000000   Number         0  delay.o ABSOLUTE
    ..\User\laser radar\laserconfig.c        0x00000000   Number         0  laserconfig.o ABSOLUTE
    ..\User\laser radar\pwm.c                0x00000000   Number         0  pwm.o ABSOLUTE
    ..\User\laser radar\usart_laser.c        0x00000000   Number         0  usart_laser.o ABSOLUTE
    ..\User\main.c                           0x00000000   Number         0  main.o ABSOLUTE
    ..\User\oled\OLED.c                      0x00000000   Number         0  oled.o ABSOLUTE
    ..\User\oled\spi.c                       0x00000000   Number         0  spi.o ABSOLUTE
    ..\User\stm32f10x_it.c                   0x00000000   Number         0  stm32f10x_it.o ABSOLUTE
    ..\\Libraries\\CMSIS\\core_cm3.c         0x00000000   Number         0  core_cm3.o ABSOLUTE
    ..\rt-thread\components\drivers\ipc\ringbuffer.c 0x00000000   Number         0  ringbuffer.o ABSOLUTE
    ..\rt-thread\libcpu\arm\cortex-m3\context_rvds.S 0x00000000   Number         0  context_rvds.o ABSOLUTE
    ..\rt-thread\libcpu\arm\cortex-m3\cpuport.c 0x00000000   Number         0  cpuport.o ABSOLUTE
    ..\rt-thread\src\clock.c                 0x00000000   Number         0  clock.o ABSOLUTE
    ..\rt-thread\src\components.c            0x00000000   Number         0  components.o ABSOLUTE
    ..\rt-thread\src\device.c                0x00000000   Number         0  device.o ABSOLUTE
    ..\rt-thread\src\idle.c                  0x00000000   Number         0  idle.o ABSOLUTE
    ..\rt-thread\src\ipc.c                   0x00000000   Number         0  ipc.o ABSOLUTE
    ..\rt-thread\src\irq.c                   0x00000000   Number         0  irq.o ABSOLUTE
    ..\rt-thread\src\kservice.c              0x00000000   Number         0  kservice.o ABSOLUTE
    ..\rt-thread\src\mem.c                   0x00000000   Number         0  mem.o ABSOLUTE
    ..\rt-thread\src\memheap.c               0x00000000   Number         0  memheap.o ABSOLUTE
    ..\rt-thread\src\mempool.c               0x00000000   Number         0  mempool.o ABSOLUTE
    ..\rt-thread\src\object.c                0x00000000   Number         0  object.o ABSOLUTE
    ..\rt-thread\src\scheduler.c             0x00000000   Number         0  scheduler.o ABSOLUTE
    ..\rt-thread\src\signal.c                0x00000000   Number         0  signal.o ABSOLUTE
    ..\rt-thread\src\thread.c                0x00000000   Number         0  thread.o ABSOLUTE
    ..\rt-thread\src\timer.c                 0x00000000   Number         0  timer.o ABSOLUTE
    cdrcmple.s                               0x00000000   Number         0  cdrcmple.o ABSOLUTE
    cfcmple.s                                0x00000000   Number         0  cfcmple.o ABSOLUTE
    cfrcmple.s                               0x00000000   Number         0  cfrcmple.o ABSOLUTE
    dc.s                                     0x00000000   Number         0  dc.o ABSOLUTE
    handlers.s                               0x00000000   Number         0  handlers.o ABSOLUTE
    init.s                                   0x00000000   Number         0  init.o ABSOLUTE
    RESET                                    0x08000000   Section      304  startup_stm32f10x_hd.o(RESET)
    .ARM.Collect$$$$00000000                 0x08000130   Section        0  entry.o(.ARM.Collect$$$$00000000)
    .ARM.Collect$$$$00000001                 0x08000130   Section        4  entry2.o(.ARM.Collect$$$$00000001)
    .ARM.Collect$$$$00000004                 0x08000134   Section        4  entry5.o(.ARM.Collect$$$$00000004)
    .ARM.Collect$$$$00000008                 0x08000138   Section        0  entry7b.o(.ARM.Collect$$$$00000008)
    .ARM.Collect$$$$0000000A                 0x08000138   Section        0  entry8b.o(.ARM.Collect$$$$0000000A)
    .ARM.Collect$$$$0000000B                 0x08000138   Section        8  entry9a.o(.ARM.Collect$$$$0000000B)
    .ARM.Collect$$$$0000000E                 0x08000140   Section        4  entry12b.o(.ARM.Collect$$$$0000000E)
    .ARM.Collect$$$$0000000F                 0x08000144   Section        0  entry10a.o(.ARM.Collect$$$$0000000F)
    .ARM.Collect$$$$00000011                 0x08000144   Section        0  entry11a.o(.ARM.Collect$$$$00000011)
    .ARM.Collect$$$$00002712                 0x08000144   Section        4  entry2.o(.ARM.Collect$$$$00002712)
    __lit__00000000                          0x08000144   Data           4  entry2.o(.ARM.Collect$$$$00002712)
    .text                                    0x08000148   Section       36  startup_stm32f10x_hd.o(.text)
    .text                                    0x0800016c   Section      240  context_rvds.o(.text)
    .text                                    0x0800025c   Section        0  memcpya.o(.text)
    .text                                    0x08000280   Section        0  strstr.o(.text)
    .text                                    0x080002a4   Section        0  strtok.o(.text)
    .text                                    0x080002e8   Section        0  atoi.o(.text)
    .text                                    0x08000302   Section        0  fadd.o(.text)
    .text                                    0x080003b2   Section        0  fmul.o(.text)
    .text                                    0x08000416   Section        0  fdiv.o(.text)
    .text                                    0x08000492   Section        0  ffltui.o(.text)
    .text                                    0x0800049c   Section        0  ffixui.o(.text)
    .text                                    0x080004c4   Section        0  f2d.o(.text)
    .text                                    0x080004ec   Section       20  cfcmple.o(.text)
    .text                                    0x08000500   Section        0  uidiv.o(.text)
    .text                                    0x0800052c   Section        0  uldiv.o(.text)
    .text                                    0x0800058e   Section        0  strtol.o(.text)
    .text                                    0x080005fe   Section        0  fepilogue.o(.text)
    .text                                    0x080005fe   Section        0  iusefp.o(.text)
    .text                                    0x0800066c   Section        0  dadd.o(.text)
    .text                                    0x080007ba   Section        0  dmul.o(.text)
    .text                                    0x0800089e   Section        0  ddiv.o(.text)
    .text                                    0x0800097c   Section        0  dfixul.o(.text)
    .text                                    0x080009ac   Section       48  cdrcmple.o(.text)
    .text                                    0x080009dc   Section       36  init.o(.text)
    .text                                    0x08000a00   Section        0  llshl.o(.text)
    .text                                    0x08000a1e   Section        0  llushr.o(.text)
    .text                                    0x08000a3e   Section        0  llsshr.o(.text)
    .text                                    0x08000a64   Section        0  ctype_o.o(.text)
    .text                                    0x08000a6c   Section        0  _strtoul.o(.text)
    .text                                    0x08000b0a   Section        0  depilogue.o(.text)
    .text                                    0x08000bc4   Section        0  _chval.o(.text)
    i.$Sub$$main                             0x08000be0   Section        0  components.o(i.$Sub$$main)
    i.ADC_Cmd                                0x08000bee   Section        0  stm32f10x_adc.o(i.ADC_Cmd)
    i.ADC_DMACmd                             0x08000c04   Section        0  stm32f10x_adc.o(i.ADC_DMACmd)
    i.ADC_GetCalibrationStatus               0x08000c1a   Section        0  stm32f10x_adc.o(i.ADC_GetCalibrationStatus)
    i.ADC_GetResetCalibrationStatus          0x08000c2e   Section        0  stm32f10x_adc.o(i.ADC_GetResetCalibrationStatus)
    i.ADC_Init                               0x08000c44   Section        0  stm32f10x_adc.o(i.ADC_Init)
    i.ADC_RegularChannelConfig               0x08000c94   Section        0  stm32f10x_adc.o(i.ADC_RegularChannelConfig)
    i.ADC_ResetCalibration                   0x08000d4c   Section        0  stm32f10x_adc.o(i.ADC_ResetCalibration)
    i.ADC_SoftwareStartConvCmd               0x08000d56   Section        0  stm32f10x_adc.o(i.ADC_SoftwareStartConvCmd)
    i.ADC_StartCalibration                   0x08000d6c   Section        0  stm32f10x_adc.o(i.ADC_StartCalibration)
    i.ADCx_DMA_Config                        0x08000d78   Section        0  bat_adc.o(i.ADCx_DMA_Config)
    ADCx_DMA_Config                          0x08000d79   Thumb Code    82  bat_adc.o(i.ADCx_DMA_Config)
    i.ADCx_GPIO_Config                       0x08000dd8   Section        0  bat_adc.o(i.ADCx_GPIO_Config)
    ADCx_GPIO_Config                         0x08000dd9   Thumb Code    32  bat_adc.o(i.ADCx_GPIO_Config)
    i.ADCx_Init                              0x08000dfc   Section        0  bat_adc.o(i.ADCx_Init)
    i.ADCx_Mode_Config                       0x08000e0c   Section        0  bat_adc.o(i.ADCx_Mode_Config)
    ADCx_Mode_Config                         0x08000e0d   Thumb Code   136  bat_adc.o(i.ADCx_Mode_Config)
    i.BLT_UART_Config                        0x08000e98   Section        0  usart_blt.o(i.BLT_UART_Config)
    i.BusFault_Handler                       0x08000f5c   Section        0  stm32f10x_it.o(i.BusFault_Handler)
    i.DMA_ClearFlag                          0x08000f60   Section        0  stm32f10x_dma.o(i.DMA_ClearFlag)
    i.DMA_Cmd                                0x08000f7c   Section        0  stm32f10x_dma.o(i.DMA_Cmd)
    i.DMA_DeInit                             0x08000f94   Section        0  stm32f10x_dma.o(i.DMA_DeInit)
    i.DMA_GetFlagStatus                      0x080010e0   Section        0  stm32f10x_dma.o(i.DMA_GetFlagStatus)
    i.DMA_Init                               0x0800110c   Section        0  stm32f10x_dma.o(i.DMA_Init)
    i.DMA_SetCurrDataCounter                 0x08001148   Section        0  stm32f10x_dma.o(i.DMA_SetCurrDataCounter)
    i.Data_Process                           0x0800114c   Section        0  usart_laser.o(i.Data_Process)
    i.DebugMon_Handler                       0x08001218   Section        0  stm32f10x_it.o(i.DebugMon_Handler)
    i.EXTI15_10_IRQHandler                   0x0800121c   Section        0  stm32f10x_it.o(i.EXTI15_10_IRQHandler)
    i.EXTI_ClearITPendingBit                 0x08001264   Section        0  stm32f10x_exti.o(i.EXTI_ClearITPendingBit)
    i.EXTI_GetFlagStatus                     0x08001270   Section        0  stm32f10x_exti.o(i.EXTI_GetFlagStatus)
    i.EXTI_Init                              0x08001288   Section        0  stm32f10x_exti.o(i.EXTI_Init)
    i.GPIO_EXTILineConfig                    0x0800131c   Section        0  stm32f10x_gpio.o(i.GPIO_EXTILineConfig)
    i.GPIO_Init                              0x0800135c   Section        0  stm32f10x_gpio.o(i.GPIO_Init)
    i.GPIO_ResetBits                         0x08001472   Section        0  stm32f10x_gpio.o(i.GPIO_ResetBits)
    i.GPIO_SetBits                           0x08001476   Section        0  stm32f10x_gpio.o(i.GPIO_SetBits)
    i.JDY31_Baud_Find                        0x0800147c   Section        0  jdy-31.o(i.JDY31_Baud_Find)
    JDY31_Baud_Find                          0x0800147d   Thumb Code    92  jdy-31.o(i.JDY31_Baud_Find)
    i.JDY31_EXTI_Config                      0x080014f0   Section        0  jdy-31.o(i.JDY31_EXTI_Config)
    JDY31_EXTI_Config                        0x080014f1   Thumb Code    34  jdy-31.o(i.JDY31_EXTI_Config)
    i.JDY31_GPIO_Config                      0x08001514   Section        0  jdy-31.o(i.JDY31_GPIO_Config)
    i.JDY31_Init                             0x08001550   Section        0  jdy-31.o(i.JDY31_Init)
    i.JDY31_NVIC_Config                      0x0800161c   Section        0  jdy-31.o(i.JDY31_NVIC_Config)
    JDY31_NVIC_Config                        0x0800161d   Thumb Code    42  jdy-31.o(i.JDY31_NVIC_Config)
    i.JDY31_Send_CMD                         0x08001648   Section        0  jdy-31.o(i.JDY31_Send_CMD)
    i.Laser_DMA_Config                       0x080016bc   Section        0  usart_laser.o(i.Laser_DMA_Config)
    Laser_DMA_Config                         0x080016bd   Thumb Code    84  usart_laser.o(i.Laser_DMA_Config)
    i.Laser_Usart_Config                     0x0800171c   Section        0  usart_laser.o(i.Laser_Usart_Config)
    i.MemManage_Handler                      0x08001784   Section        0  stm32f10x_it.o(i.MemManage_Handler)
    i.Motol_Init                             0x08001788   Section        0  control.o(i.Motol_Init)
    i.NMI_Handler                            0x080017c4   Section        0  stm32f10x_it.o(i.NMI_Handler)
    i.NVIC_Configuration                     0x080017c6   Section        0  usart_blt.o(i.NVIC_Configuration)
    NVIC_Configuration                       0x080017c7   Thumb Code    40  usart_blt.o(i.NVIC_Configuration)
    i.NVIC_Init                              0x080017f0   Section        0  misc.o(i.NVIC_Init)
    i.NVIC_PriorityGroupConfig               0x08001860   Section        0  misc.o(i.NVIC_PriorityGroupConfig)
    i.OLED_6x8Str                            0x08001874   Section        0  oled.o(i.OLED_6x8Str)
    i.OLED_BMP                               0x080018d8   Section        0  oled.o(i.OLED_BMP)
    i.OLED_CLS                               0x0800194c   Section        0  oled.o(i.OLED_CLS)
    i.OLED_Fill                              0x08001956   Section        0  oled.o(i.OLED_Fill)
    i.OLED_Init                              0x08001990   Section        0  oled.o(i.OLED_Init)
    i.OLED_SetPos                            0x08001a94   Section        0  oled.o(i.OLED_SetPos)
    i.OLED_WrCmd                             0x08001abc   Section        0  oled.o(i.OLED_WrCmd)
    i.OLED_WrDat                             0x08001ad8   Section        0  oled.o(i.OLED_WrDat)
    i.PWM_BASE_Config                        0x08001af4   Section        0  pwm.o(i.PWM_BASE_Config)
    PWM_BASE_Config                          0x08001af5   Thumb Code    48  pwm.o(i.PWM_BASE_Config)
    i.PWM_GPIO_Config                        0x08001b28   Section        0  pwm.o(i.PWM_GPIO_Config)
    PWM_GPIO_Config                          0x08001b29   Thumb Code    64  pwm.o(i.PWM_GPIO_Config)
    i.PWM_Init                               0x08001b70   Section        0  pwm.o(i.PWM_Init)
    i.PWM_OC_Config                          0x08001b88   Section        0  pwm.o(i.PWM_OC_Config)
    PWM_OC_Config                            0x08001b89   Thumb Code    82  pwm.o(i.PWM_OC_Config)
    i.RCC_ADCCLKConfig                       0x08001be0   Section        0  stm32f10x_rcc.o(i.RCC_ADCCLKConfig)
    i.RCC_AHBPeriphClockCmd                  0x08001bf8   Section        0  stm32f10x_rcc.o(i.RCC_AHBPeriphClockCmd)
    i.RCC_APB1PeriphClockCmd                 0x08001c18   Section        0  stm32f10x_rcc.o(i.RCC_APB1PeriphClockCmd)
    i.RCC_APB2PeriphClockCmd                 0x08001c38   Section        0  stm32f10x_rcc.o(i.RCC_APB2PeriphClockCmd)
    i.RCC_GetClocksFreq                      0x08001c58   Section        0  stm32f10x_rcc.o(i.RCC_GetClocksFreq)
    i.SPI_Cmd                                0x08001d2c   Section        0  stm32f10x_spi.o(i.SPI_Cmd)
    i.SPI_Config                             0x08001d44   Section        0  spi.o(i.SPI_Config)
    i.SPI_I2S_GetFlagStatus                  0x08001df8   Section        0  stm32f10x_spi.o(i.SPI_I2S_GetFlagStatus)
    i.SPI_I2S_ReceiveData                    0x08001e0a   Section        0  stm32f10x_spi.o(i.SPI_I2S_ReceiveData)
    i.SPI_I2S_SendData                       0x08001e10   Section        0  stm32f10x_spi.o(i.SPI_I2S_SendData)
    i.SPI_Init                               0x08001e14   Section        0  stm32f10x_spi.o(i.SPI_Init)
    i.SPI_SendByte                           0x08001e50   Section        0  spi.o(i.SPI_SendByte)
    i.SPI_TIMEOUT_UserCallback               0x08001ec8   Section        0  spi.o(i.SPI_TIMEOUT_UserCallback)
    SPI_TIMEOUT_UserCallback                 0x08001ec9   Thumb Code    16  spi.o(i.SPI_TIMEOUT_UserCallback)
    i.SVC_Handler                            0x08001ef4   Section        0  stm32f10x_it.o(i.SVC_Handler)
    i.SetSysClock                            0x08001ef6   Section        0  system_stm32f10x.o(i.SetSysClock)
    SetSysClock                              0x08001ef7   Thumb Code     8  system_stm32f10x.o(i.SetSysClock)
    i.SetSysClockTo72                        0x08001f00   Section        0  system_stm32f10x.o(i.SetSysClockTo72)
    SetSysClockTo72                          0x08001f01   Thumb Code   214  system_stm32f10x.o(i.SetSysClockTo72)
    i.Set_angle                              0x08001fe0   Section        0  control.o(i.Set_angle)
    i.SysTick_Handler                        0x0800205c   Section        0  board.o(i.SysTick_Handler)
    i.SystemInit                             0x0800206c   Section        0  system_stm32f10x.o(i.SystemInit)
    i.TIM_ARRPreloadConfig                   0x080020cc   Section        0  stm32f10x_tim.o(i.TIM_ARRPreloadConfig)
    i.TIM_Cmd                                0x080020e4   Section        0  stm32f10x_tim.o(i.TIM_Cmd)
    i.TIM_OC1Init                            0x080020fc   Section        0  stm32f10x_tim.o(i.TIM_OC1Init)
    i.TIM_OC1PreloadConfig                   0x08002194   Section        0  stm32f10x_tim.o(i.TIM_OC1PreloadConfig)
    i.TIM_OC4Init                            0x080021a8   Section        0  stm32f10x_tim.o(i.TIM_OC4Init)
    i.TIM_OC4PreloadConfig                   0x08002224   Section        0  stm32f10x_tim.o(i.TIM_OC4PreloadConfig)
    i.TIM_OCStructInit                       0x0800223e   Section        0  stm32f10x_tim.o(i.TIM_OCStructInit)
    i.TIM_SetCompare1                        0x08002252   Section        0  stm32f10x_tim.o(i.TIM_SetCompare1)
    i.TIM_SetCompare4                        0x08002256   Section        0  stm32f10x_tim.o(i.TIM_SetCompare4)
    i.TIM_TimeBaseInit                       0x0800225c   Section        0  stm32f10x_tim.o(i.TIM_TimeBaseInit)
    i.TIM_TimeBaseStructInit                 0x08002300   Section        0  stm32f10x_tim.o(i.TIM_TimeBaseStructInit)
    i.USART1_IRQHandler                      0x08002314   Section        0  stm32f10x_it.o(i.USART1_IRQHandler)
    i.USART_ClearFlag                        0x0800237c   Section        0  stm32f10x_usart.o(i.USART_ClearFlag)
    i.USART_Cmd                              0x0800238e   Section        0  stm32f10x_usart.o(i.USART_Cmd)
    i.USART_DMACmd                           0x080023a6   Section        0  stm32f10x_usart.o(i.USART_DMACmd)
    i.USART_GetFlagStatus                    0x080023b8   Section        0  stm32f10x_usart.o(i.USART_GetFlagStatus)
    i.USART_GetITStatus                      0x080023d2   Section        0  stm32f10x_usart.o(i.USART_GetITStatus)
    i.USART_ITConfig                         0x08002426   Section        0  stm32f10x_usart.o(i.USART_ITConfig)
    i.USART_Init                             0x08002470   Section        0  stm32f10x_usart.o(i.USART_Init)
    i.USART_ReceiveData                      0x08002548   Section        0  stm32f10x_usart.o(i.USART_ReceiveData)
    i.USART_SendData                         0x08002552   Section        0  stm32f10x_usart.o(i.USART_SendData)
    i.UsageFault_Handler                     0x0800255a   Section        0  stm32f10x_it.o(i.UsageFault_Handler)
    i.Usart_SendByte                         0x0800255e   Section        0  usart_blt.o(i.Usart_SendByte)
    i.Usart_SendString                       0x0800257c   Section        0  usart_blt.o(i.Usart_SendString)
    i.__0printf                              0x08002598   Section        0  printfa.o(i.__0printf)
    i.__0sprintf                             0x080025b8   Section        0  printfa.o(i.__0sprintf)
    i.__0vsnprintf                           0x080025e0   Section        0  printfa.o(i.__0vsnprintf)
    i.__aeabi_errno_addr                     0x08002614   Section        0  errno.o(i.__aeabi_errno_addr)
    i.__rt_ffs                               0x0800261c   Section        0  kservice.o(i.__rt_ffs)
    i.__scatterload_copy                     0x08002668   Section       14  handlers.o(i.__scatterload_copy)
    i.__scatterload_null                     0x08002676   Section        2  handlers.o(i.__scatterload_null)
    i.__scatterload_zeroinit                 0x08002678   Section       14  handlers.o(i.__scatterload_zeroinit)
    i._fp_digits                             0x08002688   Section        0  printfa.o(i._fp_digits)
    _fp_digits                               0x08002689   Thumb Code   366  printfa.o(i._fp_digits)
    i._has_defunct_thread                    0x0800280c   Section        0  idle.o(i._has_defunct_thread)
    _has_defunct_thread                      0x0800280d   Thumb Code    16  idle.o(i._has_defunct_thread)
    i._printf_core                           0x08002820   Section        0  printfa.o(i._printf_core)
    _printf_core                             0x08002821   Thumb Code  1704  printfa.o(i._printf_core)
    i._printf_post_padding                   0x08002ed4   Section        0  printfa.o(i._printf_post_padding)
    _printf_post_padding                     0x08002ed5   Thumb Code    36  printfa.o(i._printf_post_padding)
    i._printf_pre_padding                    0x08002ef8   Section        0  printfa.o(i._printf_pre_padding)
    _printf_pre_padding                      0x08002ef9   Thumb Code    46  printfa.o(i._printf_pre_padding)
    i._rt_thread_init                        0x08002f28   Section        0  thread.o(i._rt_thread_init)
    _rt_thread_init                          0x08002f29   Thumb Code   124  thread.o(i._rt_thread_init)
    i._rt_timer_init                         0x08002fac   Section        0  timer.o(i._rt_timer_init)
    _rt_timer_init                           0x08002fad   Thumb Code    66  timer.o(i._rt_timer_init)
    i._rt_timer_remove                       0x08002fee   Section        0  timer.o(i._rt_timer_remove)
    _rt_timer_remove                         0x08002fef   Thumb Code    46  timer.o(i._rt_timer_remove)
    i._snputc                                0x0800301c   Section        0  printfa.o(i._snputc)
    _snputc                                  0x0800301d   Thumb Code    22  printfa.o(i._snputc)
    i._sputc                                 0x08003032   Section        0  printfa.o(i._sputc)
    _sputc                                   0x08003033   Thumb Code    10  printfa.o(i._sputc)
    i.blt_thread_entry                       0x0800303c   Section        0  main.o(i.blt_thread_entry)
    blt_thread_entry                         0x0800303d   Thumb Code   468  main.o(i.blt_thread_entry)
    i.clean_rebuff                           0x08003298   Section        0  usart_blt.o(i.clean_rebuff)
    i.control_thread_entry                   0x080032c0   Section        0  main.o(i.control_thread_entry)
    control_thread_entry                     0x080032c1   Thumb Code   236  main.o(i.control_thread_entry)
    i.deinit_config                          0x080033c8   Section        0  laserconfig.o(i.deinit_config)
    i.delay_ms                               0x08003414   Section        0  delay.o(i.delay_ms)
    i.delay_oled                             0x08003434   Section        0  oled.o(i.delay_oled)
    delay_oled                               0x08003435   Thumb Code    32  oled.o(i.delay_oled)
    i.fputc                                  0x08003454   Section        0  usart_blt.o(i.fputc)
    i.get_rebuff                             0x08003478   Section        0  usart_blt.o(i.get_rebuff)
    i.laser_thread_entry                     0x0800348c   Section        0  main.o(i.laser_thread_entry)
    laser_thread_entry                       0x0800348d   Thumb Code   122  main.o(i.laser_thread_entry)
    i.main                                   0x08003518   Section        0  main.o(i.main)
    i.main_thread_entry                      0x08003604   Section        0  components.o(i.main_thread_entry)
    i.oled_thread_entry                      0x08003614   Section        0  main.o(i.oled_thread_entry)
    oled_thread_entry                        0x08003615   Thumb Code   482  main.o(i.oled_thread_entry)
    i.plug_holes                             0x080038f4   Section        0  mem.o(i.plug_holes)
    plug_holes                               0x080038f5   Thumb Code   108  mem.o(i.plug_holes)
    i.rt_application_init                    0x0800396c   Section        0  components.o(i.rt_application_init)
    i.rt_components_board_init               0x08003998   Section        0  components.o(i.rt_components_board_init)
    i.rt_components_init                     0x080039b4   Section        0  components.o(i.rt_components_init)
    i.rt_console_set_device                  0x080039d0   Section        0  kservice.o(i.rt_console_set_device)
    i.rt_device_close                        0x08003a04   Section        0  device.o(i.rt_device_close)
    i.rt_device_find                         0x08003a3a   Section        0  device.o(i.rt_device_find)
    i.rt_device_open                         0x08003a8c   Section        0  device.o(i.rt_device_open)
    i.rt_device_write                        0x08003b40   Section        0  device.o(i.rt_device_write)
    i.rt_enter_critical                      0x08003b80   Section        0  scheduler.o(i.rt_enter_critical)
    i.rt_exit_critical                       0x08003ba0   Section        0  scheduler.o(i.rt_exit_critical)
    i.rt_free                                0x08003bdc   Section        0  mem.o(i.rt_free)
    i.rt_heap_begin_get                      0x08003cbc   Section        0  board.o(i.rt_heap_begin_get)
    i.rt_heap_end_get                        0x08003cc4   Section        0  board.o(i.rt_heap_end_get)
    i.rt_hw_board_init                       0x08003ccc   Section        0  board.o(i.rt_hw_board_init)
    i.rt_hw_console_output                   0x08003d9c   Section        0  kservice.o(i.rt_hw_console_output)
    i.rt_hw_hard_fault_exception             0x08003da0   Section        0  cpuport.o(i.rt_hw_hard_fault_exception)
    i.rt_hw_stack_init                       0x08003fa0   Section        0  cpuport.o(i.rt_hw_stack_init)
    i.rt_interrupt_enter                     0x08003fec   Section        0  irq.o(i.rt_interrupt_enter)
    i.rt_interrupt_get_nest                  0x0800400c   Section        0  irq.o(i.rt_interrupt_get_nest)
    i.rt_interrupt_leave                     0x08004018   Section        0  irq.o(i.rt_interrupt_leave)
    i.rt_ipc_list_resume                     0x08004038   Section        0  ipc.o(i.rt_ipc_list_resume)
    rt_ipc_list_resume                       0x08004039   Thumb Code    20  ipc.o(i.rt_ipc_list_resume)
    i.rt_ipc_list_suspend                    0x0800404c   Section        0  ipc.o(i.rt_ipc_list_suspend)
    rt_ipc_list_suspend                      0x0800404d   Thumb Code   108  ipc.o(i.rt_ipc_list_suspend)
    i.rt_ipc_object_init                     0x080040b8   Section        0  ipc.o(i.rt_ipc_object_init)
    rt_ipc_object_init                       0x080040b9   Thumb Code    16  ipc.o(i.rt_ipc_object_init)
    i.rt_kprintf                             0x080040c8   Section        0  kservice.o(i.rt_kprintf)
    i.rt_list_init                           0x08004130   Section        0  ipc.o(i.rt_list_init)
    rt_list_init                             0x08004131   Thumb Code     6  ipc.o(i.rt_list_init)
    i.rt_list_init                           0x08004136   Section        0  scheduler.o(i.rt_list_init)
    rt_list_init                             0x08004137   Thumb Code     6  scheduler.o(i.rt_list_init)
    i.rt_list_init                           0x0800413c   Section        0  timer.o(i.rt_list_init)
    rt_list_init                             0x0800413d   Thumb Code     6  timer.o(i.rt_list_init)
    i.rt_list_insert_after                   0x08004142   Section        0  object.o(i.rt_list_insert_after)
    rt_list_insert_after                     0x08004143   Thumb Code    14  object.o(i.rt_list_insert_after)
    i.rt_list_insert_after                   0x08004150   Section        0  thread.o(i.rt_list_insert_after)
    rt_list_insert_after                     0x08004151   Thumb Code    14  thread.o(i.rt_list_insert_after)
    i.rt_list_insert_after                   0x0800415e   Section        0  timer.o(i.rt_list_insert_after)
    rt_list_insert_after                     0x0800415f   Thumb Code    14  timer.o(i.rt_list_insert_after)
    i.rt_list_insert_before                  0x0800416c   Section        0  ipc.o(i.rt_list_insert_before)
    rt_list_insert_before                    0x0800416d   Thumb Code    14  ipc.o(i.rt_list_insert_before)
    i.rt_list_isempty                        0x0800417a   Section        0  ipc.o(i.rt_list_isempty)
    rt_list_isempty                          0x0800417b   Thumb Code    16  ipc.o(i.rt_list_isempty)
    i.rt_list_isempty                        0x0800418a   Section        0  timer.o(i.rt_list_isempty)
    rt_list_isempty                          0x0800418b   Thumb Code    16  timer.o(i.rt_list_isempty)
    i.rt_list_remove                         0x0800419a   Section        0  object.o(i.rt_list_remove)
    rt_list_remove                           0x0800419b   Thumb Code    18  object.o(i.rt_list_remove)
    i.rt_list_remove                         0x080041ac   Section        0  thread.o(i.rt_list_remove)
    rt_list_remove                           0x080041ad   Thumb Code    18  thread.o(i.rt_list_remove)
    i.rt_malloc                              0x080041c0   Section        0  mem.o(i.rt_malloc)
    i.rt_memset                              0x0800432c   Section        0  kservice.o(i.rt_memset)
    i.rt_object_allocate                     0x08004374   Section        0  object.o(i.rt_object_allocate)
    i.rt_object_delete                       0x080043be   Section        0  object.o(i.rt_object_delete)
    i.rt_object_detach                       0x080043de   Section        0  object.o(i.rt_object_detach)
    i.rt_object_get_information              0x080043f8   Section        0  object.o(i.rt_object_get_information)
    i.rt_object_init                         0x08004420   Section        0  object.o(i.rt_object_init)
    i.rt_object_is_systemobject              0x0800445c   Section        0  object.o(i.rt_object_is_systemobject)
    i.rt_schedule                            0x08004470   Section        0  scheduler.o(i.rt_schedule)
    i.rt_schedule_insert_thread              0x08004500   Section        0  scheduler.o(i.rt_schedule_insert_thread)
    i.rt_schedule_remove_thread              0x08004550   Section        0  scheduler.o(i.rt_schedule_remove_thread)
    i.rt_sem_create                          0x080045a4   Section        0  ipc.o(i.rt_sem_create)
    i.rt_sem_init                            0x080045ce   Section        0  ipc.o(i.rt_sem_init)
    i.rt_sem_release                         0x080045f4   Section        0  ipc.o(i.rt_sem_release)
    i.rt_sem_take                            0x0800462e   Section        0  ipc.o(i.rt_sem_take)
    i.rt_set_errno                           0x080046a4   Section        0  kservice.o(i.rt_set_errno)
    i.rt_show_version                        0x080046cc   Section        0  kservice.o(i.rt_show_version)
    i.rt_strncmp                             0x0800477c   Section        0  kservice.o(i.rt_strncmp)
    i.rt_strncpy                             0x080047a4   Section        0  kservice.o(i.rt_strncpy)
    i.rt_system_heap_init                    0x080047d8   Section        0  mem.o(i.rt_system_heap_init)
    i.rt_system_scheduler_init               0x080048d0   Section        0  scheduler.o(i.rt_system_scheduler_init)
    i.rt_system_scheduler_start              0x0800491c   Section        0  scheduler.o(i.rt_system_scheduler_start)
    i.rt_system_timer_init                   0x0800494c   Section        0  timer.o(i.rt_system_timer_init)
    i.rt_system_timer_thread_init            0x08004968   Section        0  timer.o(i.rt_system_timer_thread_init)
    i.rt_thread_create                       0x0800496a   Section        0  thread.o(i.rt_thread_create)
    i.rt_thread_delay                        0x080049ba   Section        0  thread.o(i.rt_thread_delay)
    i.rt_thread_delete                       0x080049c8   Section        0  thread.o(i.rt_thread_delete)
    i.rt_thread_exit                         0x08004a08   Section        0  thread.o(i.rt_thread_exit)
    i.rt_thread_idle_entry                   0x08004a5c   Section        0  idle.o(i.rt_thread_idle_entry)
    rt_thread_idle_entry                     0x08004a5d   Thumb Code     8  idle.o(i.rt_thread_idle_entry)
    i.rt_thread_idle_excute                  0x08004a64   Section        0  idle.o(i.rt_thread_idle_excute)
    i.rt_thread_idle_init                    0x08004ae8   Section        0  idle.o(i.rt_thread_idle_init)
    i.rt_thread_init                         0x08004b24   Section        0  thread.o(i.rt_thread_init)
    i.rt_thread_resume                       0x08004b58   Section        0  thread.o(i.rt_thread_resume)
    i.rt_thread_self                         0x08004b94   Section        0  thread.o(i.rt_thread_self)
    i.rt_thread_sleep                        0x08004ba0   Section        0  thread.o(i.rt_thread_sleep)
    i.rt_thread_startup                      0x08004be4   Section        0  thread.o(i.rt_thread_startup)
    i.rt_thread_suspend                      0x08004c10   Section        0  thread.o(i.rt_thread_suspend)
    i.rt_thread_timeout                      0x08004c54   Section        0  thread.o(i.rt_thread_timeout)
    i.rt_thread_yield                        0x08004c74   Section        0  thread.o(i.rt_thread_yield)
    i.rt_tick_get                            0x08004cd8   Section        0  clock.o(i.rt_tick_get)
    i.rt_tick_increase                       0x08004ce4   Section        0  clock.o(i.rt_tick_increase)
    i.rt_timer_check                         0x08004d14   Section        0  timer.o(i.rt_timer_check)
    i.rt_timer_control                       0x08004d90   Section        0  timer.o(i.rt_timer_control)
    i.rt_timer_detach                        0x08004dc8   Section        0  timer.o(i.rt_timer_detach)
    i.rt_timer_init                          0x08004de8   Section        0  timer.o(i.rt_timer_init)
    i.rt_timer_start                         0x08004e18   Section        0  timer.o(i.rt_timer_start)
    i.rt_timer_stop                          0x08004f10   Section        0  timer.o(i.rt_timer_stop)
    i.rti_board_end                          0x08004f40   Section        0  components.o(i.rti_board_end)
    rti_board_end                            0x08004f41   Thumb Code     4  components.o(i.rti_board_end)
    i.rti_board_start                        0x08004f44   Section        0  components.o(i.rti_board_start)
    rti_board_start                          0x08004f45   Thumb Code     4  components.o(i.rti_board_start)
    i.rti_end                                0x08004f48   Section        0  components.o(i.rti_end)
    rti_end                                  0x08004f49   Thumb Code     4  components.o(i.rti_end)
    i.rti_start                              0x08004f4c   Section        0  components.o(i.rti_start)
    rti_start                                0x08004f4d   Thumb Code     4  components.o(i.rti_start)
    i.rtthread_startup                       0x08004f50   Section        0  components.o(i.rtthread_startup)
    .constdata                               0x08004f7a   Section      256  usart_laser.o(.constdata)
    CrcTable                                 0x08004f7a   Data         256  usart_laser.o(.constdata)
    .constdata                               0x0800507c   Section       24  jdy-31.o(.constdata)
    .constdata                               0x08005094   Section     3224  oled.o(.constdata)
    .constdata                               0x08005d2c   Section      290  kservice.o(.constdata)
    small_digits                             0x08005e2c   Data          17  kservice.o(.constdata)
    large_digits                             0x08005e3d   Data          17  kservice.o(.constdata)
    .constdata                               0x08005e4e   Section      129  ctype_o.o(.constdata)
    .constdata                               0x08005ed0   Section        4  ctype_o.o(.constdata)
    table                                    0x08005ed0   Data           4  ctype_o.o(.constdata)
    .rti_fn.0                                0x08005ed4   Section        4  components.o(.rti_fn.0)
    __tagsym$$used                           0x08005ed4   Number         0  components.o(.rti_fn.0)
    .rti_fn.0.end                            0x08005ed8   Section        4  components.o(.rti_fn.0.end)
    __tagsym$$used                           0x08005ed8   Number         0  components.o(.rti_fn.0.end)
    .rti_fn.1.end                            0x08005edc   Section        4  components.o(.rti_fn.1.end)
    __tagsym$$used                           0x08005edc   Number         0  components.o(.rti_fn.1.end)
    .rti_fn.6.end                            0x08005ee0   Section        4  components.o(.rti_fn.6.end)
    __tagsym$$used                           0x08005ee0   Number         0  components.o(.rti_fn.6.end)
    .data                                    0x20000000   Section       20  system_stm32f10x.o(.data)
    .data                                    0x20000014   Section       20  stm32f10x_rcc.o(.data)
    APBAHBPrescTable                         0x20000014   Data          16  stm32f10x_rcc.o(.data)
    ADCPrescTable                            0x20000024   Data           4  stm32f10x_rcc.o(.data)
    .data                                    0x20000028   Section       45  main.o(.data)
    laser_thread                             0x20000028   Data           4  main.o(.data)
    blt_thread                               0x2000002c   Data           4  main.o(.data)
    oled_thread                              0x20000030   Data           4  main.o(.data)
    control_thread                           0x20000034   Data           4  main.o(.data)
    count                                    0x20000044   Data           1  main.o(.data)
    bat_temp                                 0x20000048   Data           4  main.o(.data)
    newvalue                                 0x2000004c   Data           4  main.o(.data)
    oldvalue                                 0x20000050   Data           4  main.o(.data)
    error                                    0x20000054   Data           1  main.o(.data)
    .data                                    0x20000055   Section        1  stm32f10x_it.o(.data)
    link_flag                                0x20000055   Data           1  stm32f10x_it.o(.data)
    .data                                    0x20000056   Section        4  control.o(.data)
    .data                                    0x2000005c   Section        4  spi.o(.data)
    SPITimeout                               0x2000005c   Data           4  spi.o(.data)
    .data                                    0x20000060   Section        4  clock.o(.data)
    rt_tick                                  0x20000060   Data           4  clock.o(.data)
    .data                                    0x20000064   Section        1  irq.o(.data)
    .data                                    0x20000068   Section        8  kservice.o(.data)
    __rt_errno                               0x20000068   Data           4  kservice.o(.data)
    _console_device                          0x2000006c   Data           4  kservice.o(.data)
    .data                                    0x20000070   Section       24  mem.o(.data)
    heap_ptr                                 0x20000070   Data           4  mem.o(.data)
    heap_end                                 0x20000074   Data           4  mem.o(.data)
    lfree                                    0x20000078   Data           4  mem.o(.data)
    mem_size_aligned                         0x2000007c   Data           4  mem.o(.data)
    used_mem                                 0x20000080   Data           4  mem.o(.data)
    max_mem                                  0x20000084   Data           4  mem.o(.data)
    .data                                    0x20000088   Section       96  object.o(.data)
    rt_object_container                      0x20000088   Data          96  object.o(.data)
    .data                                    0x200000e8   Section       24  scheduler.o(.data)
    rt_scheduler_lock_nest                   0x200000e8   Data           2  scheduler.o(.data)
    .data                                    0x20000100   Section       12  timer.o(.data)
    rt_timer_list                            0x20000100   Data           8  timer.o(.data)
    random_nr                                0x20000108   Data           4  timer.o(.data)
    .data                                    0x2000010c   Section       16  cpuport.o(.data)
    rt_exception_hook                        0x20000118   Data           4  cpuport.o(.data)
    .data                                    0x2000011c   Section        4  strtok.o(.data)
    state                                    0x2000011c   Data           4  strtok.o(.data)
    .data                                    0x20000120   Section        4  stdout.o(.data)
    .data                                    0x20000124   Section        4  errno.o(.data)
    _errno                                   0x20000124   Data           4  errno.o(.data)
    .bss                                     0x20000128   Section      100  main.o(.bss)
    dispBuff                                 0x20000128   Data         100  main.o(.bss)
    .bss                                     0x2000018c   Section     8192  board.o(.bss)
    rt_heap                                  0x2000018c   Data        8192  board.o(.bss)
    .bss                                     0x2000218c   Section      548  laserconfig.o(.bss)
    .bss                                     0x200023b0   Section     1028  usart_blt.o(.bss)
    .bss                                     0x200027b4   Section      376  idle.o(.bss)
    idle                                     0x200027b4   Data         120  idle.o(.bss)
    rt_thread_stack                          0x2000282c   Data         256  idle.o(.bss)
    .bss                                     0x2000292c   Section      128  kservice.o(.bss)
    rt_log_buf                               0x2000292c   Data         128  kservice.o(.bss)
    .bss                                     0x200029ac   Section       32  mem.o(.bss)
    heap_sem                                 0x200029ac   Data          32  mem.o(.bss)
    .bss                                     0x200029cc   Section       64  scheduler.o(.bss)
    STACK                                    0x20002a10   Section     1024  startup_stm32f10x_hd.o(STACK)

    Global Symbols

    Symbol Name                              Value     Ov Type        Size  Object(Section)

    BuildAttributes$$THM_ISAv4$P$D$K$B$S$PE$A:L22UL41UL21$X:L11$S22US41US21$IEEE1$IW$USESV6$~STKCKD$USESV7$~SHL$OTIME$ROPI$EBA8$MICROLIB$REQ8$PRES8$EABIv2 0x00000000   Number         0  anon$$obj.o ABSOLUTE
    __ARM_use_no_argv                        0x00000000   Number         0  main.o ABSOLUTE
    _printf_a                                0x00000000   Number         0  stubs.o ABSOLUTE
    _printf_c                                0x00000000   Number         0  stubs.o ABSOLUTE
    _printf_charcount                        0x00000000   Number         0  stubs.o ABSOLUTE
    _printf_d                                0x00000000   Number         0  stubs.o ABSOLUTE
    _printf_e                                0x00000000   Number         0  stubs.o ABSOLUTE
    _printf_f                                0x00000000   Number         0  stubs.o ABSOLUTE
    _printf_flags                            0x00000000   Number         0  stubs.o ABSOLUTE
    _printf_fp_dec                           0x00000000   Number         0  stubs.o ABSOLUTE
    _printf_fp_hex                           0x00000000   Number         0  stubs.o ABSOLUTE
    _printf_g                                0x00000000   Number         0  stubs.o ABSOLUTE
    _printf_i                                0x00000000   Number         0  stubs.o ABSOLUTE
    _printf_int_dec                          0x00000000   Number         0  stubs.o ABSOLUTE
    _printf_l                                0x00000000   Number         0  stubs.o ABSOLUTE
    _printf_lc                               0x00000000   Number         0  stubs.o ABSOLUTE
    _printf_ll                               0x00000000   Number         0  stubs.o ABSOLUTE
    _printf_lld                              0x00000000   Number         0  stubs.o ABSOLUTE
    _printf_lli                              0x00000000   Number         0  stubs.o ABSOLUTE
    _printf_llo                              0x00000000   Number         0  stubs.o ABSOLUTE
    _printf_llu                              0x00000000   Number         0  stubs.o ABSOLUTE
    _printf_llx                              0x00000000   Number         0  stubs.o ABSOLUTE
    _printf_longlong_dec                     0x00000000   Number         0  stubs.o ABSOLUTE
    _printf_longlong_hex                     0x00000000   Number         0  stubs.o ABSOLUTE
    _printf_longlong_oct                     0x00000000   Number         0  stubs.o ABSOLUTE
    _printf_ls                               0x00000000   Number         0  stubs.o ABSOLUTE
    _printf_mbtowc                           0x00000000   Number         0  stubs.o ABSOLUTE
    _printf_n                                0x00000000   Number         0  stubs.o ABSOLUTE
    _printf_o                                0x00000000   Number         0  stubs.o ABSOLUTE
    _printf_p                                0x00000000   Number         0  stubs.o ABSOLUTE
    _printf_percent                          0x00000000   Number         0  stubs.o ABSOLUTE
    _printf_pre_padding                      0x00000000   Number         0  stubs.o ABSOLUTE
    _printf_return_value                     0x00000000   Number         0  stubs.o ABSOLUTE
    _printf_s                                0x00000000   Number         0  stubs.o ABSOLUTE
    _printf_sizespec                         0x00000000   Number         0  stubs.o ABSOLUTE
    _printf_str                              0x00000000   Number         0  stubs.o ABSOLUTE
    _printf_truncate_signed                  0x00000000   Number         0  stubs.o ABSOLUTE
    _printf_truncate_unsigned                0x00000000   Number         0  stubs.o ABSOLUTE
    _printf_u                                0x00000000   Number         0  stubs.o ABSOLUTE
    _printf_wc                               0x00000000   Number         0  stubs.o ABSOLUTE
    _printf_wctomb                           0x00000000   Number         0  stubs.o ABSOLUTE
    _printf_widthprec                        0x00000000   Number         0  stubs.o ABSOLUTE
    _printf_x                                0x00000000   Number         0  stubs.o ABSOLUTE
    __arm_fini_                               - Undefined Weak Reference
    __cpp_initialize__aeabi_                  - Undefined Weak Reference
    __cxa_finalize                            - Undefined Weak Reference
    __decompress                              - Undefined Weak Reference
    _clock_init                               - Undefined Weak Reference
    _microlib_exit                            - Undefined Weak Reference
    __Vectors_Size                           0x00000130   Number         0  startup_stm32f10x_hd.o ABSOLUTE
    __Vectors                                0x08000000   Data           4  startup_stm32f10x_hd.o(RESET)
    __Vectors_End                            0x08000130   Data           0  startup_stm32f10x_hd.o(RESET)
    __main                                   0x08000131   Thumb Code     0  entry.o(.ARM.Collect$$$$00000000)
    _main_stk                                0x08000131   Thumb Code     0  entry2.o(.ARM.Collect$$$$00000001)
    _main_scatterload                        0x08000135   Thumb Code     0  entry5.o(.ARM.Collect$$$$00000004)
    __main_after_scatterload                 0x08000139   Thumb Code     0  entry5.o(.ARM.Collect$$$$00000004)
    _main_clock                              0x08000139   Thumb Code     0  entry7b.o(.ARM.Collect$$$$00000008)
    _main_cpp_init                           0x08000139   Thumb Code     0  entry8b.o(.ARM.Collect$$$$0000000A)
    _main_init                               0x08000139   Thumb Code     0  entry9a.o(.ARM.Collect$$$$0000000B)
    __rt_lib_shutdown_fini                   0x08000141   Thumb Code     0  entry12b.o(.ARM.Collect$$$$0000000E)
    __rt_final_cpp                           0x08000145   Thumb Code     0  entry10a.o(.ARM.Collect$$$$0000000F)
    __rt_final_exit                          0x08000145   Thumb Code     0  entry11a.o(.ARM.Collect$$$$00000011)
    Reset_Handler                            0x08000149   Thumb Code     8  startup_stm32f10x_hd.o(.text)
    ADC1_2_IRQHandler                        0x08000163   Thumb Code     0  startup_stm32f10x_hd.o(.text)
    ADC3_IRQHandler                          0x08000163   Thumb Code     0  startup_stm32f10x_hd.o(.text)
    CAN1_RX1_IRQHandler                      0x08000163   Thumb Code     0  startup_stm32f10x_hd.o(.text)
    CAN1_SCE_IRQHandler                      0x08000163   Thumb Code     0  startup_stm32f10x_hd.o(.text)
    DMA1_Channel1_IRQHandler                 0x08000163   Thumb Code     0  startup_stm32f10x_hd.o(.text)
    DMA1_Channel2_IRQHandler                 0x08000163   Thumb Code     0  startup_stm32f10x_hd.o(.text)
    DMA1_Channel3_IRQHandler                 0x08000163   Thumb Code     0  startup_stm32f10x_hd.o(.text)
    DMA1_Channel4_IRQHandler                 0x08000163   Thumb Code     0  startup_stm32f10x_hd.o(.text)
    DMA1_Channel5_IRQHandler                 0x08000163   Thumb Code     0  startup_stm32f10x_hd.o(.text)
    DMA1_Channel6_IRQHandler                 0x08000163   Thumb Code     0  startup_stm32f10x_hd.o(.text)
    DMA1_Channel7_IRQHandler                 0x08000163   Thumb Code     0  startup_stm32f10x_hd.o(.text)
    DMA2_Channel1_IRQHandler                 0x08000163   Thumb Code     0  startup_stm32f10x_hd.o(.text)
    DMA2_Channel2_IRQHandler                 0x08000163   Thumb Code     0  startup_stm32f10x_hd.o(.text)
    DMA2_Channel3_IRQHandler                 0x08000163   Thumb Code     0  startup_stm32f10x_hd.o(.text)
    DMA2_Channel4_5_IRQHandler               0x08000163   Thumb Code     0  startup_stm32f10x_hd.o(.text)
    EXTI0_IRQHandler                         0x08000163   Thumb Code     0  startup_stm32f10x_hd.o(.text)
    EXTI1_IRQHandler                         0x08000163   Thumb Code     0  startup_stm32f10x_hd.o(.text)
    EXTI2_IRQHandler                         0x08000163   Thumb Code     0  startup_stm32f10x_hd.o(.text)
    EXTI3_IRQHandler                         0x08000163   Thumb Code     0  startup_stm32f10x_hd.o(.text)
    EXTI4_IRQHandler                         0x08000163   Thumb Code     0  startup_stm32f10x_hd.o(.text)
    EXTI9_5_IRQHandler                       0x08000163   Thumb Code     0  startup_stm32f10x_hd.o(.text)
    FLASH_IRQHandler                         0x08000163   Thumb Code     0  startup_stm32f10x_hd.o(.text)
    FSMC_IRQHandler                          0x08000163   Thumb Code     0  startup_stm32f10x_hd.o(.text)
    I2C1_ER_IRQHandler                       0x08000163   Thumb Code     0  startup_stm32f10x_hd.o(.text)
    I2C1_EV_IRQHandler                       0x08000163   Thumb Code     0  startup_stm32f10x_hd.o(.text)
    I2C2_ER_IRQHandler                       0x08000163   Thumb Code     0  startup_stm32f10x_hd.o(.text)
    I2C2_EV_IRQHandler                       0x08000163   Thumb Code     0  startup_stm32f10x_hd.o(.text)
    PVD_IRQHandler                           0x08000163   Thumb Code     0  startup_stm32f10x_hd.o(.text)
    RCC_IRQHandler                           0x08000163   Thumb Code     0  startup_stm32f10x_hd.o(.text)
    RTCAlarm_IRQHandler                      0x08000163   Thumb Code     0  startup_stm32f10x_hd.o(.text)
    RTC_IRQHandler                           0x08000163   Thumb Code     0  startup_stm32f10x_hd.o(.text)
    SDIO_IRQHandler                          0x08000163   Thumb Code     0  startup_stm32f10x_hd.o(.text)
    SPI1_IRQHandler                          0x08000163   Thumb Code     0  startup_stm32f10x_hd.o(.text)
    SPI2_IRQHandler                          0x08000163   Thumb Code     0  startup_stm32f10x_hd.o(.text)
    SPI3_IRQHandler                          0x08000163   Thumb Code     0  startup_stm32f10x_hd.o(.text)
    TAMPER_IRQHandler                        0x08000163   Thumb Code     0  startup_stm32f10x_hd.o(.text)
    TIM1_BRK_IRQHandler                      0x08000163   Thumb Code     0  startup_stm32f10x_hd.o(.text)
    TIM1_CC_IRQHandler                       0x08000163   Thumb Code     0  startup_stm32f10x_hd.o(.text)
    TIM1_TRG_COM_IRQHandler                  0x08000163   Thumb Code     0  startup_stm32f10x_hd.o(.text)
    TIM1_UP_IRQHandler                       0x08000163   Thumb Code     0  startup_stm32f10x_hd.o(.text)
    TIM2_IRQHandler                          0x08000163   Thumb Code     0  startup_stm32f10x_hd.o(.text)
    TIM3_IRQHandler                          0x08000163   Thumb Code     0  startup_stm32f10x_hd.o(.text)
    TIM4_IRQHandler                          0x08000163   Thumb Code     0  startup_stm32f10x_hd.o(.text)
    TIM5_IRQHandler                          0x08000163   Thumb Code     0  startup_stm32f10x_hd.o(.text)
    TIM6_IRQHandler                          0x08000163   Thumb Code     0  startup_stm32f10x_hd.o(.text)
    TIM7_IRQHandler                          0x08000163   Thumb Code     0  startup_stm32f10x_hd.o(.text)
    TIM8_BRK_IRQHandler                      0x08000163   Thumb Code     0  startup_stm32f10x_hd.o(.text)
    TIM8_CC_IRQHandler                       0x08000163   Thumb Code     0  startup_stm32f10x_hd.o(.text)
    TIM8_TRG_COM_IRQHandler                  0x08000163   Thumb Code     0  startup_stm32f10x_hd.o(.text)
    TIM8_UP_IRQHandler                       0x08000163   Thumb Code     0  startup_stm32f10x_hd.o(.text)
    UART4_IRQHandler                         0x08000163   Thumb Code     0  startup_stm32f10x_hd.o(.text)
    UART5_IRQHandler                         0x08000163   Thumb Code     0  startup_stm32f10x_hd.o(.text)
    USART2_IRQHandler                        0x08000163   Thumb Code     0  startup_stm32f10x_hd.o(.text)
    USART3_IRQHandler                        0x08000163   Thumb Code     0  startup_stm32f10x_hd.o(.text)
    USBWakeUp_IRQHandler                     0x08000163   Thumb Code     0  startup_stm32f10x_hd.o(.text)
    USB_HP_CAN1_TX_IRQHandler                0x08000163   Thumb Code     0  startup_stm32f10x_hd.o(.text)
    USB_LP_CAN1_RX0_IRQHandler               0x08000163   Thumb Code     0  startup_stm32f10x_hd.o(.text)
    WWDG_IRQHandler                          0x08000163   Thumb Code     0  startup_stm32f10x_hd.o(.text)
    rt_hw_interrupt_disable                  0x0800016d   Thumb Code     8  context_rvds.o(.text)
    rt_hw_interrupt_enable                   0x08000175   Thumb Code     6  context_rvds.o(.text)
    rt_hw_context_switch                     0x0800017b   Thumb Code    32  context_rvds.o(.text)
    rt_hw_context_switch_interrupt           0x0800017b   Thumb Code     0  context_rvds.o(.text)
    PendSV_Handler                           0x0800019b   Thumb Code    60  context_rvds.o(.text)
    rt_hw_context_switch_to                  0x080001d7   Thumb Code    58  context_rvds.o(.text)
    rt_hw_interrupt_thread_switch            0x08000211   Thumb Code     2  context_rvds.o(.text)
    HardFault_Handler                        0x08000213   Thumb Code    48  context_rvds.o(.text)
    __aeabi_memcpy                           0x0800025d   Thumb Code    36  memcpya.o(.text)
    __aeabi_memcpy4                          0x0800025d   Thumb Code     0  memcpya.o(.text)
    __aeabi_memcpy8                          0x0800025d   Thumb Code     0  memcpya.o(.text)
    strstr                                   0x08000281   Thumb Code    36  strstr.o(.text)
    strtok                                   0x080002a5   Thumb Code    62  strtok.o(.text)
    atoi                                     0x080002e9   Thumb Code    26  atoi.o(.text)
    __aeabi_fadd                             0x08000303   Thumb Code   164  fadd.o(.text)
    __aeabi_fsub                             0x080003a7   Thumb Code     6  fadd.o(.text)
    __aeabi_frsub                            0x080003ad   Thumb Code     6  fadd.o(.text)
    __aeabi_fmul                             0x080003b3   Thumb Code   100  fmul.o(.text)
    __aeabi_fdiv                             0x08000417   Thumb Code   124  fdiv.o(.text)
    __aeabi_ui2f                             0x08000493   Thumb Code    10  ffltui.o(.text)
    __aeabi_f2uiz                            0x0800049d   Thumb Code    40  ffixui.o(.text)
    __aeabi_f2d                              0x080004c5   Thumb Code    38  f2d.o(.text)
    __aeabi_cfcmpeq                          0x080004ed   Thumb Code     0  cfcmple.o(.text)
    __aeabi_cfcmple                          0x080004ed   Thumb Code    20  cfcmple.o(.text)
    __aeabi_uidiv                            0x08000501   Thumb Code     0  uidiv.o(.text)
    __aeabi_uidivmod                         0x08000501   Thumb Code    44  uidiv.o(.text)
    __aeabi_uldivmod                         0x0800052d   Thumb Code    98  uldiv.o(.text)
    strtol                                   0x0800058f   Thumb Code   112  strtol.o(.text)
    __I$use$fp                               0x080005ff   Thumb Code     0  iusefp.o(.text)
    _float_round                             0x080005ff   Thumb Code    18  fepilogue.o(.text)
    _float_epilogue                          0x08000611   Thumb Code    92  fepilogue.o(.text)
    __aeabi_dadd                             0x0800066d   Thumb Code   322  dadd.o(.text)
    __aeabi_dsub                             0x080007af   Thumb Code     6  dadd.o(.text)
    __aeabi_drsub                            0x080007b5   Thumb Code     6  dadd.o(.text)
    __aeabi_dmul                             0x080007bb   Thumb Code   228  dmul.o(.text)
    __aeabi_ddiv                             0x0800089f   Thumb Code   222  ddiv.o(.text)
    __aeabi_d2ulz                            0x0800097d   Thumb Code    48  dfixul.o(.text)
    __aeabi_cdrcmple                         0x080009ad   Thumb Code    48  cdrcmple.o(.text)
    __scatterload                            0x080009dd   Thumb Code    28  init.o(.text)
    __scatterload_rt2                        0x080009dd   Thumb Code     0  init.o(.text)
    __aeabi_llsl                             0x08000a01   Thumb Code    30  llshl.o(.text)
    _ll_shift_l                              0x08000a01   Thumb Code     0  llshl.o(.text)
    __aeabi_llsr                             0x08000a1f   Thumb Code    32  llushr.o(.text)
    _ll_ushift_r                             0x08000a1f   Thumb Code     0  llushr.o(.text)
    __aeabi_lasr                             0x08000a3f   Thumb Code    36  llsshr.o(.text)
    _ll_sshift_r                             0x08000a3f   Thumb Code     0  llsshr.o(.text)
    __rt_ctype_table                         0x08000a65   Thumb Code     4  ctype_o.o(.text)
    _strtoul                                 0x08000a6d   Thumb Code   158  _strtoul.o(.text)
    _double_round                            0x08000b0b   Thumb Code    30  depilogue.o(.text)
    _double_epilogue                         0x08000b29   Thumb Code   156  depilogue.o(.text)
    _chval                                   0x08000bc5   Thumb Code    28  _chval.o(.text)
    main                                     0x08000be1   Thumb Code    14  components.o(i.$Sub$$main)
    ADC_Cmd                                  0x08000bef   Thumb Code    22  stm32f10x_adc.o(i.ADC_Cmd)
    ADC_DMACmd                               0x08000c05   Thumb Code    22  stm32f10x_adc.o(i.ADC_DMACmd)
    ADC_GetCalibrationStatus                 0x08000c1b   Thumb Code    20  stm32f10x_adc.o(i.ADC_GetCalibrationStatus)
    ADC_GetResetCalibrationStatus            0x08000c2f   Thumb Code    20  stm32f10x_adc.o(i.ADC_GetResetCalibrationStatus)
    ADC_Init                                 0x08000c45   Thumb Code    70  stm32f10x_adc.o(i.ADC_Init)
    ADC_RegularChannelConfig                 0x08000c95   Thumb Code   184  stm32f10x_adc.o(i.ADC_RegularChannelConfig)
    ADC_ResetCalibration                     0x08000d4d   Thumb Code    10  stm32f10x_adc.o(i.ADC_ResetCalibration)
    ADC_SoftwareStartConvCmd                 0x08000d57   Thumb Code    22  stm32f10x_adc.o(i.ADC_SoftwareStartConvCmd)
    ADC_StartCalibration                     0x08000d6d   Thumb Code    10  stm32f10x_adc.o(i.ADC_StartCalibration)
    ADCx_Init                                0x08000dfd   Thumb Code    16  bat_adc.o(i.ADCx_Init)
    BLT_UART_Config                          0x08000e99   Thumb Code   186  usart_blt.o(i.BLT_UART_Config)
    BusFault_Handler                         0x08000f5d   Thumb Code     4  stm32f10x_it.o(i.BusFault_Handler)
    DMA_ClearFlag                            0x08000f61   Thumb Code    18  stm32f10x_dma.o(i.DMA_ClearFlag)
    DMA_Cmd                                  0x08000f7d   Thumb Code    24  stm32f10x_dma.o(i.DMA_Cmd)
    DMA_DeInit                               0x08000f95   Thumb Code   324  stm32f10x_dma.o(i.DMA_DeInit)
    DMA_GetFlagStatus                        0x080010e1   Thumb Code    36  stm32f10x_dma.o(i.DMA_GetFlagStatus)
    DMA_Init                                 0x0800110d   Thumb Code    60  stm32f10x_dma.o(i.DMA_Init)
    DMA_SetCurrDataCounter                   0x08001149   Thumb Code     4  stm32f10x_dma.o(i.DMA_SetCurrDataCounter)
    Data_Process                             0x0800114d   Thumb Code   194  usart_laser.o(i.Data_Process)
    DebugMon_Handler                         0x08001219   Thumb Code     2  stm32f10x_it.o(i.DebugMon_Handler)
    EXTI15_10_IRQHandler                     0x0800121d   Thumb Code    64  stm32f10x_it.o(i.EXTI15_10_IRQHandler)
    EXTI_ClearITPendingBit                   0x08001265   Thumb Code     6  stm32f10x_exti.o(i.EXTI_ClearITPendingBit)
    EXTI_GetFlagStatus                       0x08001271   Thumb Code    20  stm32f10x_exti.o(i.EXTI_GetFlagStatus)
    EXTI_Init                                0x08001289   Thumb Code   142  stm32f10x_exti.o(i.EXTI_Init)
    GPIO_EXTILineConfig                      0x0800131d   Thumb Code    60  stm32f10x_gpio.o(i.GPIO_EXTILineConfig)
    GPIO_Init                                0x0800135d   Thumb Code   278  stm32f10x_gpio.o(i.GPIO_Init)
    GPIO_ResetBits                           0x08001473   Thumb Code     4  stm32f10x_gpio.o(i.GPIO_ResetBits)
    GPIO_SetBits                             0x08001477   Thumb Code     4  stm32f10x_gpio.o(i.GPIO_SetBits)
    JDY31_GPIO_Config                        0x08001515   Thumb Code    56  jdy-31.o(i.JDY31_GPIO_Config)
    JDY31_Init                               0x08001551   Thumb Code   130  jdy-31.o(i.JDY31_Init)
    JDY31_Send_CMD                           0x08001649   Thumb Code   106  jdy-31.o(i.JDY31_Send_CMD)
    Laser_Usart_Config                       0x0800171d   Thumb Code    94  usart_laser.o(i.Laser_Usart_Config)
    MemManage_Handler                        0x08001785   Thumb Code     4  stm32f10x_it.o(i.MemManage_Handler)
    Motol_Init                               0x08001789   Thumb Code    54  control.o(i.Motol_Init)
    NMI_Handler                              0x080017c5   Thumb Code     2  stm32f10x_it.o(i.NMI_Handler)
    NVIC_Init                                0x080017f1   Thumb Code   100  misc.o(i.NVIC_Init)
    NVIC_PriorityGroupConfig                 0x08001861   Thumb Code    10  misc.o(i.NVIC_PriorityGroupConfig)
    OLED_6x8Str                              0x08001875   Thumb Code    96  oled.o(i.OLED_6x8Str)
    OLED_BMP                                 0x080018d9   Thumb Code   116  oled.o(i.OLED_BMP)
    OLED_CLS                                 0x0800194d   Thumb Code    10  oled.o(i.OLED_CLS)
    OLED_Fill                                0x08001957   Thumb Code    58  oled.o(i.OLED_Fill)
    OLED_Init                                0x08001991   Thumb Code   256  oled.o(i.OLED_Init)
    OLED_SetPos                              0x08001a95   Thumb Code    40  oled.o(i.OLED_SetPos)
    OLED_WrCmd                               0x08001abd   Thumb Code    22  oled.o(i.OLED_WrCmd)
    OLED_WrDat                               0x08001ad9   Thumb Code    22  oled.o(i.OLED_WrDat)
    PWM_Init                                 0x08001b71   Thumb Code    22  pwm.o(i.PWM_Init)
    RCC_ADCCLKConfig                         0x08001be1   Thumb Code    18  stm32f10x_rcc.o(i.RCC_ADCCLKConfig)
    RCC_AHBPeriphClockCmd                    0x08001bf9   Thumb Code    26  stm32f10x_rcc.o(i.RCC_AHBPeriphClockCmd)
    RCC_APB1PeriphClockCmd                   0x08001c19   Thumb Code    26  stm32f10x_rcc.o(i.RCC_APB1PeriphClockCmd)
    RCC_APB2PeriphClockCmd                   0x08001c39   Thumb Code    26  stm32f10x_rcc.o(i.RCC_APB2PeriphClockCmd)
    RCC_GetClocksFreq                        0x08001c59   Thumb Code   192  stm32f10x_rcc.o(i.RCC_GetClocksFreq)
    SPI_Cmd                                  0x08001d2d   Thumb Code    24  stm32f10x_spi.o(i.SPI_Cmd)
    SPI_Config                               0x08001d45   Thumb Code   170  spi.o(i.SPI_Config)
    SPI_I2S_GetFlagStatus                    0x08001df9   Thumb Code    18  stm32f10x_spi.o(i.SPI_I2S_GetFlagStatus)
    SPI_I2S_ReceiveData                      0x08001e0b   Thumb Code     6  stm32f10x_spi.o(i.SPI_I2S_ReceiveData)
    SPI_I2S_SendData                         0x08001e11   Thumb Code     4  stm32f10x_spi.o(i.SPI_I2S_SendData)
    SPI_Init                                 0x08001e15   Thumb Code    60  stm32f10x_spi.o(i.SPI_Init)
    SPI_SendByte                             0x08001e51   Thumb Code   110  spi.o(i.SPI_SendByte)
    SVC_Handler                              0x08001ef5   Thumb Code     2  stm32f10x_it.o(i.SVC_Handler)
    Set_angle                                0x08001fe1   Thumb Code   108  control.o(i.Set_angle)
    SysTick_Handler                          0x0800205d   Thumb Code    16  board.o(i.SysTick_Handler)
    SystemInit                               0x0800206d   Thumb Code    78  system_stm32f10x.o(i.SystemInit)
    TIM_ARRPreloadConfig                     0x080020cd   Thumb Code    24  stm32f10x_tim.o(i.TIM_ARRPreloadConfig)
    TIM_Cmd                                  0x080020e5   Thumb Code    24  stm32f10x_tim.o(i.TIM_Cmd)
    TIM_OC1Init                              0x080020fd   Thumb Code   132  stm32f10x_tim.o(i.TIM_OC1Init)
    TIM_OC1PreloadConfig                     0x08002195   Thumb Code    18  stm32f10x_tim.o(i.TIM_OC1PreloadConfig)
    TIM_OC4Init                              0x080021a9   Thumb Code   114  stm32f10x_tim.o(i.TIM_OC4Init)
    TIM_OC4PreloadConfig                     0x08002225   Thumb Code    26  stm32f10x_tim.o(i.TIM_OC4PreloadConfig)
    TIM_OCStructInit                         0x0800223f   Thumb Code    20  stm32f10x_tim.o(i.TIM_OCStructInit)
    TIM_SetCompare1                          0x08002253   Thumb Code     4  stm32f10x_tim.o(i.TIM_SetCompare1)
    TIM_SetCompare4                          0x08002257   Thumb Code     6  stm32f10x_tim.o(i.TIM_SetCompare4)
    TIM_TimeBaseInit                         0x0800225d   Thumb Code   122  stm32f10x_tim.o(i.TIM_TimeBaseInit)
    TIM_TimeBaseStructInit                   0x08002301   Thumb Code    18  stm32f10x_tim.o(i.TIM_TimeBaseStructInit)
    USART1_IRQHandler                        0x08002315   Thumb Code    94  stm32f10x_it.o(i.USART1_IRQHandler)
    USART_ClearFlag                          0x0800237d   Thumb Code    18  stm32f10x_usart.o(i.USART_ClearFlag)
    USART_Cmd                                0x0800238f   Thumb Code    24  stm32f10x_usart.o(i.USART_Cmd)
    USART_DMACmd                             0x080023a7   Thumb Code    18  stm32f10x_usart.o(i.USART_DMACmd)
    USART_GetFlagStatus                      0x080023b9   Thumb Code    26  stm32f10x_usart.o(i.USART_GetFlagStatus)
    USART_GetITStatus                        0x080023d3   Thumb Code    84  stm32f10x_usart.o(i.USART_GetITStatus)
    USART_ITConfig                           0x08002427   Thumb Code    74  stm32f10x_usart.o(i.USART_ITConfig)
    USART_Init                               0x08002471   Thumb Code   210  stm32f10x_usart.o(i.USART_Init)
    USART_ReceiveData                        0x08002549   Thumb Code    10  stm32f10x_usart.o(i.USART_ReceiveData)
    USART_SendData                           0x08002553   Thumb Code     8  stm32f10x_usart.o(i.USART_SendData)
    UsageFault_Handler                       0x0800255b   Thumb Code     4  stm32f10x_it.o(i.UsageFault_Handler)
    Usart_SendByte                           0x0800255f   Thumb Code    30  usart_blt.o(i.Usart_SendByte)
    Usart_SendString                         0x0800257d   Thumb Code    28  usart_blt.o(i.Usart_SendString)
    __0printf                                0x08002599   Thumb Code    22  printfa.o(i.__0printf)
    __1printf                                0x08002599   Thumb Code     0  printfa.o(i.__0printf)
    __2printf                                0x08002599   Thumb Code     0  printfa.o(i.__0printf)
    __c89printf                              0x08002599   Thumb Code     0  printfa.o(i.__0printf)
    printf                                   0x08002599   Thumb Code     0  printfa.o(i.__0printf)
    __0sprintf                               0x080025b9   Thumb Code    34  printfa.o(i.__0sprintf)
    __1sprintf                               0x080025b9   Thumb Code     0  printfa.o(i.__0sprintf)
    __2sprintf                               0x080025b9   Thumb Code     0  printfa.o(i.__0sprintf)
    __c89sprintf                             0x080025b9   Thumb Code     0  printfa.o(i.__0sprintf)
    sprintf                                  0x080025b9   Thumb Code     0  printfa.o(i.__0sprintf)
    __0vsnprintf                             0x080025e1   Thumb Code    46  printfa.o(i.__0vsnprintf)
    __1vsnprintf                             0x080025e1   Thumb Code     0  printfa.o(i.__0vsnprintf)
    __2vsnprintf                             0x080025e1   Thumb Code     0  printfa.o(i.__0vsnprintf)
    __c89vsnprintf                           0x080025e1   Thumb Code     0  printfa.o(i.__0vsnprintf)
    vsnprintf                                0x080025e1   Thumb Code     0  printfa.o(i.__0vsnprintf)
    __aeabi_errno_addr                       0x08002615   Thumb Code     4  errno.o(i.__aeabi_errno_addr)
    __rt_errno_addr                          0x08002615   Thumb Code     0  errno.o(i.__aeabi_errno_addr)
    __rt_ffs                                 0x0800261d   Thumb Code    70  kservice.o(i.__rt_ffs)
    __scatterload_copy                       0x08002669   Thumb Code    14  handlers.o(i.__scatterload_copy)
    __scatterload_null                       0x08002677   Thumb Code     2  handlers.o(i.__scatterload_null)
    __scatterload_zeroinit                   0x08002679   Thumb Code    14  handlers.o(i.__scatterload_zeroinit)
    clean_rebuff                             0x08003299   Thumb Code    36  usart_blt.o(i.clean_rebuff)
    deinit_config                            0x080033c9   Thumb Code    58  laserconfig.o(i.deinit_config)
    delay_ms                                 0x08003415   Thumb Code    32  delay.o(i.delay_ms)
    fputc                                    0x08003455   Thumb Code    32  usart_blt.o(i.fputc)
    get_rebuff                               0x08003479   Thumb Code    14  usart_blt.o(i.get_rebuff)
    $Super$$main                             0x08003519   Thumb Code   144  main.o(i.main)
    main_thread_entry                        0x08003605   Thumb Code    14  components.o(i.main_thread_entry)
    rt_application_init                      0x0800396d   Thumb Code    32  components.o(i.rt_application_init)
    rt_components_board_init                 0x08003999   Thumb Code    20  components.o(i.rt_components_board_init)
    rt_components_init                       0x080039b5   Thumb Code    20  components.o(i.rt_components_init)
    rt_console_set_device                    0x080039d1   Thumb Code    48  kservice.o(i.rt_console_set_device)
    rt_device_close                          0x08003a05   Thumb Code    54  device.o(i.rt_device_close)
    rt_device_find                           0x08003a3b   Thumb Code    82  device.o(i.rt_device_find)
    rt_device_open                           0x08003a8d   Thumb Code   122  device.o(i.rt_device_open)
    rt_device_write                          0x08003b41   Thumb Code    62  device.o(i.rt_device_write)
    rt_enter_critical                        0x08003b81   Thumb Code    28  scheduler.o(i.rt_enter_critical)
    rt_exit_critical                         0x08003ba1   Thumb Code    54  scheduler.o(i.rt_exit_critical)
    rt_free                                  0x08003bdd   Thumb Code   128  mem.o(i.rt_free)
    rt_heap_begin_get                        0x08003cbd   Thumb Code     4  board.o(i.rt_heap_begin_get)
    rt_heap_end_get                          0x08003cc5   Thumb Code     4  board.o(i.rt_heap_end_get)
    rt_hw_board_init                         0x08003ccd   Thumb Code   176  board.o(i.rt_hw_board_init)
    rt_hw_console_output                     0x08003d9d   Thumb Code     2  kservice.o(i.rt_hw_console_output)
    rt_hw_hard_fault_exception               0x08003da1   Thumb Code   190  cpuport.o(i.rt_hw_hard_fault_exception)
    rt_hw_stack_init                         0x08003fa1   Thumb Code    70  cpuport.o(i.rt_hw_stack_init)
    rt_interrupt_enter                       0x08003fed   Thumb Code    26  irq.o(i.rt_interrupt_enter)
    rt_interrupt_get_nest                    0x0800400d   Thumb Code     6  irq.o(i.rt_interrupt_get_nest)
    rt_interrupt_leave                       0x08004019   Thumb Code    26  irq.o(i.rt_interrupt_leave)
    rt_kprintf                               0x080040c9   Thumb Code    96  kservice.o(i.rt_kprintf)
    rt_malloc                                0x080041c1   Thumb Code   336  mem.o(i.rt_malloc)
    rt_memset                                0x0800432d   Thumb Code    72  kservice.o(i.rt_memset)
    rt_object_allocate                       0x08004375   Thumb Code    74  object.o(i.rt_object_allocate)
    rt_object_delete                         0x080043bf   Thumb Code    32  object.o(i.rt_object_delete)
    rt_object_detach                         0x080043df   Thumb Code    26  object.o(i.rt_object_detach)
    rt_object_get_information                0x080043f9   Thumb Code    36  object.o(i.rt_object_get_information)
    rt_object_init                           0x08004421   Thumb Code    60  object.o(i.rt_object_init)
    rt_object_is_systemobject                0x0800445d   Thumb Code    18  object.o(i.rt_object_is_systemobject)
    rt_schedule                              0x08004471   Thumb Code   118  scheduler.o(i.rt_schedule)
    rt_schedule_insert_thread                0x08004501   Thumb Code    72  scheduler.o(i.rt_schedule_insert_thread)
    rt_schedule_remove_thread                0x08004551   Thumb Code    76  scheduler.o(i.rt_schedule_remove_thread)
    rt_sem_create                            0x080045a5   Thumb Code    42  ipc.o(i.rt_sem_create)
    rt_sem_init                              0x080045cf   Thumb Code    38  ipc.o(i.rt_sem_init)
    rt_sem_release                           0x080045f5   Thumb Code    58  ipc.o(i.rt_sem_release)
    rt_sem_take                              0x0800462f   Thumb Code   116  ipc.o(i.rt_sem_take)
    rt_set_errno                             0x080046a5   Thumb Code    36  kservice.o(i.rt_set_errno)
    rt_show_version                          0x080046cd   Thumb Code    38  kservice.o(i.rt_show_version)
    rt_strncmp                               0x0800477d   Thumb Code    40  kservice.o(i.rt_strncmp)
    rt_strncpy                               0x080047a5   Thumb Code    52  kservice.o(i.rt_strncpy)
    rt_system_heap_init                      0x080047d9   Thumb Code   160  mem.o(i.rt_system_heap_init)
    rt_system_scheduler_init                 0x080048d1   Thumb Code    52  scheduler.o(i.rt_system_scheduler_init)
    rt_system_scheduler_start                0x0800491d   Thumb Code    36  scheduler.o(i.rt_system_scheduler_start)
    rt_system_timer_init                     0x0800494d   Thumb Code    24  timer.o(i.rt_system_timer_init)
    rt_system_timer_thread_init              0x08004969   Thumb Code     2  timer.o(i.rt_system_timer_thread_init)
    rt_thread_create                         0x0800496b   Thumb Code    80  thread.o(i.rt_thread_create)
    rt_thread_delay                          0x080049bb   Thumb Code    12  thread.o(i.rt_thread_delay)
    rt_thread_delete                         0x080049c9   Thumb Code    60  thread.o(i.rt_thread_delete)
    rt_thread_exit                           0x08004a09   Thumb Code    76  thread.o(i.rt_thread_exit)
    rt_thread_idle_excute                    0x08004a65   Thumb Code   128  idle.o(i.rt_thread_idle_excute)
    rt_thread_idle_init                      0x08004ae9   Thumb Code    38  idle.o(i.rt_thread_idle_init)
    rt_thread_init                           0x08004b25   Thumb Code    52  thread.o(i.rt_thread_init)
    rt_thread_resume                         0x08004b59   Thumb Code    60  thread.o(i.rt_thread_resume)
    rt_thread_self                           0x08004b95   Thumb Code     6  thread.o(i.rt_thread_self)
    rt_thread_sleep                          0x08004ba1   Thumb Code    62  thread.o(i.rt_thread_sleep)
    rt_thread_startup                        0x08004be5   Thumb Code    44  thread.o(i.rt_thread_startup)
    rt_thread_suspend                        0x08004c11   Thumb Code    68  thread.o(i.rt_thread_suspend)
    rt_thread_timeout                        0x08004c55   Thumb Code    32  thread.o(i.rt_thread_timeout)
    rt_thread_yield                          0x08004c75   Thumb Code    92  thread.o(i.rt_thread_yield)
    rt_tick_get                              0x08004cd9   Thumb Code     6  clock.o(i.rt_tick_get)
    rt_tick_increase                         0x08004ce5   Thumb Code    42  clock.o(i.rt_tick_increase)
    rt_timer_check                           0x08004d15   Thumb Code   118  timer.o(i.rt_timer_check)
    rt_timer_control                         0x08004d91   Thumb Code    56  timer.o(i.rt_timer_control)
    rt_timer_detach                          0x08004dc9   Thumb Code    32  timer.o(i.rt_timer_detach)
    rt_timer_init                            0x08004de9   Thumb Code    46  timer.o(i.rt_timer_init)
    rt_timer_start                           0x08004e19   Thumb Code   238  timer.o(i.rt_timer_start)
    rt_timer_stop                            0x08004f11   Thumb Code    48  timer.o(i.rt_timer_stop)
    rtthread_startup                         0x08004f51   Thumb Code    42  components.o(i.rtthread_startup)
    F16x16                                   0x08005094   Data         128  oled.o(.constdata)
    F6x8                                     0x08005114   Data         552  oled.o(.constdata)
    F8X16                                    0x0800533c   Data        1520  oled.o(.constdata)
    Logo                                     0x0800592c   Data        1024  oled.o(.constdata)
    __lowest_bit_bitmap                      0x08005d2c   Data         256  kservice.o(.constdata)
    __ctype_table                            0x08005e4e   Data         129  ctype_o.o(.constdata)
    __rt_init_rti_start                      0x08005ed4   Data           4  components.o(.rti_fn.0)
    __rt_init_rti_board_start                0x08005ed8   Data           4  components.o(.rti_fn.0.end)
    __rt_init_rti_board_end                  0x08005edc   Data           4  components.o(.rti_fn.1.end)
    __rt_init_rti_end                        0x08005ee0   Data           4  components.o(.rti_fn.6.end)
    Region$$Table$$Base                      0x08005ee4   Number         0  anon$$obj.o(Region$$Table)
    Region$$Table$$Limit                     0x08005f04   Number         0  anon$$obj.o(Region$$Table)
    SystemCoreClock                          0x20000000   Data           4  system_stm32f10x.o(.data)
    AHBPrescTable                            0x20000004   Data          16  system_stm32f10x.o(.data)
    dist_ready_sem                           0x20000038   Data           4  main.o(.data)
    control_ready_sem                        0x2000003c   Data           4  main.o(.data)
    data_ready_sem                           0x20000040   Data           4  main.o(.data)
    Motor_Vertical                           0x20000056   Data           2  control.o(.data)
    Motor_Level                              0x20000058   Data           2  control.o(.data)
    rt_interrupt_nest                        0x20000064   Data           1  irq.o(.data)
    rt_current_thread                        0x200000ec   Data           4  scheduler.o(.data)
    rt_current_priority                      0x200000f0   Data           1  scheduler.o(.data)
    rt_thread_ready_priority_group           0x200000f4   Data           4  scheduler.o(.data)
    rt_thread_defunct                        0x200000f8   Data           8  scheduler.o(.data)
    rt_interrupt_from_thread                 0x2000010c   Data           4  cpuport.o(.data)
    rt_interrupt_to_thread                   0x20000110   Data           4  cpuport.o(.data)
    rt_thread_switch_interrupt_flag          0x20000114   Data           4  cpuport.o(.data)
    __stdout                                 0x20000120   Data           4  stdout.o(.data)
    laser                                    0x2000218c   Data         548  laserconfig.o(.bss)
    BLT_USART_ReceiveData                    0x200023b0   Data        1028  usart_blt.o(.bss)
    rt_thread_priority_table                 0x200029cc   Data          64  scheduler.o(.bss)
    __initial_sp                             0x20002e10   Data           0  startup_stm32f10x_hd.o(STACK)



==============================================================================

Memory Map of the image

  Image Entry point : 0x08000131

  Load Region LR_IROM1 (Base: 0x08000000, Size: 0x0000602c, Max: 0x00010000, ABSOLUTE)

    Execution Region ER_IROM1 (Exec base: 0x08000000, Load base: 0x08000000, Size: 0x00005f04, Max: 0x00010000, ABSOLUTE)

    Exec Addr    Load Addr    Size         Type   Attr      Idx    E Section Name        Object

    0x08000000   0x08000000   0x00000130   Data   RO            3    RESET               startup_stm32f10x_hd.o
    0x08000130   0x08000130   0x00000000   Code   RO         4962  * .ARM.Collect$$$$00000000  mc_w.l(entry.o)
    0x08000130   0x08000130   0x00000004   Code   RO         5256    .ARM.Collect$$$$00000001  mc_w.l(entry2.o)
    0x08000134   0x08000134   0x00000004   Code   RO         5259    .ARM.Collect$$$$00000004  mc_w.l(entry5.o)
    0x08000138   0x08000138   0x00000000   Code   RO         5261    .ARM.Collect$$$$00000008  mc_w.l(entry7b.o)
    0x08000138   0x08000138   0x00000000   Code   RO         5263    .ARM.Collect$$$$0000000A  mc_w.l(entry8b.o)
    0x08000138   0x08000138   0x00000008   Code   RO         5264    .ARM.Collect$$$$0000000B  mc_w.l(entry9a.o)
    0x08000140   0x08000140   0x00000004   Code   RO         5271    .ARM.Collect$$$$0000000E  mc_w.l(entry12b.o)
    0x08000144   0x08000144   0x00000000   Code   RO         5266    .ARM.Collect$$$$0000000F  mc_w.l(entry10a.o)
    0x08000144   0x08000144   0x00000000   Code   RO         5268    .ARM.Collect$$$$00000011  mc_w.l(entry11a.o)
    0x08000144   0x08000144   0x00000004   Code   RO         5257    .ARM.Collect$$$$00002712  mc_w.l(entry2.o)
    0x08000148   0x08000148   0x00000024   Code   RO            4    .text               startup_stm32f10x_hd.o
    0x0800016c   0x0800016c   0x000000f0   Code   RO         4842    .text               context_rvds.o
    0x0800025c   0x0800025c   0x00000024   Code   RO         4965    .text               mc_w.l(memcpya.o)
    0x08000280   0x08000280   0x00000024   Code   RO         4967    .text               mc_w.l(strstr.o)
    0x080002a4   0x080002a4   0x00000044   Code   RO         4969    .text               mc_w.l(strtok.o)
    0x080002e8   0x080002e8   0x0000001a   Code   RO         5238    .text               mc_w.l(atoi.o)
    0x08000302   0x08000302   0x000000b0   Code   RO         5240    .text               mf_w.l(fadd.o)
    0x080003b2   0x080003b2   0x00000064   Code   RO         5242    .text               mf_w.l(fmul.o)
    0x08000416   0x08000416   0x0000007c   Code   RO         5244    .text               mf_w.l(fdiv.o)
    0x08000492   0x08000492   0x0000000a   Code   RO         5246    .text               mf_w.l(ffltui.o)
    0x0800049c   0x0800049c   0x00000028   Code   RO         5248    .text               mf_w.l(ffixui.o)
    0x080004c4   0x080004c4   0x00000026   Code   RO         5250    .text               mf_w.l(f2d.o)
    0x080004ea   0x080004ea   0x00000002   PAD
    0x080004ec   0x080004ec   0x00000014   Code   RO         5252    .text               mf_w.l(cfcmple.o)
    0x08000500   0x08000500   0x0000002c   Code   RO         5273    .text               mc_w.l(uidiv.o)
    0x0800052c   0x0800052c   0x00000062   Code   RO         5275    .text               mc_w.l(uldiv.o)
    0x0800058e   0x0800058e   0x00000070   Code   RO         5284    .text               mc_w.l(strtol.o)
    0x080005fe   0x080005fe   0x00000000   Code   RO         5286    .text               mc_w.l(iusefp.o)
    0x080005fe   0x080005fe   0x0000006e   Code   RO         5287    .text               mf_w.l(fepilogue.o)
    0x0800066c   0x0800066c   0x0000014e   Code   RO         5289    .text               mf_w.l(dadd.o)
    0x080007ba   0x080007ba   0x000000e4   Code   RO         5291    .text               mf_w.l(dmul.o)
    0x0800089e   0x0800089e   0x000000de   Code   RO         5293    .text               mf_w.l(ddiv.o)
    0x0800097c   0x0800097c   0x00000030   Code   RO         5295    .text               mf_w.l(dfixul.o)
    0x080009ac   0x080009ac   0x00000030   Code   RO         5297    .text               mf_w.l(cdrcmple.o)
    0x080009dc   0x080009dc   0x00000024   Code   RO         5299    .text               mc_w.l(init.o)
    0x08000a00   0x08000a00   0x0000001e   Code   RO         5301    .text               mc_w.l(llshl.o)
    0x08000a1e   0x08000a1e   0x00000020   Code   RO         5303    .text               mc_w.l(llushr.o)
    0x08000a3e   0x08000a3e   0x00000024   Code   RO         5305    .text               mc_w.l(llsshr.o)
    0x08000a62   0x08000a62   0x00000002   PAD
    0x08000a64   0x08000a64   0x00000008   Code   RO         5307    .text               mc_w.l(ctype_o.o)
    0x08000a6c   0x08000a6c   0x0000009e   Code   RO         5335    .text               mc_w.l(_strtoul.o)
    0x08000b0a   0x08000b0a   0x000000ba   Code   RO         5337    .text               mf_w.l(depilogue.o)
    0x08000bc4   0x08000bc4   0x0000001c   Code   RO         5339    .text               mc_w.l(_chval.o)
    0x08000be0   0x08000be0   0x0000000e   Code   RO         3805    i.$Sub$$main        components.o
    0x08000bee   0x08000bee   0x00000016   Code   RO          183    i.ADC_Cmd           stm32f10x_adc.o
    0x08000c04   0x08000c04   0x00000016   Code   RO          184    i.ADC_DMACmd        stm32f10x_adc.o
    0x08000c1a   0x08000c1a   0x00000014   Code   RO          191    i.ADC_GetCalibrationStatus  stm32f10x_adc.o
    0x08000c2e   0x08000c2e   0x00000014   Code   RO          197    i.ADC_GetResetCalibrationStatus  stm32f10x_adc.o
    0x08000c42   0x08000c42   0x00000002   PAD
    0x08000c44   0x08000c44   0x00000050   Code   RO          201    i.ADC_Init          stm32f10x_adc.o
    0x08000c94   0x08000c94   0x000000b8   Code   RO          205    i.ADC_RegularChannelConfig  stm32f10x_adc.o
    0x08000d4c   0x08000d4c   0x0000000a   Code   RO          206    i.ADC_ResetCalibration  stm32f10x_adc.o
    0x08000d56   0x08000d56   0x00000016   Code   RO          208    i.ADC_SoftwareStartConvCmd  stm32f10x_adc.o
    0x08000d6c   0x08000d6c   0x0000000a   Code   RO          210    i.ADC_StartCalibration  stm32f10x_adc.o
    0x08000d76   0x08000d76   0x00000002   PAD
    0x08000d78   0x08000d78   0x00000060   Code   RO         3488    i.ADCx_DMA_Config   bat_adc.o
    0x08000dd8   0x08000dd8   0x00000024   Code   RO         3489    i.ADCx_GPIO_Config  bat_adc.o
    0x08000dfc   0x08000dfc   0x00000010   Code   RO         3490    i.ADCx_Init         bat_adc.o
    0x08000e0c   0x08000e0c   0x0000008c   Code   RO         3491    i.ADCx_Mode_Config  bat_adc.o
    0x08000e98   0x08000e98   0x000000c4   Code   RO         3580    i.BLT_UART_Config   usart_blt.o
    0x08000f5c   0x08000f5c   0x00000004   Code   RO         3250    i.BusFault_Handler  stm32f10x_it.o
    0x08000f60   0x08000f60   0x0000001c   Code   RO          866    i.DMA_ClearFlag     stm32f10x_dma.o
    0x08000f7c   0x08000f7c   0x00000018   Code   RO          868    i.DMA_Cmd           stm32f10x_dma.o
    0x08000f94   0x08000f94   0x0000014c   Code   RO          869    i.DMA_DeInit        stm32f10x_dma.o
    0x080010e0   0x080010e0   0x0000002c   Code   RO          871    i.DMA_GetFlagStatus  stm32f10x_dma.o
    0x0800110c   0x0800110c   0x0000003c   Code   RO          874    i.DMA_Init          stm32f10x_dma.o
    0x08001148   0x08001148   0x00000004   Code   RO          875    i.DMA_SetCurrDataCounter  stm32f10x_dma.o
    0x0800114c   0x0800114c   0x000000cc   Code   RO         3435    i.Data_Process      usart_laser.o
    0x08001218   0x08001218   0x00000002   Code   RO         3251    i.DebugMon_Handler  stm32f10x_it.o
    0x0800121a   0x0800121a   0x00000002   PAD
    0x0800121c   0x0800121c   0x00000048   Code   RO         3252    i.EXTI15_10_IRQHandler  stm32f10x_it.o
    0x08001264   0x08001264   0x0000000c   Code   RO          939    i.EXTI_ClearITPendingBit  stm32f10x_exti.o
    0x08001270   0x08001270   0x00000018   Code   RO          942    i.EXTI_GetFlagStatus  stm32f10x_exti.o
    0x08001288   0x08001288   0x00000094   Code   RO          944    i.EXTI_Init         stm32f10x_exti.o
    0x0800131c   0x0800131c   0x00000040   Code   RO         1289    i.GPIO_EXTILineConfig  stm32f10x_gpio.o
    0x0800135c   0x0800135c   0x00000116   Code   RO         1292    i.GPIO_Init         stm32f10x_gpio.o
    0x08001472   0x08001472   0x00000004   Code   RO         1299    i.GPIO_ResetBits    stm32f10x_gpio.o
    0x08001476   0x08001476   0x00000004   Code   RO         1300    i.GPIO_SetBits      stm32f10x_gpio.o
    0x0800147a   0x0800147a   0x00000002   PAD
    0x0800147c   0x0800147c   0x00000074   Code   RO         3537    i.JDY31_Baud_Find   jdy-31.o
    0x080014f0   0x080014f0   0x00000022   Code   RO         3538    i.JDY31_EXTI_Config  jdy-31.o
    0x08001512   0x08001512   0x00000002   PAD
    0x08001514   0x08001514   0x0000003c   Code   RO         3539    i.JDY31_GPIO_Config  jdy-31.o
    0x08001550   0x08001550   0x000000cc   Code   RO         3540    i.JDY31_Init        jdy-31.o
    0x0800161c   0x0800161c   0x0000002a   Code   RO         3541    i.JDY31_NVIC_Config  jdy-31.o
    0x08001646   0x08001646   0x00000002   PAD
    0x08001648   0x08001648   0x00000074   Code   RO         3542    i.JDY31_Send_CMD    jdy-31.o
    0x080016bc   0x080016bc   0x00000060   Code   RO         3436    i.Laser_DMA_Config  usart_laser.o
    0x0800171c   0x0800171c   0x00000068   Code   RO         3437    i.Laser_Usart_Config  usart_laser.o
    0x08001784   0x08001784   0x00000004   Code   RO         3253    i.MemManage_Handler  stm32f10x_it.o
    0x08001788   0x08001788   0x0000003c   Code   RO         3348    i.Motol_Init        control.o
    0x080017c4   0x080017c4   0x00000002   Code   RO         3254    i.NMI_Handler       stm32f10x_it.o
    0x080017c6   0x080017c6   0x00000028   Code   RO         3581    i.NVIC_Configuration  usart_blt.o
    0x080017ee   0x080017ee   0x00000002   PAD
    0x080017f0   0x080017f0   0x00000070   Code   RO          137    i.NVIC_Init         misc.o
    0x08001860   0x08001860   0x00000014   Code   RO          138    i.NVIC_PriorityGroupConfig  misc.o
    0x08001874   0x08001874   0x00000064   Code   RO         3653    i.OLED_6x8Str       oled.o
    0x080018d8   0x080018d8   0x00000074   Code   RO         3655    i.OLED_BMP          oled.o
    0x0800194c   0x0800194c   0x0000000a   Code   RO         3656    i.OLED_CLS          oled.o
    0x08001956   0x08001956   0x0000003a   Code   RO         3657    i.OLED_Fill         oled.o
    0x08001990   0x08001990   0x00000104   Code   RO         3658    i.OLED_Init         oled.o
    0x08001a94   0x08001a94   0x00000028   Code   RO         3659    i.OLED_SetPos       oled.o
    0x08001abc   0x08001abc   0x0000001c   Code   RO         3660    i.OLED_WrCmd        oled.o
    0x08001ad8   0x08001ad8   0x0000001c   Code   RO         3661    i.OLED_WrDat        oled.o
    0x08001af4   0x08001af4   0x00000034   Code   RO         3408    i.PWM_BASE_Config   pwm.o
    0x08001b28   0x08001b28   0x00000048   Code   RO         3409    i.PWM_GPIO_Config   pwm.o
    0x08001b70   0x08001b70   0x00000016   Code   RO         3410    i.PWM_Init          pwm.o
    0x08001b86   0x08001b86   0x00000002   PAD
    0x08001b88   0x08001b88   0x00000058   Code   RO         3411    i.PWM_OC_Config     pwm.o
    0x08001be0   0x08001be0   0x00000018   Code   RO         1706    i.RCC_ADCCLKConfig  stm32f10x_rcc.o
    0x08001bf8   0x08001bf8   0x00000020   Code   RO         1707    i.RCC_AHBPeriphClockCmd  stm32f10x_rcc.o
    0x08001c18   0x08001c18   0x00000020   Code   RO         1708    i.RCC_APB1PeriphClockCmd  stm32f10x_rcc.o
    0x08001c38   0x08001c38   0x00000020   Code   RO         1710    i.RCC_APB2PeriphClockCmd  stm32f10x_rcc.o
    0x08001c58   0x08001c58   0x000000d4   Code   RO         1718    i.RCC_GetClocksFreq  stm32f10x_rcc.o
    0x08001d2c   0x08001d2c   0x00000018   Code   RO         2187    i.SPI_Cmd           stm32f10x_spi.o
    0x08001d44   0x08001d44   0x000000b4   Code   RO         3736    i.SPI_Config        spi.o
    0x08001df8   0x08001df8   0x00000012   Code   RO         2195    i.SPI_I2S_GetFlagStatus  stm32f10x_spi.o
    0x08001e0a   0x08001e0a   0x00000006   Code   RO         2198    i.SPI_I2S_ReceiveData  stm32f10x_spi.o
    0x08001e10   0x08001e10   0x00000004   Code   RO         2199    i.SPI_I2S_SendData  stm32f10x_spi.o
    0x08001e14   0x08001e14   0x0000003c   Code   RO         2200    i.SPI_Init          stm32f10x_spi.o
    0x08001e50   0x08001e50   0x00000078   Code   RO         3738    i.SPI_SendByte      spi.o
    0x08001ec8   0x08001ec8   0x0000002c   Code   RO         3739    i.SPI_TIMEOUT_UserCallback  spi.o
    0x08001ef4   0x08001ef4   0x00000002   Code   RO         3255    i.SVC_Handler       stm32f10x_it.o
    0x08001ef6   0x08001ef6   0x00000008   Code   RO           24    i.SetSysClock       system_stm32f10x.o
    0x08001efe   0x08001efe   0x00000002   PAD
    0x08001f00   0x08001f00   0x000000e0   Code   RO           25    i.SetSysClockTo72   system_stm32f10x.o
    0x08001fe0   0x08001fe0   0x0000007c   Code   RO         3351    i.Set_angle         control.o
    0x0800205c   0x0800205c   0x00000010   Code   RO         3310    i.SysTick_Handler   board.o
    0x0800206c   0x0800206c   0x00000060   Code   RO           27    i.SystemInit        system_stm32f10x.o
    0x080020cc   0x080020cc   0x00000018   Code   RO         2330    i.TIM_ARRPreloadConfig  stm32f10x_tim.o
    0x080020e4   0x080020e4   0x00000018   Code   RO         2342    i.TIM_Cmd           stm32f10x_tim.o
    0x080020fc   0x080020fc   0x00000098   Code   RO         2371    i.TIM_OC1Init       stm32f10x_tim.o
    0x08002194   0x08002194   0x00000012   Code   RO         2374    i.TIM_OC1PreloadConfig  stm32f10x_tim.o
    0x080021a6   0x080021a6   0x00000002   PAD
    0x080021a8   0x080021a8   0x0000007c   Code   RO         2386    i.TIM_OC4Init       stm32f10x_tim.o
    0x08002224   0x08002224   0x0000001a   Code   RO         2388    i.TIM_OC4PreloadConfig  stm32f10x_tim.o
    0x0800223e   0x0800223e   0x00000014   Code   RO         2389    i.TIM_OCStructInit  stm32f10x_tim.o
    0x08002252   0x08002252   0x00000004   Code   RO         2403    i.TIM_SetCompare1   stm32f10x_tim.o
    0x08002256   0x08002256   0x00000006   Code   RO         2406    i.TIM_SetCompare4   stm32f10x_tim.o
    0x0800225c   0x0800225c   0x000000a4   Code   RO         2413    i.TIM_TimeBaseInit  stm32f10x_tim.o
    0x08002300   0x08002300   0x00000012   Code   RO         2414    i.TIM_TimeBaseStructInit  stm32f10x_tim.o
    0x08002312   0x08002312   0x00000002   PAD
    0x08002314   0x08002314   0x00000068   Code   RO         3256    i.USART1_IRQHandler  stm32f10x_it.o
    0x0800237c   0x0800237c   0x00000012   Code   RO         2874    i.USART_ClearFlag   stm32f10x_usart.o
    0x0800238e   0x0800238e   0x00000018   Code   RO         2878    i.USART_Cmd         stm32f10x_usart.o
    0x080023a6   0x080023a6   0x00000012   Code   RO         2879    i.USART_DMACmd      stm32f10x_usart.o
    0x080023b8   0x080023b8   0x0000001a   Code   RO         2881    i.USART_GetFlagStatus  stm32f10x_usart.o
    0x080023d2   0x080023d2   0x00000054   Code   RO         2882    i.USART_GetITStatus  stm32f10x_usart.o
    0x08002426   0x08002426   0x0000004a   Code   RO         2884    i.USART_ITConfig    stm32f10x_usart.o
    0x08002470   0x08002470   0x000000d8   Code   RO         2885    i.USART_Init        stm32f10x_usart.o
    0x08002548   0x08002548   0x0000000a   Code   RO         2892    i.USART_ReceiveData  stm32f10x_usart.o
    0x08002552   0x08002552   0x00000008   Code   RO         2895    i.USART_SendData    stm32f10x_usart.o
    0x0800255a   0x0800255a   0x00000004   Code   RO         3257    i.UsageFault_Handler  stm32f10x_it.o
    0x0800255e   0x0800255e   0x0000001e   Code   RO         3582    i.Usart_SendByte    usart_blt.o
    0x0800257c   0x0800257c   0x0000001c   Code   RO         3584    i.Usart_SendString  usart_blt.o
    0x08002598   0x08002598   0x00000020   Code   RO         5210    i.__0printf         mc_w.l(printfa.o)
    0x080025b8   0x080025b8   0x00000028   Code   RO         5212    i.__0sprintf        mc_w.l(printfa.o)
    0x080025e0   0x080025e0   0x00000034   Code   RO         5215    i.__0vsnprintf      mc_w.l(printfa.o)
    0x08002614   0x08002614   0x00000008   Code   RO         5277    i.__aeabi_errno_addr  mc_w.l(errno.o)
    0x0800261c   0x0800261c   0x0000004c   Code   RO         4218    i.__rt_ffs          kservice.o
    0x08002668   0x08002668   0x0000000e   Code   RO         5343    i.__scatterload_copy  mc_w.l(handlers.o)
    0x08002676   0x08002676   0x00000002   Code   RO         5344    i.__scatterload_null  mc_w.l(handlers.o)
    0x08002678   0x08002678   0x0000000e   Code   RO         5345    i.__scatterload_zeroinit  mc_w.l(handlers.o)
    0x08002686   0x08002686   0x00000002   PAD
    0x08002688   0x08002688   0x00000184   Code   RO         5217    i._fp_digits        mc_w.l(printfa.o)
    0x0800280c   0x0800280c   0x00000014   Code   RO         3963    i._has_defunct_thread  idle.o
    0x08002820   0x08002820   0x000006b4   Code   RO         5218    i._printf_core      mc_w.l(printfa.o)
    0x08002ed4   0x08002ed4   0x00000024   Code   RO         5219    i._printf_post_padding  mc_w.l(printfa.o)
    0x08002ef8   0x08002ef8   0x0000002e   Code   RO         5220    i._printf_pre_padding  mc_w.l(printfa.o)
    0x08002f26   0x08002f26   0x00000002   PAD
    0x08002f28   0x08002f28   0x00000084   Code   RO         4620    i._rt_thread_init   thread.o
    0x08002fac   0x08002fac   0x00000042   Code   RO         4735    i._rt_timer_init    timer.o
    0x08002fee   0x08002fee   0x0000002e   Code   RO         4736    i._rt_timer_remove  timer.o
    0x0800301c   0x0800301c   0x00000016   Code   RO         5221    i._snputc           mc_w.l(printfa.o)
    0x08003032   0x08003032   0x0000000a   Code   RO         5222    i._sputc            mc_w.l(printfa.o)
    0x0800303c   0x0800303c   0x0000025c   Code   RO         3108    i.blt_thread_entry  main.o
    0x08003298   0x08003298   0x00000028   Code   RO         3585    i.clean_rebuff      usart_blt.o
    0x080032c0   0x080032c0   0x00000108   Code   RO         3109    i.control_thread_entry  main.o
    0x080033c8   0x080033c8   0x0000004c   Code   RO         3393    i.deinit_config     laserconfig.o
    0x08003414   0x08003414   0x00000020   Code   RO         3519    i.delay_ms          delay.o
    0x08003434   0x08003434   0x00000020   Code   RO         3662    i.delay_oled        oled.o
    0x08003454   0x08003454   0x00000024   Code   RO         3587    i.fputc             usart_blt.o
    0x08003478   0x08003478   0x00000014   Code   RO         3588    i.get_rebuff        usart_blt.o
    0x0800348c   0x0800348c   0x0000008c   Code   RO         3110    i.laser_thread_entry  main.o
    0x08003518   0x08003518   0x000000ec   Code   RO         3111    i.main              main.o
    0x08003604   0x08003604   0x0000000e   Code   RO         3806    i.main_thread_entry  components.o
    0x08003612   0x08003612   0x00000002   PAD
    0x08003614   0x08003614   0x000002e0   Code   RO         3112    i.oled_thread_entry  main.o
    0x080038f4   0x080038f4   0x00000078   Code   RO         4407    i.plug_holes        mem.o
    0x0800396c   0x0800396c   0x0000002c   Code   RO         3807    i.rt_application_init  components.o
    0x08003998   0x08003998   0x0000001c   Code   RO         3808    i.rt_components_board_init  components.o
    0x080039b4   0x080039b4   0x0000001c   Code   RO         3809    i.rt_components_init  components.o
    0x080039d0   0x080039d0   0x00000034   Code   RO         4222    i.rt_console_set_device  kservice.o
    0x08003a04   0x08003a04   0x00000036   Code   RO         3873    i.rt_device_close   device.o
    0x08003a3a   0x08003a3a   0x00000052   Code   RO         3877    i.rt_device_find    device.o
    0x08003a8c   0x08003a8c   0x000000b4   Code   RO         3880    i.rt_device_open    device.o
    0x08003b40   0x08003b40   0x0000003e   Code   RO         3886    i.rt_device_write   device.o
    0x08003b7e   0x08003b7e   0x00000002   PAD
    0x08003b80   0x08003b80   0x00000020   Code   RO         4539    i.rt_enter_critical  scheduler.o
    0x08003ba0   0x08003ba0   0x0000003c   Code   RO         4540    i.rt_exit_critical  scheduler.o
    0x08003bdc   0x08003bdc   0x000000e0   Code   RO         4409    i.rt_free           mem.o
    0x08003cbc   0x08003cbc   0x00000008   Code   RO         3311    i.rt_heap_begin_get  board.o
    0x08003cc4   0x08003cc4   0x00000008   Code   RO         3312    i.rt_heap_end_get   board.o
    0x08003ccc   0x08003ccc   0x000000d0   Code   RO         3313    i.rt_hw_board_init  board.o
    0x08003d9c   0x08003d9c   0x00000002   Code   RO         4225    i.rt_hw_console_output  kservice.o
    0x08003d9e   0x08003d9e   0x00000002   PAD
    0x08003da0   0x08003da0   0x00000200   Code   RO         4848    i.rt_hw_hard_fault_exception  cpuport.o
    0x08003fa0   0x08003fa0   0x0000004c   Code   RO         4849    i.rt_hw_stack_init  cpuport.o
    0x08003fec   0x08003fec   0x00000020   Code   RO         4191    i.rt_interrupt_enter  irq.o
    0x0800400c   0x0800400c   0x0000000c   Code   RO         4192    i.rt_interrupt_get_nest  irq.o
    0x08004018   0x08004018   0x00000020   Code   RO         4193    i.rt_interrupt_leave  irq.o
    0x08004038   0x08004038   0x00000014   Code   RO         4003    i.rt_ipc_list_resume  ipc.o
    0x0800404c   0x0800404c   0x0000006c   Code   RO         4005    i.rt_ipc_list_suspend  ipc.o
    0x080040b8   0x080040b8   0x00000010   Code   RO         4006    i.rt_ipc_object_init  ipc.o
    0x080040c8   0x080040c8   0x00000068   Code   RO         4226    i.rt_kprintf        kservice.o
    0x08004130   0x08004130   0x00000006   Code   RO         4007    i.rt_list_init      ipc.o
    0x08004136   0x08004136   0x00000006   Code   RO         4541    i.rt_list_init      scheduler.o
    0x0800413c   0x0800413c   0x00000006   Code   RO         4737    i.rt_list_init      timer.o
    0x08004142   0x08004142   0x0000000e   Code   RO         4469    i.rt_list_insert_after  object.o
    0x08004150   0x08004150   0x0000000e   Code   RO         4621    i.rt_list_insert_after  thread.o
    0x0800415e   0x0800415e   0x0000000e   Code   RO         4738    i.rt_list_insert_after  timer.o
    0x0800416c   0x0800416c   0x0000000e   Code   RO         4008    i.rt_list_insert_before  ipc.o
    0x0800417a   0x0800417a   0x00000010   Code   RO         4009    i.rt_list_isempty   ipc.o
    0x0800418a   0x0800418a   0x00000010   Code   RO         4739    i.rt_list_isempty   timer.o
    0x0800419a   0x0800419a   0x00000012   Code   RO         4470    i.rt_list_remove    object.o
    0x080041ac   0x080041ac   0x00000012   Code   RO         4622    i.rt_list_remove    thread.o
    0x080041be   0x080041be   0x00000002   PAD
    0x080041c0   0x080041c0   0x0000016c   Code   RO         4410    i.rt_malloc         mem.o
    0x0800432c   0x0800432c   0x00000048   Code   RO         4232    i.rt_memset         kservice.o
    0x08004374   0x08004374   0x0000004a   Code   RO         4471    i.rt_object_allocate  object.o
    0x080043be   0x080043be   0x00000020   Code   RO         4472    i.rt_object_delete  object.o
    0x080043de   0x080043de   0x0000001a   Code   RO         4473    i.rt_object_detach  object.o
    0x080043f8   0x080043f8   0x00000028   Code   RO         4475    i.rt_object_get_information  object.o
    0x08004420   0x08004420   0x0000003c   Code   RO         4476    i.rt_object_init    object.o
    0x0800445c   0x0800445c   0x00000012   Code   RO         4477    i.rt_object_is_systemobject  object.o
    0x0800446e   0x0800446e   0x00000002   PAD
    0x08004470   0x08004470   0x00000090   Code   RO         4542    i.rt_schedule       scheduler.o
    0x08004500   0x08004500   0x00000050   Code   RO         4543    i.rt_schedule_insert_thread  scheduler.o
    0x08004550   0x08004550   0x00000054   Code   RO         4544    i.rt_schedule_remove_thread  scheduler.o
    0x080045a4   0x080045a4   0x0000002a   Code   RO         4027    i.rt_sem_create     ipc.o
    0x080045ce   0x080045ce   0x00000026   Code   RO         4030    i.rt_sem_init       ipc.o
    0x080045f4   0x080045f4   0x0000003a   Code   RO         4031    i.rt_sem_release    ipc.o
    0x0800462e   0x0800462e   0x00000074   Code   RO         4032    i.rt_sem_take       ipc.o
    0x080046a2   0x080046a2   0x00000002   PAD
    0x080046a4   0x080046a4   0x00000028   Code   RO         4233    i.rt_set_errno      kservice.o
    0x080046cc   0x080046cc   0x000000b0   Code   RO         4234    i.rt_show_version   kservice.o
    0x0800477c   0x0800477c   0x00000028   Code   RO         4241    i.rt_strncmp        kservice.o
    0x080047a4   0x080047a4   0x00000034   Code   RO         4242    i.rt_strncpy        kservice.o
    0x080047d8   0x080047d8   0x000000f8   Code   RO         4413    i.rt_system_heap_init  mem.o
    0x080048d0   0x080048d0   0x0000004c   Code   RO         4545    i.rt_system_scheduler_init  scheduler.o
    0x0800491c   0x0800491c   0x00000030   Code   RO         4546    i.rt_system_scheduler_start  scheduler.o
    0x0800494c   0x0800494c   0x0000001c   Code   RO         4740    i.rt_system_timer_init  timer.o
    0x08004968   0x08004968   0x00000002   Code   RO         4741    i.rt_system_timer_thread_init  timer.o
    0x0800496a   0x0800496a   0x00000050   Code   RO         4624    i.rt_thread_create  thread.o
    0x080049ba   0x080049ba   0x0000000c   Code   RO         4625    i.rt_thread_delay   thread.o
    0x080049c6   0x080049c6   0x00000002   PAD
    0x080049c8   0x080049c8   0x00000040   Code   RO         4626    i.rt_thread_delete  thread.o
    0x08004a08   0x08004a08   0x00000054   Code   RO         4628    i.rt_thread_exit    thread.o
    0x08004a5c   0x08004a5c   0x00000008   Code   RO         3964    i.rt_thread_idle_entry  idle.o
    0x08004a64   0x08004a64   0x00000084   Code   RO         3965    i.rt_thread_idle_excute  idle.o
    0x08004ae8   0x08004ae8   0x0000003c   Code   RO         3967    i.rt_thread_idle_init  idle.o
    0x08004b24   0x08004b24   0x00000034   Code   RO         4630    i.rt_thread_init    thread.o
    0x08004b58   0x08004b58   0x0000003c   Code   RO         4631    i.rt_thread_resume  thread.o
    0x08004b94   0x08004b94   0x0000000c   Code   RO         4632    i.rt_thread_self    thread.o
    0x08004ba0   0x08004ba0   0x00000044   Code   RO         4633    i.rt_thread_sleep   thread.o
    0x08004be4   0x08004be4   0x0000002c   Code   RO         4634    i.rt_thread_startup  thread.o
    0x08004c10   0x08004c10   0x00000044   Code   RO         4635    i.rt_thread_suspend  thread.o
    0x08004c54   0x08004c54   0x00000020   Code   RO         4636    i.rt_thread_timeout  thread.o
    0x08004c74   0x08004c74   0x00000064   Code   RO         4637    i.rt_thread_yield   thread.o
    0x08004cd8   0x08004cd8   0x0000000c   Code   RO         3769    i.rt_tick_get       clock.o
    0x08004ce4   0x08004ce4   0x00000030   Code   RO         3770    i.rt_tick_increase  clock.o
    0x08004d14   0x08004d14   0x0000007c   Code   RO         4742    i.rt_timer_check    timer.o
    0x08004d90   0x08004d90   0x00000038   Code   RO         4743    i.rt_timer_control  timer.o
    0x08004dc8   0x08004dc8   0x00000020   Code   RO         4746    i.rt_timer_detach   timer.o
    0x08004de8   0x08004de8   0x0000002e   Code   RO         4747    i.rt_timer_init     timer.o
    0x08004e16   0x08004e16   0x00000002   PAD
    0x08004e18   0x08004e18   0x000000f8   Code   RO         4750    i.rt_timer_start    timer.o
    0x08004f10   0x08004f10   0x00000030   Code   RO         4751    i.rt_timer_stop     timer.o
    0x08004f40   0x08004f40   0x00000004   Code   RO         3810    i.rti_board_end     components.o
    0x08004f44   0x08004f44   0x00000004   Code   RO         3811    i.rti_board_start   components.o
    0x08004f48   0x08004f48   0x00000004   Code   RO         3812    i.rti_end           components.o
    0x08004f4c   0x08004f4c   0x00000004   Code   RO         3813    i.rti_start         components.o
    0x08004f50   0x08004f50   0x0000002a   Code   RO         3814    i.rtthread_startup  components.o
    0x08004f7a   0x08004f7a   0x00000100   Data   RO         3440    .constdata          usart_laser.o
    0x0800507a   0x0800507a   0x00000002   PAD
    0x0800507c   0x0800507c   0x00000018   Data   RO         3543    .constdata          jdy-31.o
    0x08005094   0x08005094   0x00000c98   Data   RO         3663    .constdata          oled.o
    0x08005d2c   0x08005d2c   0x00000122   Data   RO         4249    .constdata          kservice.o
    0x08005e4e   0x08005e4e   0x00000081   Data   RO         5308    .constdata          mc_w.l(ctype_o.o)
    0x08005ecf   0x08005ecf   0x00000001   PAD
    0x08005ed0   0x08005ed0   0x00000004   Data   RO         5309    .constdata          mc_w.l(ctype_o.o)
    0x08005ed4   0x08005ed4   0x00000004   Data   RO         3815    .rti_fn.0           components.o
    0x08005ed8   0x08005ed8   0x00000004   Data   RO         3816    .rti_fn.0.end       components.o
    0x08005edc   0x08005edc   0x00000004   Data   RO         3817    .rti_fn.1.end       components.o
    0x08005ee0   0x08005ee0   0x00000004   Data   RO         3818    .rti_fn.6.end       components.o
    0x08005ee4   0x08005ee4   0x00000020   Data   RO         5341    Region$$Table       anon$$obj.o


    Execution Region RW_IRAM1 (Exec base: 0x20000000, Load base: 0x08005f04, Size: 0x00002e10, Max: 0x00005000, ABSOLUTE)

    Exec Addr    Load Addr    Size         Type   Attr      Idx    E Section Name        Object

    0x20000000   0x08005f04   0x00000014   Data   RW           28    .data               system_stm32f10x.o
    0x20000014   0x08005f18   0x00000014   Data   RW         1738    .data               stm32f10x_rcc.o
    0x20000028   0x08005f2c   0x0000002d   Data   RW         3115    .data               main.o
    0x20000055   0x08005f59   0x00000001   Data   RW         3259    .data               stm32f10x_it.o
    0x20000056   0x08005f5a   0x00000004   Data   RW         3352    .data               control.o
    0x2000005a   0x08005f5e   0x00000002   PAD
    0x2000005c   0x08005f60   0x00000004   Data   RW         3740    .data               spi.o
    0x20000060   0x08005f64   0x00000004   Data   RW         3772    .data               clock.o
    0x20000064   0x08005f68   0x00000001   Data   RW         4194    .data               irq.o
    0x20000065   0x08005f69   0x00000003   PAD
    0x20000068   0x08005f6c   0x00000008   Data   RW         4250    .data               kservice.o
    0x20000070   0x08005f74   0x00000018   Data   RW         4415    .data               mem.o
    0x20000088   0x08005f8c   0x00000060   Data   RW         4479    .data               object.o
    0x200000e8   0x08005fec   0x00000018   Data   RW         4548    .data               scheduler.o
    0x20000100   0x08006004   0x0000000c   Data   RW         4752    .data               timer.o
    0x2000010c   0x08006010   0x00000010   Data   RW         4850    .data               cpuport.o
    0x2000011c   0x08006020   0x00000004   Data   RW         4970    .data               mc_w.l(strtok.o)
    0x20000120   0x08006024   0x00000004   Data   RW         5272    .data               mc_w.l(stdout.o)
    0x20000124   0x08006028   0x00000004   Data   RW         5280    .data               mc_w.l(errno.o)
    0x20000128        -       0x00000064   Zero   RW         3113    .bss                main.o
    0x2000018c        -       0x00002000   Zero   RW         3314    .bss                board.o
    0x2000218c        -       0x00000224   Zero   RW         3394    .bss                laserconfig.o
    0x200023b0        -       0x00000404   Zero   RW         3589    .bss                usart_blt.o
    0x200027b4        -       0x00000178   Zero   RW         3968    .bss                idle.o
    0x2000292c        -       0x00000080   Zero   RW         4248    .bss                kservice.o
    0x200029ac        -       0x00000020   Zero   RW         4414    .bss                mem.o
    0x200029cc        -       0x00000040   Zero   RW         4547    .bss                scheduler.o
    0x20002a0c   0x0800602c   0x00000004   PAD
    0x20002a10        -       0x00000400   Zero   RW            1    STACK               startup_stm32f10x_hd.o


==============================================================================

Image component sizes


      Code (inc. data)   RO Data    RW Data    ZI Data      Debug   Object Name

       288         22          0          0          0       1932   bat_adc.o
       240         40          0          0       8192      17570   board.o
        60         12          0          4          0       1089   clock.o
       186         28         16          0          0       5316   components.o
       240         26          0          0          0        748   context_rvds.o
       184         22          0          4          0       3090   control.o
         0          0          0          0          0       4500   core_cm3.o
       588        328          0         16          0       3070   cpuport.o
        32          0          0          0          0        471   delay.o
       378         58          0          0          0       3118   device.o
       220         30          0          0        376       4758   idle.o
       434          0          0          0          0       8005   ipc.o
        76         18          0          1          0       1886   irq.o
       572        112         24          0          0       3550   jdy-31.o
       614        160        290          8        128       8076   kservice.o
        76         18          0          0        548        676   laserconfig.o
      1980        534          0         45        100      15273   main.o
       956        224          0         24         32       3660   mem.o
       132         22          0          0          0       1419   misc.o
       282          4          0         96          0       7256   object.o
       672         20       3224          0          0       5525   oled.o
       234         18          0          0          0       1907   pwm.o
       530         88          0         24         64       7478   scheduler.o
       344         48          0          4          0       2056   spi.o
        36          8        304          0       1024        836   startup_stm32f10x_hd.o
       390         10          0          0          0       7033   stm32f10x_adc.o
       492         26          0          0          0       4839   stm32f10x_dma.o
       184         16          0          0          0       1922   stm32f10x_exti.o
       350          4          0          0          0       3458   stm32f10x_gpio.o
       194         18          0          1          0       3442   stm32f10x_it.o
       332         44          0         20          0       5305   stm32f10x_rcc.o
       112          0          0          0          0       3610   stm32f10x_spi.o
       580         72          0          0          0       6590   stm32f10x_tim.o
       478          6          0          0          0       6942   stm32f10x_usart.o
       328         28          0         20          0     276805   system_stm32f10x.o
       840         40          0          0          0      11238   thread.o
       732         20          0         12          0       9968   timer.o
       390         24          0          0       1028       7042   usart_blt.o
       404         32        256          0          0       3540   usart_laser.o

    ----------------------------------------------------------------------
     15198       2180       4148        284      11496     464999   Object Totals
         0          0         32          0          0          0   (incl. Generated)
        38          0          2          5          4          0   (incl. Padding)

    ----------------------------------------------------------------------

      Code (inc. data)   RO Data    RW Data    ZI Data      Debug   Library Member Name

        28          0          0          0          0         68   _chval.o
       158          0          0          0          0         92   _strtoul.o
        26          0          0          0          0         80   atoi.o
         8          4        133          0          0         68   ctype_o.o
         0          0          0          0          0          0   entry.o
         0          0          0          0          0          0   entry10a.o
         0          0          0          0          0          0   entry11a.o
         4          0          0          0          0          0   entry12b.o
         8          4          0          0          0          0   entry2.o
         4          0          0          0          0          0   entry5.o
         0          0          0          0          0          0   entry7b.o
         0          0          0          0          0          0   entry8b.o
         8          4          0          0          0          0   entry9a.o
         8          4          0          4          0         68   errno.o
        30          0          0          0          0          0   handlers.o
        36          8          0          0          0         68   init.o
         0          0          0          0          0          0   iusefp.o
        30          0          0          0          0         68   llshl.o
        36          0          0          0          0         68   llsshr.o
        32          0          0          0          0         68   llushr.o
        36          0          0          0          0         68   memcpya.o
      2342        102          0          0          0        764   printfa.o
         0          0          0          4          0          0   stdout.o
        36          0          0          0          0         80   strstr.o
        68          6          0          4          0         80   strtok.o
       112          0          0          0          0         88   strtol.o
        44          0          0          0          0         80   uidiv.o
        98          0          0          0          0         92   uldiv.o
        48          0          0          0          0         68   cdrcmple.o
        20          0          0          0          0         68   cfcmple.o
       334          0          0          0          0        148   dadd.o
       222          0          0          0          0        100   ddiv.o
       186          0          0          0          0        176   depilogue.o
        48          0          0          0          0         68   dfixul.o
       228          0          0          0          0         96   dmul.o
        38          0          0          0          0         68   f2d.o
       176          0          0          0          0        140   fadd.o
       124          0          0          0          0         88   fdiv.o
       110          0          0          0          0        168   fepilogue.o
        40          0          0          0          0         68   ffixui.o
        10          0          0          0          0         68   ffltui.o
       100          0          0          0          0         76   fmul.o

    ----------------------------------------------------------------------
      4844        132        134         12          0       3300   Library Totals
         8          0          1          0          0          0   (incl. Padding)

    ----------------------------------------------------------------------

      Code (inc. data)   RO Data    RW Data    ZI Data      Debug   Library Name

      3152        132        133         12          0       1900   mc_w.l
      1684          0          0          0          0       1400   mf_w.l

    ----------------------------------------------------------------------
      4844        132        134         12          0       3300   Library Totals

    ----------------------------------------------------------------------

==============================================================================


      Code (inc. data)   RO Data    RW Data    ZI Data      Debug   

     20042       2312       4282        296      11496     456127   Grand Totals
     20042       2312       4282        296      11496     456127   ELF Image Totals
     20042       2312       4282        296          0          0   ROM Totals

==============================================================================

    Total RO  Size (Code + RO Data)                24324 (  23.75kB)
    Total RW  Size (RW Data + ZI Data)             11792 (  11.52kB)
    Total ROM Size (Code + RO Data + RW Data)      24620 (  24.04kB)

==============================================================================

